
LEDS.elf:     file format elf32-littlearm

Sections:
Idx Name          Size      VMA       LMA       File off  Algn
  0 .isr_vector   000001ac  08000000  08000000  00010000  2**0
                  CONTENTS, ALLOC, LOAD, READONLY, DATA
  1 .text         000018b4  080001ac  080001ac  000101ac  2**2
                  CONTENTS, ALLOC, LOAD, READONLY, CODE
  2 .rodata       00000010  08001a60  08001a60  00011a60  2**2
                  CONTENTS, ALLOC, LOAD, READONLY, DATA
  3 .ARM.extab    00000000  08001a70  08001a70  0002000c  2**0
                  CONTENTS
  4 .ARM          00000008  08001a70  08001a70  00011a70  2**2
                  CONTENTS, ALLOC, LOAD, READONLY, DATA
  5 .preinit_array 00000000  08001a78  08001a78  0002000c  2**0
                  CONTENTS, ALLOC, LOAD, DATA
  6 .init_array   00000004  08001a78  08001a78  00011a78  2**2
                  CONTENTS, ALLOC, LOAD, DATA
  7 .fini_array   00000004  08001a7c  08001a7c  00011a7c  2**2
                  CONTENTS, ALLOC, LOAD, DATA
  8 .data         0000000c  20000000  08001a80  00020000  2**2
                  CONTENTS, ALLOC, LOAD, DATA
  9 .ccmram       00000000  10000000  10000000  0002000c  2**0
                  CONTENTS
 10 .bss          00000044  2000000c  2000000c  0002000c  2**2
                  ALLOC
 11 ._user_heap_stack 00000600  20000050  20000050  0002000c  2**0
                  ALLOC
 12 .ARM.attributes 00000030  00000000  00000000  0002000c  2**0
                  CONTENTS, READONLY
 13 .debug_info   00003ad5  00000000  00000000  0002003c  2**0
                  CONTENTS, READONLY, DEBUGGING, OCTETS
 14 .debug_abbrev 00000e44  00000000  00000000  00023b11  2**0
                  CONTENTS, READONLY, DEBUGGING, OCTETS
 15 .debug_aranges 00000400  00000000  00000000  00024958  2**3
                  CONTENTS, READONLY, DEBUGGING, OCTETS
 16 .debug_ranges 00000378  00000000  00000000  00024d58  2**3
                  CONTENTS, READONLY, DEBUGGING, OCTETS
 17 .debug_macro  0002154a  00000000  00000000  000250d0  2**0
                  CONTENTS, READONLY, DEBUGGING, OCTETS
 18 .debug_line   00004bdc  00000000  00000000  0004661a  2**0
                  CONTENTS, READONLY, DEBUGGING, OCTETS
 19 .debug_str    000caf63  00000000  00000000  0004b1f6  2**0
                  CONTENTS, READONLY, DEBUGGING, OCTETS
 20 .comment      00000050  00000000  00000000  00116159  2**0
                  CONTENTS, READONLY
 21 .debug_frame  00000e58  00000000  00000000  001161ac  2**2
                  CONTENTS, READONLY, DEBUGGING, OCTETS

Disassembly of section .text:

080001ac <__do_global_dtors_aux>:
 80001ac:	b510      	push	{r4, lr}
 80001ae:	4c05      	ldr	r4, [pc, #20]	; (80001c4 <__do_global_dtors_aux+0x18>)
 80001b0:	7823      	ldrb	r3, [r4, #0]
 80001b2:	b933      	cbnz	r3, 80001c2 <__do_global_dtors_aux+0x16>
 80001b4:	4b04      	ldr	r3, [pc, #16]	; (80001c8 <__do_global_dtors_aux+0x1c>)
 80001b6:	b113      	cbz	r3, 80001be <__do_global_dtors_aux+0x12>
 80001b8:	4804      	ldr	r0, [pc, #16]	; (80001cc <__do_global_dtors_aux+0x20>)
 80001ba:	f3af 8000 	nop.w
 80001be:	2301      	movs	r3, #1
 80001c0:	7023      	strb	r3, [r4, #0]
 80001c2:	bd10      	pop	{r4, pc}
 80001c4:	2000000c 	.word	0x2000000c
 80001c8:	00000000 	.word	0x00000000
 80001cc:	08001a48 	.word	0x08001a48

080001d0 <frame_dummy>:
 80001d0:	b508      	push	{r3, lr}
 80001d2:	4b03      	ldr	r3, [pc, #12]	; (80001e0 <frame_dummy+0x10>)
 80001d4:	b11b      	cbz	r3, 80001de <frame_dummy+0xe>
 80001d6:	4903      	ldr	r1, [pc, #12]	; (80001e4 <frame_dummy+0x14>)
 80001d8:	4803      	ldr	r0, [pc, #12]	; (80001e8 <frame_dummy+0x18>)
 80001da:	f3af 8000 	nop.w
 80001de:	bd08      	pop	{r3, pc}
 80001e0:	00000000 	.word	0x00000000
 80001e4:	20000010 	.word	0x20000010
 80001e8:	08001a48 	.word	0x08001a48

080001ec <__aeabi_uldivmod>:
 80001ec:	b953      	cbnz	r3, 8000204 <__aeabi_uldivmod+0x18>
 80001ee:	b94a      	cbnz	r2, 8000204 <__aeabi_uldivmod+0x18>
 80001f0:	2900      	cmp	r1, #0
 80001f2:	bf08      	it	eq
 80001f4:	2800      	cmpeq	r0, #0
 80001f6:	bf1c      	itt	ne
 80001f8:	f04f 31ff 	movne.w	r1, #4294967295	; 0xffffffff
 80001fc:	f04f 30ff 	movne.w	r0, #4294967295	; 0xffffffff
 8000200:	f000 b974 	b.w	80004ec <__aeabi_idiv0>
 8000204:	f1ad 0c08 	sub.w	ip, sp, #8
 8000208:	e96d ce04 	strd	ip, lr, [sp, #-16]!
 800020c:	f000 f806 	bl	800021c <__udivmoddi4>
 8000210:	f8dd e004 	ldr.w	lr, [sp, #4]
 8000214:	e9dd 2302 	ldrd	r2, r3, [sp, #8]
 8000218:	b004      	add	sp, #16
 800021a:	4770      	bx	lr

0800021c <__udivmoddi4>:
 800021c:	e92d 47f0 	stmdb	sp!, {r4, r5, r6, r7, r8, r9, sl, lr}
 8000220:	9d08      	ldr	r5, [sp, #32]
 8000222:	4604      	mov	r4, r0
 8000224:	468e      	mov	lr, r1
 8000226:	2b00      	cmp	r3, #0
 8000228:	d14d      	bne.n	80002c6 <__udivmoddi4+0xaa>
 800022a:	428a      	cmp	r2, r1
 800022c:	4694      	mov	ip, r2
 800022e:	d969      	bls.n	8000304 <__udivmoddi4+0xe8>
 8000230:	fab2 f282 	clz	r2, r2
 8000234:	b152      	cbz	r2, 800024c <__udivmoddi4+0x30>
 8000236:	fa01 f302 	lsl.w	r3, r1, r2
 800023a:	f1c2 0120 	rsb	r1, r2, #32
 800023e:	fa20 f101 	lsr.w	r1, r0, r1
 8000242:	fa0c fc02 	lsl.w	ip, ip, r2
 8000246:	ea41 0e03 	orr.w	lr, r1, r3
 800024a:	4094      	lsls	r4, r2
 800024c:	ea4f 481c 	mov.w	r8, ip, lsr #16
 8000250:	0c21      	lsrs	r1, r4, #16
 8000252:	fbbe f6f8 	udiv	r6, lr, r8
 8000256:	fa1f f78c 	uxth.w	r7, ip
 800025a:	fb08 e316 	mls	r3, r8, r6, lr
 800025e:	ea41 4303 	orr.w	r3, r1, r3, lsl #16
 8000262:	fb06 f107 	mul.w	r1, r6, r7
 8000266:	4299      	cmp	r1, r3
 8000268:	d90a      	bls.n	8000280 <__udivmoddi4+0x64>
 800026a:	eb1c 0303 	adds.w	r3, ip, r3
 800026e:	f106 30ff 	add.w	r0, r6, #4294967295	; 0xffffffff
 8000272:	f080 811f 	bcs.w	80004b4 <__udivmoddi4+0x298>
 8000276:	4299      	cmp	r1, r3
 8000278:	f240 811c 	bls.w	80004b4 <__udivmoddi4+0x298>
 800027c:	3e02      	subs	r6, #2
 800027e:	4463      	add	r3, ip
 8000280:	1a5b      	subs	r3, r3, r1
 8000282:	b2a4      	uxth	r4, r4
 8000284:	fbb3 f0f8 	udiv	r0, r3, r8
 8000288:	fb08 3310 	mls	r3, r8, r0, r3
 800028c:	ea44 4403 	orr.w	r4, r4, r3, lsl #16
 8000290:	fb00 f707 	mul.w	r7, r0, r7
 8000294:	42a7      	cmp	r7, r4
 8000296:	d90a      	bls.n	80002ae <__udivmoddi4+0x92>
 8000298:	eb1c 0404 	adds.w	r4, ip, r4
 800029c:	f100 33ff 	add.w	r3, r0, #4294967295	; 0xffffffff
 80002a0:	f080 810a 	bcs.w	80004b8 <__udivmoddi4+0x29c>
 80002a4:	42a7      	cmp	r7, r4
 80002a6:	f240 8107 	bls.w	80004b8 <__udivmoddi4+0x29c>
 80002aa:	4464      	add	r4, ip
 80002ac:	3802      	subs	r0, #2
 80002ae:	ea40 4006 	orr.w	r0, r0, r6, lsl #16
 80002b2:	1be4      	subs	r4, r4, r7
 80002b4:	2600      	movs	r6, #0
 80002b6:	b11d      	cbz	r5, 80002c0 <__udivmoddi4+0xa4>
 80002b8:	40d4      	lsrs	r4, r2
 80002ba:	2300      	movs	r3, #0
 80002bc:	e9c5 4300 	strd	r4, r3, [r5]
 80002c0:	4631      	mov	r1, r6
 80002c2:	e8bd 87f0 	ldmia.w	sp!, {r4, r5, r6, r7, r8, r9, sl, pc}
 80002c6:	428b      	cmp	r3, r1
 80002c8:	d909      	bls.n	80002de <__udivmoddi4+0xc2>
 80002ca:	2d00      	cmp	r5, #0
 80002cc:	f000 80ef 	beq.w	80004ae <__udivmoddi4+0x292>
 80002d0:	2600      	movs	r6, #0
 80002d2:	e9c5 0100 	strd	r0, r1, [r5]
 80002d6:	4630      	mov	r0, r6
 80002d8:	4631      	mov	r1, r6
 80002da:	e8bd 87f0 	ldmia.w	sp!, {r4, r5, r6, r7, r8, r9, sl, pc}
 80002de:	fab3 f683 	clz	r6, r3
 80002e2:	2e00      	cmp	r6, #0
 80002e4:	d14a      	bne.n	800037c <__udivmoddi4+0x160>
 80002e6:	428b      	cmp	r3, r1
 80002e8:	d302      	bcc.n	80002f0 <__udivmoddi4+0xd4>
 80002ea:	4282      	cmp	r2, r0
 80002ec:	f200 80f9 	bhi.w	80004e2 <__udivmoddi4+0x2c6>
 80002f0:	1a84      	subs	r4, r0, r2
 80002f2:	eb61 0303 	sbc.w	r3, r1, r3
 80002f6:	2001      	movs	r0, #1
 80002f8:	469e      	mov	lr, r3
 80002fa:	2d00      	cmp	r5, #0
 80002fc:	d0e0      	beq.n	80002c0 <__udivmoddi4+0xa4>
 80002fe:	e9c5 4e00 	strd	r4, lr, [r5]
 8000302:	e7dd      	b.n	80002c0 <__udivmoddi4+0xa4>
 8000304:	b902      	cbnz	r2, 8000308 <__udivmoddi4+0xec>
 8000306:	deff      	udf	#255	; 0xff
 8000308:	fab2 f282 	clz	r2, r2
 800030c:	2a00      	cmp	r2, #0
 800030e:	f040 8092 	bne.w	8000436 <__udivmoddi4+0x21a>
 8000312:	eba1 010c 	sub.w	r1, r1, ip
 8000316:	ea4f 471c 	mov.w	r7, ip, lsr #16
 800031a:	fa1f fe8c 	uxth.w	lr, ip
 800031e:	2601      	movs	r6, #1
 8000320:	0c20      	lsrs	r0, r4, #16
 8000322:	fbb1 f3f7 	udiv	r3, r1, r7
 8000326:	fb07 1113 	mls	r1, r7, r3, r1
 800032a:	ea40 4101 	orr.w	r1, r0, r1, lsl #16
 800032e:	fb0e f003 	mul.w	r0, lr, r3
 8000332:	4288      	cmp	r0, r1
 8000334:	d908      	bls.n	8000348 <__udivmoddi4+0x12c>
 8000336:	eb1c 0101 	adds.w	r1, ip, r1
 800033a:	f103 38ff 	add.w	r8, r3, #4294967295	; 0xffffffff
 800033e:	d202      	bcs.n	8000346 <__udivmoddi4+0x12a>
 8000340:	4288      	cmp	r0, r1
 8000342:	f200 80cb 	bhi.w	80004dc <__udivmoddi4+0x2c0>
 8000346:	4643      	mov	r3, r8
 8000348:	1a09      	subs	r1, r1, r0
 800034a:	b2a4      	uxth	r4, r4
 800034c:	fbb1 f0f7 	udiv	r0, r1, r7
 8000350:	fb07 1110 	mls	r1, r7, r0, r1
 8000354:	ea44 4401 	orr.w	r4, r4, r1, lsl #16
 8000358:	fb0e fe00 	mul.w	lr, lr, r0
 800035c:	45a6      	cmp	lr, r4
 800035e:	d908      	bls.n	8000372 <__udivmoddi4+0x156>
 8000360:	eb1c 0404 	adds.w	r4, ip, r4
 8000364:	f100 31ff 	add.w	r1, r0, #4294967295	; 0xffffffff
 8000368:	d202      	bcs.n	8000370 <__udivmoddi4+0x154>
 800036a:	45a6      	cmp	lr, r4
 800036c:	f200 80bb 	bhi.w	80004e6 <__udivmoddi4+0x2ca>
 8000370:	4608      	mov	r0, r1
 8000372:	eba4 040e 	sub.w	r4, r4, lr
 8000376:	ea40 4003 	orr.w	r0, r0, r3, lsl #16
 800037a:	e79c      	b.n	80002b6 <__udivmoddi4+0x9a>
 800037c:	f1c6 0720 	rsb	r7, r6, #32
 8000380:	40b3      	lsls	r3, r6
 8000382:	fa22 fc07 	lsr.w	ip, r2, r7
 8000386:	ea4c 0c03 	orr.w	ip, ip, r3
 800038a:	fa20 f407 	lsr.w	r4, r0, r7
 800038e:	fa01 f306 	lsl.w	r3, r1, r6
 8000392:	431c      	orrs	r4, r3
 8000394:	40f9      	lsrs	r1, r7
 8000396:	ea4f 491c 	mov.w	r9, ip, lsr #16
 800039a:	fa00 f306 	lsl.w	r3, r0, r6
 800039e:	fbb1 f8f9 	udiv	r8, r1, r9
 80003a2:	0c20      	lsrs	r0, r4, #16
 80003a4:	fa1f fe8c 	uxth.w	lr, ip
 80003a8:	fb09 1118 	mls	r1, r9, r8, r1
 80003ac:	ea40 4101 	orr.w	r1, r0, r1, lsl #16
 80003b0:	fb08 f00e 	mul.w	r0, r8, lr
 80003b4:	4288      	cmp	r0, r1
 80003b6:	fa02 f206 	lsl.w	r2, r2, r6
 80003ba:	d90b      	bls.n	80003d4 <__udivmoddi4+0x1b8>
 80003bc:	eb1c 0101 	adds.w	r1, ip, r1
 80003c0:	f108 3aff 	add.w	sl, r8, #4294967295	; 0xffffffff
 80003c4:	f080 8088 	bcs.w	80004d8 <__udivmoddi4+0x2bc>
 80003c8:	4288      	cmp	r0, r1
 80003ca:	f240 8085 	bls.w	80004d8 <__udivmoddi4+0x2bc>
 80003ce:	f1a8 0802 	sub.w	r8, r8, #2
 80003d2:	4461      	add	r1, ip
 80003d4:	1a09      	subs	r1, r1, r0
 80003d6:	b2a4      	uxth	r4, r4
 80003d8:	fbb1 f0f9 	udiv	r0, r1, r9
 80003dc:	fb09 1110 	mls	r1, r9, r0, r1
 80003e0:	ea44 4101 	orr.w	r1, r4, r1, lsl #16
 80003e4:	fb00 fe0e 	mul.w	lr, r0, lr
 80003e8:	458e      	cmp	lr, r1
 80003ea:	d908      	bls.n	80003fe <__udivmoddi4+0x1e2>
 80003ec:	eb1c 0101 	adds.w	r1, ip, r1
 80003f0:	f100 34ff 	add.w	r4, r0, #4294967295	; 0xffffffff
 80003f4:	d26c      	bcs.n	80004d0 <__udivmoddi4+0x2b4>
 80003f6:	458e      	cmp	lr, r1
 80003f8:	d96a      	bls.n	80004d0 <__udivmoddi4+0x2b4>
 80003fa:	3802      	subs	r0, #2
 80003fc:	4461      	add	r1, ip
 80003fe:	ea40 4008 	orr.w	r0, r0, r8, lsl #16
 8000402:	fba0 9402 	umull	r9, r4, r0, r2
 8000406:	eba1 010e 	sub.w	r1, r1, lr
 800040a:	42a1      	cmp	r1, r4
 800040c:	46c8      	mov	r8, r9
 800040e:	46a6      	mov	lr, r4
 8000410:	d356      	bcc.n	80004c0 <__udivmoddi4+0x2a4>
 8000412:	d053      	beq.n	80004bc <__udivmoddi4+0x2a0>
 8000414:	b15d      	cbz	r5, 800042e <__udivmoddi4+0x212>
 8000416:	ebb3 0208 	subs.w	r2, r3, r8
 800041a:	eb61 010e 	sbc.w	r1, r1, lr
 800041e:	fa01 f707 	lsl.w	r7, r1, r7
 8000422:	fa22 f306 	lsr.w	r3, r2, r6
 8000426:	40f1      	lsrs	r1, r6
 8000428:	431f      	orrs	r7, r3
 800042a:	e9c5 7100 	strd	r7, r1, [r5]
 800042e:	2600      	movs	r6, #0
 8000430:	4631      	mov	r1, r6
 8000432:	e8bd 87f0 	ldmia.w	sp!, {r4, r5, r6, r7, r8, r9, sl, pc}
 8000436:	f1c2 0320 	rsb	r3, r2, #32
 800043a:	40d8      	lsrs	r0, r3
 800043c:	fa0c fc02 	lsl.w	ip, ip, r2
 8000440:	fa21 f303 	lsr.w	r3, r1, r3
 8000444:	4091      	lsls	r1, r2
 8000446:	4301      	orrs	r1, r0
 8000448:	ea4f 471c 	mov.w	r7, ip, lsr #16
 800044c:	fa1f fe8c 	uxth.w	lr, ip
 8000450:	fbb3 f0f7 	udiv	r0, r3, r7
 8000454:	fb07 3610 	mls	r6, r7, r0, r3
 8000458:	0c0b      	lsrs	r3, r1, #16
 800045a:	ea43 4306 	orr.w	r3, r3, r6, lsl #16
 800045e:	fb00 f60e 	mul.w	r6, r0, lr
 8000462:	429e      	cmp	r6, r3
 8000464:	fa04 f402 	lsl.w	r4, r4, r2
 8000468:	d908      	bls.n	800047c <__udivmoddi4+0x260>
 800046a:	eb1c 0303 	adds.w	r3, ip, r3
 800046e:	f100 38ff 	add.w	r8, r0, #4294967295	; 0xffffffff
 8000472:	d22f      	bcs.n	80004d4 <__udivmoddi4+0x2b8>
 8000474:	429e      	cmp	r6, r3
 8000476:	d92d      	bls.n	80004d4 <__udivmoddi4+0x2b8>
 8000478:	3802      	subs	r0, #2
 800047a:	4463      	add	r3, ip
 800047c:	1b9b      	subs	r3, r3, r6
 800047e:	b289      	uxth	r1, r1
 8000480:	fbb3 f6f7 	udiv	r6, r3, r7
 8000484:	fb07 3316 	mls	r3, r7, r6, r3
 8000488:	ea41 4103 	orr.w	r1, r1, r3, lsl #16
 800048c:	fb06 f30e 	mul.w	r3, r6, lr
 8000490:	428b      	cmp	r3, r1
 8000492:	d908      	bls.n	80004a6 <__udivmoddi4+0x28a>
 8000494:	eb1c 0101 	adds.w	r1, ip, r1
 8000498:	f106 38ff 	add.w	r8, r6, #4294967295	; 0xffffffff
 800049c:	d216      	bcs.n	80004cc <__udivmoddi4+0x2b0>
 800049e:	428b      	cmp	r3, r1
 80004a0:	d914      	bls.n	80004cc <__udivmoddi4+0x2b0>
 80004a2:	3e02      	subs	r6, #2
 80004a4:	4461      	add	r1, ip
 80004a6:	1ac9      	subs	r1, r1, r3
 80004a8:	ea46 4600 	orr.w	r6, r6, r0, lsl #16
 80004ac:	e738      	b.n	8000320 <__udivmoddi4+0x104>
 80004ae:	462e      	mov	r6, r5
 80004b0:	4628      	mov	r0, r5
 80004b2:	e705      	b.n	80002c0 <__udivmoddi4+0xa4>
 80004b4:	4606      	mov	r6, r0
 80004b6:	e6e3      	b.n	8000280 <__udivmoddi4+0x64>
 80004b8:	4618      	mov	r0, r3
 80004ba:	e6f8      	b.n	80002ae <__udivmoddi4+0x92>
 80004bc:	454b      	cmp	r3, r9
 80004be:	d2a9      	bcs.n	8000414 <__udivmoddi4+0x1f8>
 80004c0:	ebb9 0802 	subs.w	r8, r9, r2
 80004c4:	eb64 0e0c 	sbc.w	lr, r4, ip
 80004c8:	3801      	subs	r0, #1
 80004ca:	e7a3      	b.n	8000414 <__udivmoddi4+0x1f8>
 80004cc:	4646      	mov	r6, r8
 80004ce:	e7ea      	b.n	80004a6 <__udivmoddi4+0x28a>
 80004d0:	4620      	mov	r0, r4
 80004d2:	e794      	b.n	80003fe <__udivmoddi4+0x1e2>
 80004d4:	4640      	mov	r0, r8
 80004d6:	e7d1      	b.n	800047c <__udivmoddi4+0x260>
 80004d8:	46d0      	mov	r8, sl
 80004da:	e77b      	b.n	80003d4 <__udivmoddi4+0x1b8>
 80004dc:	3b02      	subs	r3, #2
 80004de:	4461      	add	r1, ip
 80004e0:	e732      	b.n	8000348 <__udivmoddi4+0x12c>
 80004e2:	4630      	mov	r0, r6
 80004e4:	e709      	b.n	80002fa <__udivmoddi4+0xde>
 80004e6:	4464      	add	r4, ip
 80004e8:	3802      	subs	r0, #2
 80004ea:	e742      	b.n	8000372 <__udivmoddi4+0x156>

080004ec <__aeabi_idiv0>:
 80004ec:	4770      	bx	lr
 80004ee:	bf00      	nop

080004f0 <main>:
/**
  * @brief  The application entry point.
  * @retval int
  */
int main(void)
{
 80004f0:	b580      	push	{r7, lr}
 80004f2:	b082      	sub	sp, #8
 80004f4:	af00      	add	r7, sp, #0


  bool BUTCONTROLSTATE=false;   /* CONTROL PUSH BUTTON STATUS */
 80004f6:	2300      	movs	r3, #0
 80004f8:	71fb      	strb	r3, [r7, #7]
  bool start=false;      /* STOP OR INIT SEQUENCE */
 80004fa:	2300      	movs	r3, #0
 80004fc:	71bb      	strb	r3, [r7, #6]

  HAL_Init();
 80004fe:	f000 fa9f 	bl	8000a40 <HAL_Init>


  SystemClock_Config();
 8000502:	f000 f93d 	bl	8000780 <SystemClock_Config>
  /* USER CODE BEGIN SysInit */

  /* USER CODE END SysInit */

  /* Initialize all configured peripherals */
  MX_GPIO_Init();
 8000506:	f000 f9a7 	bl	8000858 <MX_GPIO_Init>
  while (1)
  {
/* ****************************** PUSH BUTTON********************* */
/* this condition will only increase one each time the button is pressed */

 BUT=HAL_GPIO_ReadPin(BUTTON_GPIO_Port,BUTTON_Pin);
 800050a:	2101      	movs	r1, #1
 800050c:	4891      	ldr	r0, [pc, #580]	; (8000754 <main+0x264>)
 800050e:	f000 fdbf 	bl	8001090 <HAL_GPIO_ReadPin>
 8000512:	4603      	mov	r3, r0
 8000514:	461a      	mov	r2, r3
 8000516:	4b90      	ldr	r3, [pc, #576]	; (8000758 <main+0x268>)
 8000518:	601a      	str	r2, [r3, #0]

	  if (BUT && !BUTCONTROLSTATE){
 800051a:	4b8f      	ldr	r3, [pc, #572]	; (8000758 <main+0x268>)
 800051c:	681b      	ldr	r3, [r3, #0]
 800051e:	2b00      	cmp	r3, #0
 8000520:	d00d      	beq.n	800053e <main+0x4e>
 8000522:	79fb      	ldrb	r3, [r7, #7]
 8000524:	f083 0301 	eor.w	r3, r3, #1
 8000528:	b2db      	uxtb	r3, r3
 800052a:	2b00      	cmp	r3, #0
 800052c:	d007      	beq.n	800053e <main+0x4e>
		  counter++;
 800052e:	4b8b      	ldr	r3, [pc, #556]	; (800075c <main+0x26c>)
 8000530:	681b      	ldr	r3, [r3, #0]
 8000532:	3301      	adds	r3, #1
 8000534:	4a89      	ldr	r2, [pc, #548]	; (800075c <main+0x26c>)
 8000536:	6013      	str	r3, [r2, #0]
		  BUTCONTROLSTATE=true;
 8000538:	2301      	movs	r3, #1
 800053a:	71fb      	strb	r3, [r7, #7]
 800053c:	e008      	b.n	8000550 <main+0x60>

	  }
	  else if(!BUT && BUTCONTROLSTATE ){
 800053e:	4b86      	ldr	r3, [pc, #536]	; (8000758 <main+0x268>)
 8000540:	681b      	ldr	r3, [r3, #0]
 8000542:	2b00      	cmp	r3, #0
 8000544:	d104      	bne.n	8000550 <main+0x60>
 8000546:	79fb      	ldrb	r3, [r7, #7]
 8000548:	2b00      	cmp	r3, #0
 800054a:	d001      	beq.n	8000550 <main+0x60>
		 BUTCONTROLSTATE=false;
 800054c:	2300      	movs	r3, #0
 800054e:	71fb      	strb	r3, [r7, #7]
/* *************************************************************** */

/* ***************************** ****STEPS ************************ */
/*   This steeps will put the values to speed, stop and start  **** */

	  switch(counter){
 8000550:	4b82      	ldr	r3, [pc, #520]	; (800075c <main+0x26c>)
 8000552:	681b      	ldr	r3, [r3, #0]
 8000554:	2b04      	cmp	r3, #4
 8000556:	d824      	bhi.n	80005a2 <main+0xb2>
 8000558:	a201      	add	r2, pc, #4	; (adr r2, 8000560 <main+0x70>)
 800055a:	f852 f023 	ldr.w	pc, [r2, r3, lsl #2]
 800055e:	bf00      	nop
 8000560:	08000575 	.word	0x08000575
 8000564:	0800057b 	.word	0x0800057b
 8000568:	08000587 	.word	0x08000587
 800056c:	0800058f 	.word	0x0800058f
 8000570:	08000597 	.word	0x08000597
	  case 0: start=false;
 8000574:	2300      	movs	r3, #0
 8000576:	71bb      	strb	r3, [r7, #6]
	  	  break;
 8000578:	e013      	b.n	80005a2 <main+0xb2>
	  case 1: start=true;
 800057a:	2301      	movs	r3, #1
 800057c:	71bb      	strb	r3, [r7, #6]
	  	  	  speed=100;
 800057e:	4b78      	ldr	r3, [pc, #480]	; (8000760 <main+0x270>)
 8000580:	2264      	movs	r2, #100	; 0x64
 8000582:	601a      	str	r2, [r3, #0]
	  	  break;
 8000584:	e00d      	b.n	80005a2 <main+0xb2>
	  case 2: speed=50;
 8000586:	4b76      	ldr	r3, [pc, #472]	; (8000760 <main+0x270>)
 8000588:	2232      	movs	r2, #50	; 0x32
 800058a:	601a      	str	r2, [r3, #0]
	  	  break;
 800058c:	e009      	b.n	80005a2 <main+0xb2>
	  case 3: speed=20;
 800058e:	4b74      	ldr	r3, [pc, #464]	; (8000760 <main+0x270>)
 8000590:	2214      	movs	r2, #20
 8000592:	601a      	str	r2, [r3, #0]
	  	  break;
 8000594:	e005      	b.n	80005a2 <main+0xb2>
	  case 4: start=false;
 8000596:	2300      	movs	r3, #0
 8000598:	71bb      	strb	r3, [r7, #6]
	  	  	  counter=0;
 800059a:	4b70      	ldr	r3, [pc, #448]	; (800075c <main+0x26c>)
 800059c:	2200      	movs	r2, #0
 800059e:	601a      	str	r2, [r3, #0]
	  	  break;
 80005a0:	bf00      	nop

	  }

/* ************************************* LED SEQUENCE ***************** */

	  if (start){
 80005a2:	79bb      	ldrb	r3, [r7, #6]
 80005a4:	2b00      	cmp	r3, #0
 80005a6:	d0b0      	beq.n	800050a <main+0x1a>

		  HAL_GPIO_TogglePin(LED_3_GPIO_Port,LED_3_Pin);
 80005a8:	f44f 6100 	mov.w	r1, #2048	; 0x800
 80005ac:	486d      	ldr	r0, [pc, #436]	; (8000764 <main+0x274>)
 80005ae:	f000 fda0 	bl	80010f2 <HAL_GPIO_TogglePin>
		  LED3=HAL_GPIO_ReadPin(LED_3_GPIO_Port, LED_3_Pin);
 80005b2:	f44f 6100 	mov.w	r1, #2048	; 0x800
 80005b6:	486b      	ldr	r0, [pc, #428]	; (8000764 <main+0x274>)
 80005b8:	f000 fd6a 	bl	8001090 <HAL_GPIO_ReadPin>
 80005bc:	4603      	mov	r3, r0
 80005be:	461a      	mov	r2, r3
 80005c0:	4b69      	ldr	r3, [pc, #420]	; (8000768 <main+0x278>)
 80005c2:	601a      	str	r2, [r3, #0]
		  HAL_GPIO_TogglePin(LED_4_GPIO_Port,LED_4_Pin);
 80005c4:	f44f 5180 	mov.w	r1, #4096	; 0x1000
 80005c8:	4866      	ldr	r0, [pc, #408]	; (8000764 <main+0x274>)
 80005ca:	f000 fd92 	bl	80010f2 <HAL_GPIO_TogglePin>
		  LED4=HAL_GPIO_ReadPin(LED_4_GPIO_Port, LED_4_Pin);
 80005ce:	f44f 5180 	mov.w	r1, #4096	; 0x1000
 80005d2:	4864      	ldr	r0, [pc, #400]	; (8000764 <main+0x274>)
 80005d4:	f000 fd5c 	bl	8001090 <HAL_GPIO_ReadPin>
 80005d8:	4603      	mov	r3, r0
 80005da:	461a      	mov	r2, r3
 80005dc:	4b63      	ldr	r3, [pc, #396]	; (800076c <main+0x27c>)
 80005de:	601a      	str	r2, [r3, #0]
		  HAL_Delay(speed);
 80005e0:	4b5f      	ldr	r3, [pc, #380]	; (8000760 <main+0x270>)
 80005e2:	681b      	ldr	r3, [r3, #0]
 80005e4:	4618      	mov	r0, r3
 80005e6:	f000 fa9d 	bl	8000b24 <HAL_Delay>
		  HAL_GPIO_TogglePin(LED_2_GPIO_Port,LED_2_Pin);
 80005ea:	f44f 6180 	mov.w	r1, #1024	; 0x400
 80005ee:	485d      	ldr	r0, [pc, #372]	; (8000764 <main+0x274>)
 80005f0:	f000 fd7f 	bl	80010f2 <HAL_GPIO_TogglePin>
		  LED2=HAL_GPIO_ReadPin(LED_2_GPIO_Port, LED_2_Pin);
 80005f4:	f44f 6180 	mov.w	r1, #1024	; 0x400
 80005f8:	485a      	ldr	r0, [pc, #360]	; (8000764 <main+0x274>)
 80005fa:	f000 fd49 	bl	8001090 <HAL_GPIO_ReadPin>
 80005fe:	4603      	mov	r3, r0
 8000600:	461a      	mov	r2, r3
 8000602:	4b5b      	ldr	r3, [pc, #364]	; (8000770 <main+0x280>)
 8000604:	601a      	str	r2, [r3, #0]
		  HAL_GPIO_TogglePin(LED_5_GPIO_Port,LED_5_Pin);
 8000606:	f44f 5100 	mov.w	r1, #8192	; 0x2000
 800060a:	4856      	ldr	r0, [pc, #344]	; (8000764 <main+0x274>)
 800060c:	f000 fd71 	bl	80010f2 <HAL_GPIO_TogglePin>
		  LED5=HAL_GPIO_ReadPin(LED_5_GPIO_Port, LED_5_Pin);
 8000610:	f44f 5100 	mov.w	r1, #8192	; 0x2000
 8000614:	4853      	ldr	r0, [pc, #332]	; (8000764 <main+0x274>)
 8000616:	f000 fd3b 	bl	8001090 <HAL_GPIO_ReadPin>
 800061a:	4603      	mov	r3, r0
 800061c:	461a      	mov	r2, r3
 800061e:	4b55      	ldr	r3, [pc, #340]	; (8000774 <main+0x284>)
 8000620:	601a      	str	r2, [r3, #0]
		  HAL_Delay(speed);
 8000622:	4b4f      	ldr	r3, [pc, #316]	; (8000760 <main+0x270>)
 8000624:	681b      	ldr	r3, [r3, #0]
 8000626:	4618      	mov	r0, r3
 8000628:	f000 fa7c 	bl	8000b24 <HAL_Delay>
		  HAL_GPIO_TogglePin(LED_1_GPIO_Port,LED_1_Pin);
 800062c:	f44f 7100 	mov.w	r1, #512	; 0x200
 8000630:	484c      	ldr	r0, [pc, #304]	; (8000764 <main+0x274>)
 8000632:	f000 fd5e 	bl	80010f2 <HAL_GPIO_TogglePin>
		  LED1=HAL_GPIO_ReadPin(LED_1_GPIO_Port, LED_1_Pin);
 8000636:	f44f 7100 	mov.w	r1, #512	; 0x200
 800063a:	484a      	ldr	r0, [pc, #296]	; (8000764 <main+0x274>)
 800063c:	f000 fd28 	bl	8001090 <HAL_GPIO_ReadPin>
 8000640:	4603      	mov	r3, r0
 8000642:	461a      	mov	r2, r3
 8000644:	4b4c      	ldr	r3, [pc, #304]	; (8000778 <main+0x288>)
 8000646:	601a      	str	r2, [r3, #0]
		  HAL_GPIO_TogglePin(LED_6_GPIO_Port,LED_6_Pin);
 8000648:	f44f 4180 	mov.w	r1, #16384	; 0x4000
 800064c:	4845      	ldr	r0, [pc, #276]	; (8000764 <main+0x274>)
 800064e:	f000 fd50 	bl	80010f2 <HAL_GPIO_TogglePin>
		  LED6=HAL_GPIO_ReadPin(LED_6_GPIO_Port, LED_6_Pin);
 8000652:	f44f 4180 	mov.w	r1, #16384	; 0x4000
 8000656:	4843      	ldr	r0, [pc, #268]	; (8000764 <main+0x274>)
 8000658:	f000 fd1a 	bl	8001090 <HAL_GPIO_ReadPin>
 800065c:	4603      	mov	r3, r0
 800065e:	461a      	mov	r2, r3
 8000660:	4b46      	ldr	r3, [pc, #280]	; (800077c <main+0x28c>)
 8000662:	601a      	str	r2, [r3, #0]
		  HAL_Delay(speed);
 8000664:	4b3e      	ldr	r3, [pc, #248]	; (8000760 <main+0x270>)
 8000666:	681b      	ldr	r3, [r3, #0]
 8000668:	4618      	mov	r0, r3
 800066a:	f000 fa5b 	bl	8000b24 <HAL_Delay>

		  HAL_GPIO_TogglePin(LED_1_GPIO_Port,LED_1_Pin);
 800066e:	f44f 7100 	mov.w	r1, #512	; 0x200
 8000672:	483c      	ldr	r0, [pc, #240]	; (8000764 <main+0x274>)
 8000674:	f000 fd3d 	bl	80010f2 <HAL_GPIO_TogglePin>
		  LED1=HAL_GPIO_ReadPin(LED_1_GPIO_Port, LED_1_Pin);
 8000678:	f44f 7100 	mov.w	r1, #512	; 0x200
 800067c:	4839      	ldr	r0, [pc, #228]	; (8000764 <main+0x274>)
 800067e:	f000 fd07 	bl	8001090 <HAL_GPIO_ReadPin>
 8000682:	4603      	mov	r3, r0
 8000684:	461a      	mov	r2, r3
 8000686:	4b3c      	ldr	r3, [pc, #240]	; (8000778 <main+0x288>)
 8000688:	601a      	str	r2, [r3, #0]
		  HAL_Delay(speed);
 800068a:	4b35      	ldr	r3, [pc, #212]	; (8000760 <main+0x270>)
 800068c:	681b      	ldr	r3, [r3, #0]
 800068e:	4618      	mov	r0, r3
 8000690:	f000 fa48 	bl	8000b24 <HAL_Delay>
		  HAL_GPIO_TogglePin(LED_2_GPIO_Port,LED_2_Pin);
 8000694:	f44f 6180 	mov.w	r1, #1024	; 0x400
 8000698:	4832      	ldr	r0, [pc, #200]	; (8000764 <main+0x274>)
 800069a:	f000 fd2a 	bl	80010f2 <HAL_GPIO_TogglePin>
		  LED2=HAL_GPIO_ReadPin(LED_2_GPIO_Port, LED_2_Pin);
 800069e:	f44f 6180 	mov.w	r1, #1024	; 0x400
 80006a2:	4830      	ldr	r0, [pc, #192]	; (8000764 <main+0x274>)
 80006a4:	f000 fcf4 	bl	8001090 <HAL_GPIO_ReadPin>
 80006a8:	4603      	mov	r3, r0
 80006aa:	461a      	mov	r2, r3
 80006ac:	4b30      	ldr	r3, [pc, #192]	; (8000770 <main+0x280>)
 80006ae:	601a      	str	r2, [r3, #0]
		  HAL_Delay(speed);
 80006b0:	4b2b      	ldr	r3, [pc, #172]	; (8000760 <main+0x270>)
 80006b2:	681b      	ldr	r3, [r3, #0]
 80006b4:	4618      	mov	r0, r3
 80006b6:	f000 fa35 	bl	8000b24 <HAL_Delay>
		  HAL_GPIO_TogglePin(LED_3_GPIO_Port,LED_3_Pin);
 80006ba:	f44f 6100 	mov.w	r1, #2048	; 0x800
 80006be:	4829      	ldr	r0, [pc, #164]	; (8000764 <main+0x274>)
 80006c0:	f000 fd17 	bl	80010f2 <HAL_GPIO_TogglePin>
		  LED3=HAL_GPIO_ReadPin(LED_3_GPIO_Port, LED_3_Pin);
 80006c4:	f44f 6100 	mov.w	r1, #2048	; 0x800
 80006c8:	4826      	ldr	r0, [pc, #152]	; (8000764 <main+0x274>)
 80006ca:	f000 fce1 	bl	8001090 <HAL_GPIO_ReadPin>
 80006ce:	4603      	mov	r3, r0
 80006d0:	461a      	mov	r2, r3
 80006d2:	4b25      	ldr	r3, [pc, #148]	; (8000768 <main+0x278>)
 80006d4:	601a      	str	r2, [r3, #0]
		  HAL_Delay(speed);
 80006d6:	4b22      	ldr	r3, [pc, #136]	; (8000760 <main+0x270>)
 80006d8:	681b      	ldr	r3, [r3, #0]
 80006da:	4618      	mov	r0, r3
 80006dc:	f000 fa22 	bl	8000b24 <HAL_Delay>
		  HAL_GPIO_TogglePin(LED_4_GPIO_Port,LED_4_Pin);
 80006e0:	f44f 5180 	mov.w	r1, #4096	; 0x1000
 80006e4:	481f      	ldr	r0, [pc, #124]	; (8000764 <main+0x274>)
 80006e6:	f000 fd04 	bl	80010f2 <HAL_GPIO_TogglePin>
		  LED4=HAL_GPIO_ReadPin(LED_4_GPIO_Port, LED_4_Pin);
 80006ea:	f44f 5180 	mov.w	r1, #4096	; 0x1000
 80006ee:	481d      	ldr	r0, [pc, #116]	; (8000764 <main+0x274>)
 80006f0:	f000 fcce 	bl	8001090 <HAL_GPIO_ReadPin>
 80006f4:	4603      	mov	r3, r0
 80006f6:	461a      	mov	r2, r3
 80006f8:	4b1c      	ldr	r3, [pc, #112]	; (800076c <main+0x27c>)
 80006fa:	601a      	str	r2, [r3, #0]
		  HAL_Delay(speed);
 80006fc:	4b18      	ldr	r3, [pc, #96]	; (8000760 <main+0x270>)
 80006fe:	681b      	ldr	r3, [r3, #0]
 8000700:	4618      	mov	r0, r3
 8000702:	f000 fa0f 	bl	8000b24 <HAL_Delay>
		  HAL_GPIO_TogglePin(LED_5_GPIO_Port,LED_5_Pin);
 8000706:	f44f 5100 	mov.w	r1, #8192	; 0x2000
 800070a:	4816      	ldr	r0, [pc, #88]	; (8000764 <main+0x274>)
 800070c:	f000 fcf1 	bl	80010f2 <HAL_GPIO_TogglePin>
		  LED5=HAL_GPIO_ReadPin(LED_5_GPIO_Port, LED_5_Pin);
 8000710:	f44f 5100 	mov.w	r1, #8192	; 0x2000
 8000714:	4813      	ldr	r0, [pc, #76]	; (8000764 <main+0x274>)
 8000716:	f000 fcbb 	bl	8001090 <HAL_GPIO_ReadPin>
 800071a:	4603      	mov	r3, r0
 800071c:	461a      	mov	r2, r3
 800071e:	4b15      	ldr	r3, [pc, #84]	; (8000774 <main+0x284>)
 8000720:	601a      	str	r2, [r3, #0]
		  HAL_Delay(speed);
 8000722:	4b0f      	ldr	r3, [pc, #60]	; (8000760 <main+0x270>)
 8000724:	681b      	ldr	r3, [r3, #0]
 8000726:	4618      	mov	r0, r3
 8000728:	f000 f9fc 	bl	8000b24 <HAL_Delay>
		  HAL_GPIO_TogglePin(LED_6_GPIO_Port,LED_6_Pin);
 800072c:	f44f 4180 	mov.w	r1, #16384	; 0x4000
 8000730:	480c      	ldr	r0, [pc, #48]	; (8000764 <main+0x274>)
 8000732:	f000 fcde 	bl	80010f2 <HAL_GPIO_TogglePin>
		  LED6=HAL_GPIO_ReadPin(LED_6_GPIO_Port, LED_6_Pin);
 8000736:	f44f 4180 	mov.w	r1, #16384	; 0x4000
 800073a:	480a      	ldr	r0, [pc, #40]	; (8000764 <main+0x274>)
 800073c:	f000 fca8 	bl	8001090 <HAL_GPIO_ReadPin>
 8000740:	4603      	mov	r3, r0
 8000742:	461a      	mov	r2, r3
 8000744:	4b0d      	ldr	r3, [pc, #52]	; (800077c <main+0x28c>)
 8000746:	601a      	str	r2, [r3, #0]
		  HAL_Delay(speed);
 8000748:	4b05      	ldr	r3, [pc, #20]	; (8000760 <main+0x270>)
 800074a:	681b      	ldr	r3, [r3, #0]
 800074c:	4618      	mov	r0, r3
 800074e:	f000 f9e9 	bl	8000b24 <HAL_Delay>
 BUT=HAL_GPIO_ReadPin(BUTTON_GPIO_Port,BUTTON_Pin);
 8000752:	e6da      	b.n	800050a <main+0x1a>
 8000754:	40020000 	.word	0x40020000
 8000758:	20000040 	.word	0x20000040
 800075c:	20000044 	.word	0x20000044
 8000760:	20000048 	.word	0x20000048
 8000764:	40021800 	.word	0x40021800
 8000768:	20000030 	.word	0x20000030
 800076c:	20000034 	.word	0x20000034
 8000770:	2000002c 	.word	0x2000002c
 8000774:	20000038 	.word	0x20000038
 8000778:	20000028 	.word	0x20000028
 800077c:	2000003c 	.word	0x2000003c

08000780 <SystemClock_Config>:
/**
  * @brief System Clock Configuration
  * @retval None
  */
void SystemClock_Config(void)
{
 8000780:	b580      	push	{r7, lr}
 8000782:	b094      	sub	sp, #80	; 0x50
 8000784:	af00      	add	r7, sp, #0
  RCC_OscInitTypeDef RCC_OscInitStruct = {0};
 8000786:	f107 0320 	add.w	r3, r7, #32
 800078a:	2230      	movs	r2, #48	; 0x30
 800078c:	2100      	movs	r1, #0
 800078e:	4618      	mov	r0, r3
 8000790:	f001 f952 	bl	8001a38 <memset>
  RCC_ClkInitTypeDef RCC_ClkInitStruct = {0};
 8000794:	f107 030c 	add.w	r3, r7, #12
 8000798:	2200      	movs	r2, #0
 800079a:	601a      	str	r2, [r3, #0]
 800079c:	605a      	str	r2, [r3, #4]
 800079e:	609a      	str	r2, [r3, #8]
 80007a0:	60da      	str	r2, [r3, #12]
 80007a2:	611a      	str	r2, [r3, #16]

  /** Configure the main internal regulator output voltage
  */
  __HAL_RCC_PWR_CLK_ENABLE();
 80007a4:	2300      	movs	r3, #0
 80007a6:	60bb      	str	r3, [r7, #8]
 80007a8:	4b29      	ldr	r3, [pc, #164]	; (8000850 <SystemClock_Config+0xd0>)
 80007aa:	6c1b      	ldr	r3, [r3, #64]	; 0x40
 80007ac:	4a28      	ldr	r2, [pc, #160]	; (8000850 <SystemClock_Config+0xd0>)
 80007ae:	f043 5380 	orr.w	r3, r3, #268435456	; 0x10000000
 80007b2:	6413      	str	r3, [r2, #64]	; 0x40
 80007b4:	4b26      	ldr	r3, [pc, #152]	; (8000850 <SystemClock_Config+0xd0>)
 80007b6:	6c1b      	ldr	r3, [r3, #64]	; 0x40
 80007b8:	f003 5380 	and.w	r3, r3, #268435456	; 0x10000000
 80007bc:	60bb      	str	r3, [r7, #8]
 80007be:	68bb      	ldr	r3, [r7, #8]
  __HAL_PWR_VOLTAGESCALING_CONFIG(PWR_REGULATOR_VOLTAGE_SCALE3);
 80007c0:	2300      	movs	r3, #0
 80007c2:	607b      	str	r3, [r7, #4]
 80007c4:	4b23      	ldr	r3, [pc, #140]	; (8000854 <SystemClock_Config+0xd4>)
 80007c6:	681b      	ldr	r3, [r3, #0]
 80007c8:	f423 4340 	bic.w	r3, r3, #49152	; 0xc000
 80007cc:	4a21      	ldr	r2, [pc, #132]	; (8000854 <SystemClock_Config+0xd4>)
 80007ce:	f443 4380 	orr.w	r3, r3, #16384	; 0x4000
 80007d2:	6013      	str	r3, [r2, #0]
 80007d4:	4b1f      	ldr	r3, [pc, #124]	; (8000854 <SystemClock_Config+0xd4>)
 80007d6:	681b      	ldr	r3, [r3, #0]
 80007d8:	f403 4340 	and.w	r3, r3, #49152	; 0xc000
 80007dc:	607b      	str	r3, [r7, #4]
 80007de:	687b      	ldr	r3, [r7, #4]

  /** Initializes the RCC Oscillators according to the specified parameters
  * in the RCC_OscInitTypeDef structure.
  */
  RCC_OscInitStruct.OscillatorType = RCC_OSCILLATORTYPE_HSE;
 80007e0:	2301      	movs	r3, #1
 80007e2:	623b      	str	r3, [r7, #32]
  RCC_OscInitStruct.HSEState = RCC_HSE_ON;
 80007e4:	f44f 3380 	mov.w	r3, #65536	; 0x10000
 80007e8:	627b      	str	r3, [r7, #36]	; 0x24
  RCC_OscInitStruct.PLL.PLLState = RCC_PLL_ON;
 80007ea:	2302      	movs	r3, #2
 80007ec:	63bb      	str	r3, [r7, #56]	; 0x38
  RCC_OscInitStruct.PLL.PLLSource = RCC_PLLSOURCE_HSE;
 80007ee:	f44f 0380 	mov.w	r3, #4194304	; 0x400000
 80007f2:	63fb      	str	r3, [r7, #60]	; 0x3c
  RCC_OscInitStruct.PLL.PLLM = 4;
 80007f4:	2304      	movs	r3, #4
 80007f6:	643b      	str	r3, [r7, #64]	; 0x40
  RCC_OscInitStruct.PLL.PLLN = 96;
 80007f8:	2360      	movs	r3, #96	; 0x60
 80007fa:	647b      	str	r3, [r7, #68]	; 0x44
  RCC_OscInitStruct.PLL.PLLP = RCC_PLLP_DIV4;
 80007fc:	2304      	movs	r3, #4
 80007fe:	64bb      	str	r3, [r7, #72]	; 0x48
  RCC_OscInitStruct.PLL.PLLQ = 7;
 8000800:	2307      	movs	r3, #7
 8000802:	64fb      	str	r3, [r7, #76]	; 0x4c
  if (HAL_RCC_OscConfig(&RCC_OscInitStruct) != HAL_OK)
 8000804:	f107 0320 	add.w	r3, r7, #32
 8000808:	4618      	mov	r0, r3
 800080a:	f000 fc8d 	bl	8001128 <HAL_RCC_OscConfig>
 800080e:	4603      	mov	r3, r0
 8000810:	2b00      	cmp	r3, #0
 8000812:	d001      	beq.n	8000818 <SystemClock_Config+0x98>
  {
    Error_Handler();
 8000814:	f000 f880 	bl	8000918 <Error_Handler>
  }

  /** Initializes the CPU, AHB and APB buses clocks
  */
  RCC_ClkInitStruct.ClockType = RCC_CLOCKTYPE_HCLK|RCC_CLOCKTYPE_SYSCLK
 8000818:	230f      	movs	r3, #15
 800081a:	60fb      	str	r3, [r7, #12]
                              |RCC_CLOCKTYPE_PCLK1|RCC_CLOCKTYPE_PCLK2;
  RCC_ClkInitStruct.SYSCLKSource = RCC_SYSCLKSOURCE_PLLCLK;
 800081c:	2302      	movs	r3, #2
 800081e:	613b      	str	r3, [r7, #16]
  RCC_ClkInitStruct.AHBCLKDivider = RCC_SYSCLK_DIV1;
 8000820:	2300      	movs	r3, #0
 8000822:	617b      	str	r3, [r7, #20]
  RCC_ClkInitStruct.APB1CLKDivider = RCC_HCLK_DIV8;
 8000824:	f44f 53c0 	mov.w	r3, #6144	; 0x1800
 8000828:	61bb      	str	r3, [r7, #24]
  RCC_ClkInitStruct.APB2CLKDivider = RCC_HCLK_DIV4;
 800082a:	f44f 53a0 	mov.w	r3, #5120	; 0x1400
 800082e:	61fb      	str	r3, [r7, #28]

  if (HAL_RCC_ClockConfig(&RCC_ClkInitStruct, FLASH_LATENCY_1) != HAL_OK)
 8000830:	f107 030c 	add.w	r3, r7, #12
 8000834:	2101      	movs	r1, #1
 8000836:	4618      	mov	r0, r3
 8000838:	f000 feee 	bl	8001618 <HAL_RCC_ClockConfig>
 800083c:	4603      	mov	r3, r0
 800083e:	2b00      	cmp	r3, #0
 8000840:	d001      	beq.n	8000846 <SystemClock_Config+0xc6>
  {
    Error_Handler();
 8000842:	f000 f869 	bl	8000918 <Error_Handler>
  }
}
 8000846:	bf00      	nop
 8000848:	3750      	adds	r7, #80	; 0x50
 800084a:	46bd      	mov	sp, r7
 800084c:	bd80      	pop	{r7, pc}
 800084e:	bf00      	nop
 8000850:	40023800 	.word	0x40023800
 8000854:	40007000 	.word	0x40007000

08000858 <MX_GPIO_Init>:
  * @brief GPIO Initialization Function
  * @param None
  * @retval None
  */
static void MX_GPIO_Init(void)
{
 8000858:	b580      	push	{r7, lr}
 800085a:	b088      	sub	sp, #32
 800085c:	af00      	add	r7, sp, #0
  GPIO_InitTypeDef GPIO_InitStruct = {0};
 800085e:	f107 030c 	add.w	r3, r7, #12
 8000862:	2200      	movs	r2, #0
 8000864:	601a      	str	r2, [r3, #0]
 8000866:	605a      	str	r2, [r3, #4]
 8000868:	609a      	str	r2, [r3, #8]
 800086a:	60da      	str	r2, [r3, #12]
 800086c:	611a      	str	r2, [r3, #16]

  /* GPIO Ports Clock Enable */
  __HAL_RCC_GPIOH_CLK_ENABLE();
 800086e:	2300      	movs	r3, #0
 8000870:	60bb      	str	r3, [r7, #8]
 8000872:	4b26      	ldr	r3, [pc, #152]	; (800090c <MX_GPIO_Init+0xb4>)
 8000874:	6b1b      	ldr	r3, [r3, #48]	; 0x30
 8000876:	4a25      	ldr	r2, [pc, #148]	; (800090c <MX_GPIO_Init+0xb4>)
 8000878:	f043 0380 	orr.w	r3, r3, #128	; 0x80
 800087c:	6313      	str	r3, [r2, #48]	; 0x30
 800087e:	4b23      	ldr	r3, [pc, #140]	; (800090c <MX_GPIO_Init+0xb4>)
 8000880:	6b1b      	ldr	r3, [r3, #48]	; 0x30
 8000882:	f003 0380 	and.w	r3, r3, #128	; 0x80
 8000886:	60bb      	str	r3, [r7, #8]
 8000888:	68bb      	ldr	r3, [r7, #8]
  __HAL_RCC_GPIOA_CLK_ENABLE();
 800088a:	2300      	movs	r3, #0
 800088c:	607b      	str	r3, [r7, #4]
 800088e:	4b1f      	ldr	r3, [pc, #124]	; (800090c <MX_GPIO_Init+0xb4>)
 8000890:	6b1b      	ldr	r3, [r3, #48]	; 0x30
 8000892:	4a1e      	ldr	r2, [pc, #120]	; (800090c <MX_GPIO_Init+0xb4>)
 8000894:	f043 0301 	orr.w	r3, r3, #1
 8000898:	6313      	str	r3, [r2, #48]	; 0x30
 800089a:	4b1c      	ldr	r3, [pc, #112]	; (800090c <MX_GPIO_Init+0xb4>)
 800089c:	6b1b      	ldr	r3, [r3, #48]	; 0x30
 800089e:	f003 0301 	and.w	r3, r3, #1
 80008a2:	607b      	str	r3, [r7, #4]
 80008a4:	687b      	ldr	r3, [r7, #4]
  __HAL_RCC_GPIOG_CLK_ENABLE();
 80008a6:	2300      	movs	r3, #0
 80008a8:	603b      	str	r3, [r7, #0]
 80008aa:	4b18      	ldr	r3, [pc, #96]	; (800090c <MX_GPIO_Init+0xb4>)
 80008ac:	6b1b      	ldr	r3, [r3, #48]	; 0x30
 80008ae:	4a17      	ldr	r2, [pc, #92]	; (800090c <MX_GPIO_Init+0xb4>)
 80008b0:	f043 0340 	orr.w	r3, r3, #64	; 0x40
 80008b4:	6313      	str	r3, [r2, #48]	; 0x30
 80008b6:	4b15      	ldr	r3, [pc, #84]	; (800090c <MX_GPIO_Init+0xb4>)
 80008b8:	6b1b      	ldr	r3, [r3, #48]	; 0x30
 80008ba:	f003 0340 	and.w	r3, r3, #64	; 0x40
 80008be:	603b      	str	r3, [r7, #0]
 80008c0:	683b      	ldr	r3, [r7, #0]

  /*Configure GPIO pin Output Level */
  HAL_GPIO_WritePin(GPIOG, LED_1_Pin|LED_2_Pin|LED_3_Pin|LED_4_Pin
 80008c2:	2200      	movs	r2, #0
 80008c4:	f44f 41fc 	mov.w	r1, #32256	; 0x7e00
 80008c8:	4811      	ldr	r0, [pc, #68]	; (8000910 <MX_GPIO_Init+0xb8>)
 80008ca:	f000 fbf9 	bl	80010c0 <HAL_GPIO_WritePin>
                          |LED_5_Pin|LED_6_Pin, GPIO_PIN_RESET);

  /*Configure GPIO pin : BUTTON_Pin */
  GPIO_InitStruct.Pin = BUTTON_Pin;
 80008ce:	2301      	movs	r3, #1
 80008d0:	60fb      	str	r3, [r7, #12]
  GPIO_InitStruct.Mode = GPIO_MODE_INPUT;
 80008d2:	2300      	movs	r3, #0
 80008d4:	613b      	str	r3, [r7, #16]
  GPIO_InitStruct.Pull = GPIO_NOPULL;
 80008d6:	2300      	movs	r3, #0
 80008d8:	617b      	str	r3, [r7, #20]
  HAL_GPIO_Init(BUTTON_GPIO_Port, &GPIO_InitStruct);
 80008da:	f107 030c 	add.w	r3, r7, #12
 80008de:	4619      	mov	r1, r3
 80008e0:	480c      	ldr	r0, [pc, #48]	; (8000914 <MX_GPIO_Init+0xbc>)
 80008e2:	f000 fa29 	bl	8000d38 <HAL_GPIO_Init>

  /*Configure GPIO pins : LED_1_Pin LED_2_Pin LED_3_Pin LED_4_Pin
                           LED_5_Pin LED_6_Pin */
  GPIO_InitStruct.Pin = LED_1_Pin|LED_2_Pin|LED_3_Pin|LED_4_Pin
 80008e6:	f44f 43fc 	mov.w	r3, #32256	; 0x7e00
 80008ea:	60fb      	str	r3, [r7, #12]
                          |LED_5_Pin|LED_6_Pin;
  GPIO_InitStruct.Mode = GPIO_MODE_OUTPUT_PP;
 80008ec:	2301      	movs	r3, #1
 80008ee:	613b      	str	r3, [r7, #16]
  GPIO_InitStruct.Pull = GPIO_NOPULL;
 80008f0:	2300      	movs	r3, #0
 80008f2:	617b      	str	r3, [r7, #20]
  GPIO_InitStruct.Speed = GPIO_SPEED_FREQ_LOW;
 80008f4:	2300      	movs	r3, #0
 80008f6:	61bb      	str	r3, [r7, #24]
  HAL_GPIO_Init(GPIOG, &GPIO_InitStruct);
 80008f8:	f107 030c 	add.w	r3, r7, #12
 80008fc:	4619      	mov	r1, r3
 80008fe:	4804      	ldr	r0, [pc, #16]	; (8000910 <MX_GPIO_Init+0xb8>)
 8000900:	f000 fa1a 	bl	8000d38 <HAL_GPIO_Init>

}
 8000904:	bf00      	nop
 8000906:	3720      	adds	r7, #32
 8000908:	46bd      	mov	sp, r7
 800090a:	bd80      	pop	{r7, pc}
 800090c:	40023800 	.word	0x40023800
 8000910:	40021800 	.word	0x40021800
 8000914:	40020000 	.word	0x40020000

08000918 <Error_Handler>:
/**
  * @brief  This function is executed in case of error occurrence.
  * @retval None
  */
void Error_Handler(void)
{
 8000918:	b480      	push	{r7}
 800091a:	af00      	add	r7, sp, #0
  \details Disables IRQ interrupts by setting the I-bit in the CPSR.
           Can only be executed in Privileged modes.
 */
__STATIC_FORCEINLINE void __disable_irq(void)
{
  __ASM volatile ("cpsid i" : : : "memory");
 800091c:	b672      	cpsid	i
}
 800091e:	bf00      	nop
  /* USER CODE BEGIN Error_Handler_Debug */
  /* User can add his own implementation to report the HAL error return state */
  __disable_irq();
  while (1)
 8000920:	e7fe      	b.n	8000920 <Error_Handler+0x8>
	...

08000924 <HAL_MspInit>:
/* USER CODE END 0 */
/**
  * Initializes the Global MSP.
  */
void HAL_MspInit(void)
{
 8000924:	b580      	push	{r7, lr}
 8000926:	b082      	sub	sp, #8
 8000928:	af00      	add	r7, sp, #0
  /* USER CODE BEGIN MspInit 0 */

  /* USER CODE END MspInit 0 */

  __HAL_RCC_SYSCFG_CLK_ENABLE();
 800092a:	2300      	movs	r3, #0
 800092c:	607b      	str	r3, [r7, #4]
 800092e:	4b10      	ldr	r3, [pc, #64]	; (8000970 <HAL_MspInit+0x4c>)
 8000930:	6c5b      	ldr	r3, [r3, #68]	; 0x44
 8000932:	4a0f      	ldr	r2, [pc, #60]	; (8000970 <HAL_MspInit+0x4c>)
 8000934:	f443 4380 	orr.w	r3, r3, #16384	; 0x4000
 8000938:	6453      	str	r3, [r2, #68]	; 0x44
 800093a:	4b0d      	ldr	r3, [pc, #52]	; (8000970 <HAL_MspInit+0x4c>)
 800093c:	6c5b      	ldr	r3, [r3, #68]	; 0x44
 800093e:	f403 4380 	and.w	r3, r3, #16384	; 0x4000
 8000942:	607b      	str	r3, [r7, #4]
 8000944:	687b      	ldr	r3, [r7, #4]
  __HAL_RCC_PWR_CLK_ENABLE();
 8000946:	2300      	movs	r3, #0
 8000948:	603b      	str	r3, [r7, #0]
 800094a:	4b09      	ldr	r3, [pc, #36]	; (8000970 <HAL_MspInit+0x4c>)
 800094c:	6c1b      	ldr	r3, [r3, #64]	; 0x40
 800094e:	4a08      	ldr	r2, [pc, #32]	; (8000970 <HAL_MspInit+0x4c>)
 8000950:	f043 5380 	orr.w	r3, r3, #268435456	; 0x10000000
 8000954:	6413      	str	r3, [r2, #64]	; 0x40
 8000956:	4b06      	ldr	r3, [pc, #24]	; (8000970 <HAL_MspInit+0x4c>)
 8000958:	6c1b      	ldr	r3, [r3, #64]	; 0x40
 800095a:	f003 5380 	and.w	r3, r3, #268435456	; 0x10000000
 800095e:	603b      	str	r3, [r7, #0]
 8000960:	683b      	ldr	r3, [r7, #0]

  HAL_NVIC_SetPriorityGrouping(NVIC_PRIORITYGROUP_0);
 8000962:	2007      	movs	r0, #7
 8000964:	f000 f9b4 	bl	8000cd0 <HAL_NVIC_SetPriorityGrouping>
  /* System interrupt init*/

  /* USER CODE BEGIN MspInit 1 */

  /* USER CODE END MspInit 1 */
}
 8000968:	bf00      	nop
 800096a:	3708      	adds	r7, #8
 800096c:	46bd      	mov	sp, r7
 800096e:	bd80      	pop	{r7, pc}
 8000970:	40023800 	.word	0x40023800

08000974 <NMI_Handler>:
/******************************************************************************/
/**
  * @brief This function handles Non maskable interrupt.
  */
void NMI_Handler(void)
{
 8000974:	b480      	push	{r7}
 8000976:	af00      	add	r7, sp, #0
  /* USER CODE BEGIN NonMaskableInt_IRQn 0 */

  /* USER CODE END NonMaskableInt_IRQn 0 */
  /* USER CODE BEGIN NonMaskableInt_IRQn 1 */
  while (1)
 8000978:	e7fe      	b.n	8000978 <NMI_Handler+0x4>

0800097a <HardFault_Handler>:

/**
  * @brief This function handles Hard fault interrupt.
  */
void HardFault_Handler(void)
{
 800097a:	b480      	push	{r7}
 800097c:	af00      	add	r7, sp, #0
  /* USER CODE BEGIN HardFault_IRQn 0 */

  /* USER CODE END HardFault_IRQn 0 */
  while (1)
 800097e:	e7fe      	b.n	800097e <HardFault_Handler+0x4>

08000980 <MemManage_Handler>:

/**
  * @brief This function handles Memory management fault.
  */
void MemManage_Handler(void)
{
 8000980:	b480      	push	{r7}
 8000982:	af00      	add	r7, sp, #0
  /* USER CODE BEGIN MemoryManagement_IRQn 0 */

  /* USER CODE END MemoryManagement_IRQn 0 */
  while (1)
 8000984:	e7fe      	b.n	8000984 <MemManage_Handler+0x4>

08000986 <BusFault_Handler>:

/**
  * @brief This function handles Pre-fetch fault, memory access fault.
  */
void BusFault_Handler(void)
{
 8000986:	b480      	push	{r7}
 8000988:	af00      	add	r7, sp, #0
  /* USER CODE BEGIN BusFault_IRQn 0 */

  /* USER CODE END BusFault_IRQn 0 */
  while (1)
 800098a:	e7fe      	b.n	800098a <BusFault_Handler+0x4>

0800098c <UsageFault_Handler>:

/**
  * @brief This function handles Undefined instruction or illegal state.
  */
void UsageFault_Handler(void)
{
 800098c:	b480      	push	{r7}
 800098e:	af00      	add	r7, sp, #0
  /* USER CODE BEGIN UsageFault_IRQn 0 */

  /* USER CODE END UsageFault_IRQn 0 */
  while (1)
 8000990:	e7fe      	b.n	8000990 <UsageFault_Handler+0x4>

08000992 <SVC_Handler>:

/**
  * @brief This function handles System service call via SWI instruction.
  */
void SVC_Handler(void)
{
 8000992:	b480      	push	{r7}
 8000994:	af00      	add	r7, sp, #0

  /* USER CODE END SVCall_IRQn 0 */
  /* USER CODE BEGIN SVCall_IRQn 1 */

  /* USER CODE END SVCall_IRQn 1 */
}
 8000996:	bf00      	nop
 8000998:	46bd      	mov	sp, r7
 800099a:	f85d 7b04 	ldr.w	r7, [sp], #4
 800099e:	4770      	bx	lr

080009a0 <DebugMon_Handler>:

/**
  * @brief This function handles Debug monitor.
  */
void DebugMon_Handler(void)
{
 80009a0:	b480      	push	{r7}
 80009a2:	af00      	add	r7, sp, #0

  /* USER CODE END DebugMonitor_IRQn 0 */
  /* USER CODE BEGIN DebugMonitor_IRQn 1 */

  /* USER CODE END DebugMonitor_IRQn 1 */
}
 80009a4:	bf00      	nop
 80009a6:	46bd      	mov	sp, r7
 80009a8:	f85d 7b04 	ldr.w	r7, [sp], #4
 80009ac:	4770      	bx	lr

080009ae <PendSV_Handler>:

/**
  * @brief This function handles Pendable request for system service.
  */
void PendSV_Handler(void)
{
 80009ae:	b480      	push	{r7}
 80009b0:	af00      	add	r7, sp, #0

  /* USER CODE END PendSV_IRQn 0 */
  /* USER CODE BEGIN PendSV_IRQn 1 */

  /* USER CODE END PendSV_IRQn 1 */
}
 80009b2:	bf00      	nop
 80009b4:	46bd      	mov	sp, r7
 80009b6:	f85d 7b04 	ldr.w	r7, [sp], #4
 80009ba:	4770      	bx	lr

080009bc <SysTick_Handler>:

/**
  * @brief This function handles System tick timer.
  */
void SysTick_Handler(void)
{
 80009bc:	b580      	push	{r7, lr}
 80009be:	af00      	add	r7, sp, #0
  /* USER CODE BEGIN SysTick_IRQn 0 */

  /* USER CODE END SysTick_IRQn 0 */
  HAL_IncTick();
 80009c0:	f000 f890 	bl	8000ae4 <HAL_IncTick>
  /* USER CODE BEGIN SysTick_IRQn 1 */

  /* USER CODE END SysTick_IRQn 1 */
}
 80009c4:	bf00      	nop
 80009c6:	bd80      	pop	{r7, pc}

080009c8 <SystemInit>:
  *         configuration.
  * @param  None
  * @retval None
  */
void SystemInit(void)
{
 80009c8:	b480      	push	{r7}
 80009ca:	af00      	add	r7, sp, #0
  /* FPU settings ------------------------------------------------------------*/
  #if (__FPU_PRESENT == 1) && (__FPU_USED == 1)
    SCB->CPACR |= ((3UL << 10*2)|(3UL << 11*2));  /* set CP10 and CP11 Full Access */
 80009cc:	4b06      	ldr	r3, [pc, #24]	; (80009e8 <SystemInit+0x20>)
 80009ce:	f8d3 3088 	ldr.w	r3, [r3, #136]	; 0x88
 80009d2:	4a05      	ldr	r2, [pc, #20]	; (80009e8 <SystemInit+0x20>)
 80009d4:	f443 0370 	orr.w	r3, r3, #15728640	; 0xf00000
 80009d8:	f8c2 3088 	str.w	r3, [r2, #136]	; 0x88

  /* Configure the Vector Table location -------------------------------------*/
#if defined(USER_VECT_TAB_ADDRESS)
  SCB->VTOR = VECT_TAB_BASE_ADDRESS | VECT_TAB_OFFSET; /* Vector Table Relocation in Internal SRAM */
#endif /* USER_VECT_TAB_ADDRESS */
}
 80009dc:	bf00      	nop
 80009de:	46bd      	mov	sp, r7
 80009e0:	f85d 7b04 	ldr.w	r7, [sp], #4
 80009e4:	4770      	bx	lr
 80009e6:	bf00      	nop
 80009e8:	e000ed00 	.word	0xe000ed00

080009ec <Reset_Handler>:

    .section  .text.Reset_Handler
  .weak  Reset_Handler
  .type  Reset_Handler, %function
Reset_Handler: 
  ldr   sp, =_estack       /* set stack pointer */
 80009ec:	f8df d034 	ldr.w	sp, [pc, #52]	; 8000a24 <LoopFillZerobss+0x12>
 
/* Copy the data segment initializers from flash to SRAM */  
  ldr r0, =_sdata
 80009f0:	480d      	ldr	r0, [pc, #52]	; (8000a28 <LoopFillZerobss+0x16>)
  ldr r1, =_edata
 80009f2:	490e      	ldr	r1, [pc, #56]	; (8000a2c <LoopFillZerobss+0x1a>)
  ldr r2, =_sidata
 80009f4:	4a0e      	ldr	r2, [pc, #56]	; (8000a30 <LoopFillZerobss+0x1e>)
  movs r3, #0
 80009f6:	2300      	movs	r3, #0
  b LoopCopyDataInit
 80009f8:	e002      	b.n	8000a00 <LoopCopyDataInit>

080009fa <CopyDataInit>:

CopyDataInit:
  ldr r4, [r2, r3]
 80009fa:	58d4      	ldr	r4, [r2, r3]
  str r4, [r0, r3]
 80009fc:	50c4      	str	r4, [r0, r3]
  adds r3, r3, #4
 80009fe:	3304      	adds	r3, #4

08000a00 <LoopCopyDataInit>:

LoopCopyDataInit:
  adds r4, r0, r3
 8000a00:	18c4      	adds	r4, r0, r3
  cmp r4, r1
 8000a02:	428c      	cmp	r4, r1
  bcc CopyDataInit
 8000a04:	d3f9      	bcc.n	80009fa <CopyDataInit>
  
/* Zero fill the bss segment. */
  ldr r2, =_sbss
 8000a06:	4a0b      	ldr	r2, [pc, #44]	; (8000a34 <LoopFillZerobss+0x22>)
  ldr r4, =_ebss
 8000a08:	4c0b      	ldr	r4, [pc, #44]	; (8000a38 <LoopFillZerobss+0x26>)
  movs r3, #0
 8000a0a:	2300      	movs	r3, #0
  b LoopFillZerobss
 8000a0c:	e001      	b.n	8000a12 <LoopFillZerobss>

08000a0e <FillZerobss>:

FillZerobss:
  str  r3, [r2]
 8000a0e:	6013      	str	r3, [r2, #0]
  adds r2, r2, #4
 8000a10:	3204      	adds	r2, #4

08000a12 <LoopFillZerobss>:

LoopFillZerobss:
  cmp r2, r4
 8000a12:	42a2      	cmp	r2, r4
  bcc FillZerobss
 8000a14:	d3fb      	bcc.n	8000a0e <FillZerobss>

/* Call the clock system initialization function.*/
  bl  SystemInit   
 8000a16:	f7ff ffd7 	bl	80009c8 <SystemInit>
/* Call static constructors */
    bl __libc_init_array
 8000a1a:	f000 ffe9 	bl	80019f0 <__libc_init_array>
/* Call the application's entry point.*/
  bl  main
 8000a1e:	f7ff fd67 	bl	80004f0 <main>
  bx  lr    
 8000a22:	4770      	bx	lr
  ldr   sp, =_estack       /* set stack pointer */
 8000a24:	20030000 	.word	0x20030000
  ldr r0, =_sdata
 8000a28:	20000000 	.word	0x20000000
  ldr r1, =_edata
 8000a2c:	2000000c 	.word	0x2000000c
  ldr r2, =_sidata
 8000a30:	08001a80 	.word	0x08001a80
  ldr r2, =_sbss
 8000a34:	2000000c 	.word	0x2000000c
  ldr r4, =_ebss
 8000a38:	20000050 	.word	0x20000050

08000a3c <ADC_IRQHandler>:
 * @retval None       
*/
    .section  .text.Default_Handler,"ax",%progbits
Default_Handler:
Infinite_Loop:
  b  Infinite_Loop
 8000a3c:	e7fe      	b.n	8000a3c <ADC_IRQHandler>
	...

08000a40 <HAL_Init>:
  *         need to ensure that the SysTick time base is always set to 1 millisecond
  *         to have correct HAL operation.
  * @retval HAL status
  */
HAL_StatusTypeDef HAL_Init(void)
{
 8000a40:	b580      	push	{r7, lr}
 8000a42:	af00      	add	r7, sp, #0
  /* Configure Flash prefetch, Instruction cache, Data cache */ 
#if (INSTRUCTION_CACHE_ENABLE != 0U)
  __HAL_FLASH_INSTRUCTION_CACHE_ENABLE();
 8000a44:	4b0e      	ldr	r3, [pc, #56]	; (8000a80 <HAL_Init+0x40>)
 8000a46:	681b      	ldr	r3, [r3, #0]
 8000a48:	4a0d      	ldr	r2, [pc, #52]	; (8000a80 <HAL_Init+0x40>)
 8000a4a:	f443 7300 	orr.w	r3, r3, #512	; 0x200
 8000a4e:	6013      	str	r3, [r2, #0]
#endif /* INSTRUCTION_CACHE_ENABLE */

#if (DATA_CACHE_ENABLE != 0U)
  __HAL_FLASH_DATA_CACHE_ENABLE();
 8000a50:	4b0b      	ldr	r3, [pc, #44]	; (8000a80 <HAL_Init+0x40>)
 8000a52:	681b      	ldr	r3, [r3, #0]
 8000a54:	4a0a      	ldr	r2, [pc, #40]	; (8000a80 <HAL_Init+0x40>)
 8000a56:	f443 6380 	orr.w	r3, r3, #1024	; 0x400
 8000a5a:	6013      	str	r3, [r2, #0]
#endif /* DATA_CACHE_ENABLE */

#if (PREFETCH_ENABLE != 0U)
  __HAL_FLASH_PREFETCH_BUFFER_ENABLE();
 8000a5c:	4b08      	ldr	r3, [pc, #32]	; (8000a80 <HAL_Init+0x40>)
 8000a5e:	681b      	ldr	r3, [r3, #0]
 8000a60:	4a07      	ldr	r2, [pc, #28]	; (8000a80 <HAL_Init+0x40>)
 8000a62:	f443 7380 	orr.w	r3, r3, #256	; 0x100
 8000a66:	6013      	str	r3, [r2, #0]
#endif /* PREFETCH_ENABLE */

  /* Set Interrupt Group Priority */
  HAL_NVIC_SetPriorityGrouping(NVIC_PRIORITYGROUP_4);
 8000a68:	2003      	movs	r0, #3
 8000a6a:	f000 f931 	bl	8000cd0 <HAL_NVIC_SetPriorityGrouping>

  /* Use systick as time base source and configure 1ms tick (default clock after Reset is HSI) */
  HAL_InitTick(TICK_INT_PRIORITY);
 8000a6e:	2000      	movs	r0, #0
 8000a70:	f000 f808 	bl	8000a84 <HAL_InitTick>

  /* Init the low level hardware */
  HAL_MspInit();
 8000a74:	f7ff ff56 	bl	8000924 <HAL_MspInit>

  /* Return function status */
  return HAL_OK;
 8000a78:	2300      	movs	r3, #0
}
 8000a7a:	4618      	mov	r0, r3
 8000a7c:	bd80      	pop	{r7, pc}
 8000a7e:	bf00      	nop
 8000a80:	40023c00 	.word	0x40023c00

08000a84 <HAL_InitTick>:
  *       implementation  in user file.
  * @param TickPriority Tick interrupt priority.
  * @retval HAL status
  */
__weak HAL_StatusTypeDef HAL_InitTick(uint32_t TickPriority)
{
 8000a84:	b580      	push	{r7, lr}
 8000a86:	b082      	sub	sp, #8
 8000a88:	af00      	add	r7, sp, #0
 8000a8a:	6078      	str	r0, [r7, #4]
  /* Configure the SysTick to have interrupt in 1ms time basis*/
  if (HAL_SYSTICK_Config(SystemCoreClock / (1000U / uwTickFreq)) > 0U)
 8000a8c:	4b12      	ldr	r3, [pc, #72]	; (8000ad8 <HAL_InitTick+0x54>)
 8000a8e:	681a      	ldr	r2, [r3, #0]
 8000a90:	4b12      	ldr	r3, [pc, #72]	; (8000adc <HAL_InitTick+0x58>)
 8000a92:	781b      	ldrb	r3, [r3, #0]
 8000a94:	4619      	mov	r1, r3
 8000a96:	f44f 737a 	mov.w	r3, #1000	; 0x3e8
 8000a9a:	fbb3 f3f1 	udiv	r3, r3, r1
 8000a9e:	fbb2 f3f3 	udiv	r3, r2, r3
 8000aa2:	4618      	mov	r0, r3
 8000aa4:	f000 f93b 	bl	8000d1e <HAL_SYSTICK_Config>
 8000aa8:	4603      	mov	r3, r0
 8000aaa:	2b00      	cmp	r3, #0
 8000aac:	d001      	beq.n	8000ab2 <HAL_InitTick+0x2e>
  {
    return HAL_ERROR;
 8000aae:	2301      	movs	r3, #1
 8000ab0:	e00e      	b.n	8000ad0 <HAL_InitTick+0x4c>
  }

  /* Configure the SysTick IRQ priority */
  if (TickPriority < (1UL << __NVIC_PRIO_BITS))
 8000ab2:	687b      	ldr	r3, [r7, #4]
 8000ab4:	2b0f      	cmp	r3, #15
 8000ab6:	d80a      	bhi.n	8000ace <HAL_InitTick+0x4a>
  {
    HAL_NVIC_SetPriority(SysTick_IRQn, TickPriority, 0U);
 8000ab8:	2200      	movs	r2, #0
 8000aba:	6879      	ldr	r1, [r7, #4]
 8000abc:	f04f 30ff 	mov.w	r0, #4294967295	; 0xffffffff
 8000ac0:	f000 f911 	bl	8000ce6 <HAL_NVIC_SetPriority>
    uwTickPrio = TickPriority;
 8000ac4:	4a06      	ldr	r2, [pc, #24]	; (8000ae0 <HAL_InitTick+0x5c>)
 8000ac6:	687b      	ldr	r3, [r7, #4]
 8000ac8:	6013      	str	r3, [r2, #0]
  {
    return HAL_ERROR;
  }

  /* Return function status */
  return HAL_OK;
 8000aca:	2300      	movs	r3, #0
 8000acc:	e000      	b.n	8000ad0 <HAL_InitTick+0x4c>
    return HAL_ERROR;
 8000ace:	2301      	movs	r3, #1
}
 8000ad0:	4618      	mov	r0, r3
 8000ad2:	3708      	adds	r7, #8
 8000ad4:	46bd      	mov	sp, r7
 8000ad6:	bd80      	pop	{r7, pc}
 8000ad8:	20000000 	.word	0x20000000
 8000adc:	20000008 	.word	0x20000008
 8000ae0:	20000004 	.word	0x20000004

08000ae4 <HAL_IncTick>:
 * @note This function is declared as __weak to be overwritten in case of other 
  *      implementations in user file.
  * @retval None
  */
__weak void HAL_IncTick(void)
{
 8000ae4:	b480      	push	{r7}
 8000ae6:	af00      	add	r7, sp, #0
  uwTick += uwTickFreq;
 8000ae8:	4b06      	ldr	r3, [pc, #24]	; (8000b04 <HAL_IncTick+0x20>)
 8000aea:	781b      	ldrb	r3, [r3, #0]
 8000aec:	461a      	mov	r2, r3
 8000aee:	4b06      	ldr	r3, [pc, #24]	; (8000b08 <HAL_IncTick+0x24>)
 8000af0:	681b      	ldr	r3, [r3, #0]
 8000af2:	4413      	add	r3, r2
 8000af4:	4a04      	ldr	r2, [pc, #16]	; (8000b08 <HAL_IncTick+0x24>)
 8000af6:	6013      	str	r3, [r2, #0]
}
 8000af8:	bf00      	nop
 8000afa:	46bd      	mov	sp, r7
 8000afc:	f85d 7b04 	ldr.w	r7, [sp], #4
 8000b00:	4770      	bx	lr
 8000b02:	bf00      	nop
 8000b04:	20000008 	.word	0x20000008
 8000b08:	2000004c 	.word	0x2000004c

08000b0c <HAL_GetTick>:
  * @note This function is declared as __weak to be overwritten in case of other 
  *       implementations in user file.
  * @retval tick value
  */
__weak uint32_t HAL_GetTick(void)
{
 8000b0c:	b480      	push	{r7}
 8000b0e:	af00      	add	r7, sp, #0
  return uwTick;
 8000b10:	4b03      	ldr	r3, [pc, #12]	; (8000b20 <HAL_GetTick+0x14>)
 8000b12:	681b      	ldr	r3, [r3, #0]
}
 8000b14:	4618      	mov	r0, r3
 8000b16:	46bd      	mov	sp, r7
 8000b18:	f85d 7b04 	ldr.w	r7, [sp], #4
 8000b1c:	4770      	bx	lr
 8000b1e:	bf00      	nop
 8000b20:	2000004c 	.word	0x2000004c

08000b24 <HAL_Delay>:
  *       implementations in user file.
  * @param Delay specifies the delay time length, in milliseconds.
  * @retval None
  */
__weak void HAL_Delay(uint32_t Delay)
{
 8000b24:	b580      	push	{r7, lr}
 8000b26:	b084      	sub	sp, #16
 8000b28:	af00      	add	r7, sp, #0
 8000b2a:	6078      	str	r0, [r7, #4]
  uint32_t tickstart = HAL_GetTick();
 8000b2c:	f7ff ffee 	bl	8000b0c <HAL_GetTick>
 8000b30:	60b8      	str	r0, [r7, #8]
  uint32_t wait = Delay;
 8000b32:	687b      	ldr	r3, [r7, #4]
 8000b34:	60fb      	str	r3, [r7, #12]

  /* Add a freq to guarantee minimum wait */
  if (wait < HAL_MAX_DELAY)
 8000b36:	68fb      	ldr	r3, [r7, #12]
 8000b38:	f1b3 3fff 	cmp.w	r3, #4294967295	; 0xffffffff
 8000b3c:	d005      	beq.n	8000b4a <HAL_Delay+0x26>
  {
    wait += (uint32_t)(uwTickFreq);
 8000b3e:	4b0a      	ldr	r3, [pc, #40]	; (8000b68 <HAL_Delay+0x44>)
 8000b40:	781b      	ldrb	r3, [r3, #0]
 8000b42:	461a      	mov	r2, r3
 8000b44:	68fb      	ldr	r3, [r7, #12]
 8000b46:	4413      	add	r3, r2
 8000b48:	60fb      	str	r3, [r7, #12]
  }

  while((HAL_GetTick() - tickstart) < wait)
 8000b4a:	bf00      	nop
 8000b4c:	f7ff ffde 	bl	8000b0c <HAL_GetTick>
 8000b50:	4602      	mov	r2, r0
 8000b52:	68bb      	ldr	r3, [r7, #8]
 8000b54:	1ad3      	subs	r3, r2, r3
 8000b56:	68fa      	ldr	r2, [r7, #12]
 8000b58:	429a      	cmp	r2, r3
 8000b5a:	d8f7      	bhi.n	8000b4c <HAL_Delay+0x28>
  {
  }
}
 8000b5c:	bf00      	nop
 8000b5e:	bf00      	nop
 8000b60:	3710      	adds	r7, #16
 8000b62:	46bd      	mov	sp, r7
 8000b64:	bd80      	pop	{r7, pc}
 8000b66:	bf00      	nop
 8000b68:	20000008 	.word	0x20000008

08000b6c <__NVIC_SetPriorityGrouping>:
           In case of a conflict between priority grouping and available
           priority bits (__NVIC_PRIO_BITS), the smallest possible priority group is set.
  \param [in]      PriorityGroup  Priority grouping field.
 */
__STATIC_INLINE void __NVIC_SetPriorityGrouping(uint32_t PriorityGroup)
{
 8000b6c:	b480      	push	{r7}
 8000b6e:	b085      	sub	sp, #20
 8000b70:	af00      	add	r7, sp, #0
 8000b72:	6078      	str	r0, [r7, #4]
  uint32_t reg_value;
  uint32_t PriorityGroupTmp = (PriorityGroup & (uint32_t)0x07UL);             /* only values 0..7 are used          */
 8000b74:	687b      	ldr	r3, [r7, #4]
 8000b76:	f003 0307 	and.w	r3, r3, #7
 8000b7a:	60fb      	str	r3, [r7, #12]

  reg_value  =  SCB->AIRCR;                                                   /* read old register configuration    */
 8000b7c:	4b0c      	ldr	r3, [pc, #48]	; (8000bb0 <__NVIC_SetPriorityGrouping+0x44>)
 8000b7e:	68db      	ldr	r3, [r3, #12]
 8000b80:	60bb      	str	r3, [r7, #8]
  reg_value &= ~((uint32_t)(SCB_AIRCR_VECTKEY_Msk | SCB_AIRCR_PRIGROUP_Msk)); /* clear bits to change               */
 8000b82:	68ba      	ldr	r2, [r7, #8]
 8000b84:	f64f 03ff 	movw	r3, #63743	; 0xf8ff
 8000b88:	4013      	ands	r3, r2
 8000b8a:	60bb      	str	r3, [r7, #8]
  reg_value  =  (reg_value                                   |
                ((uint32_t)0x5FAUL << SCB_AIRCR_VECTKEY_Pos) |
                (PriorityGroupTmp << SCB_AIRCR_PRIGROUP_Pos)  );              /* Insert write key and priority group */
 8000b8c:	68fb      	ldr	r3, [r7, #12]
 8000b8e:	021a      	lsls	r2, r3, #8
                ((uint32_t)0x5FAUL << SCB_AIRCR_VECTKEY_Pos) |
 8000b90:	68bb      	ldr	r3, [r7, #8]
 8000b92:	4313      	orrs	r3, r2
  reg_value  =  (reg_value                                   |
 8000b94:	f043 63bf 	orr.w	r3, r3, #100139008	; 0x5f80000
 8000b98:	f443 3300 	orr.w	r3, r3, #131072	; 0x20000
 8000b9c:	60bb      	str	r3, [r7, #8]
  SCB->AIRCR =  reg_value;
 8000b9e:	4a04      	ldr	r2, [pc, #16]	; (8000bb0 <__NVIC_SetPriorityGrouping+0x44>)
 8000ba0:	68bb      	ldr	r3, [r7, #8]
 8000ba2:	60d3      	str	r3, [r2, #12]
}
 8000ba4:	bf00      	nop
 8000ba6:	3714      	adds	r7, #20
 8000ba8:	46bd      	mov	sp, r7
 8000baa:	f85d 7b04 	ldr.w	r7, [sp], #4
 8000bae:	4770      	bx	lr
 8000bb0:	e000ed00 	.word	0xe000ed00

08000bb4 <__NVIC_GetPriorityGrouping>:
  \brief   Get Priority Grouping
  \details Reads the priority grouping field from the NVIC Interrupt Controller.
  \return                Priority grouping field (SCB->AIRCR [10:8] PRIGROUP field).
 */
__STATIC_INLINE uint32_t __NVIC_GetPriorityGrouping(void)
{
 8000bb4:	b480      	push	{r7}
 8000bb6:	af00      	add	r7, sp, #0
  return ((uint32_t)((SCB->AIRCR & SCB_AIRCR_PRIGROUP_Msk) >> SCB_AIRCR_PRIGROUP_Pos));
 8000bb8:	4b04      	ldr	r3, [pc, #16]	; (8000bcc <__NVIC_GetPriorityGrouping+0x18>)
 8000bba:	68db      	ldr	r3, [r3, #12]
 8000bbc:	0a1b      	lsrs	r3, r3, #8
 8000bbe:	f003 0307 	and.w	r3, r3, #7
}
 8000bc2:	4618      	mov	r0, r3
 8000bc4:	46bd      	mov	sp, r7
 8000bc6:	f85d 7b04 	ldr.w	r7, [sp], #4
 8000bca:	4770      	bx	lr
 8000bcc:	e000ed00 	.word	0xe000ed00

08000bd0 <__NVIC_SetPriority>:
  \param [in]      IRQn  Interrupt number.
  \param [in]  priority  Priority to set.
  \note    The priority cannot be set for every processor exception.
 */
__STATIC_INLINE void __NVIC_SetPriority(IRQn_Type IRQn, uint32_t priority)
{
 8000bd0:	b480      	push	{r7}
 8000bd2:	b083      	sub	sp, #12
 8000bd4:	af00      	add	r7, sp, #0
 8000bd6:	4603      	mov	r3, r0
 8000bd8:	6039      	str	r1, [r7, #0]
 8000bda:	71fb      	strb	r3, [r7, #7]
  if ((int32_t)(IRQn) >= 0)
 8000bdc:	f997 3007 	ldrsb.w	r3, [r7, #7]
 8000be0:	2b00      	cmp	r3, #0
 8000be2:	db0a      	blt.n	8000bfa <__NVIC_SetPriority+0x2a>
  {
    NVIC->IP[((uint32_t)IRQn)]               = (uint8_t)((priority << (8U - __NVIC_PRIO_BITS)) & (uint32_t)0xFFUL);
 8000be4:	683b      	ldr	r3, [r7, #0]
 8000be6:	b2da      	uxtb	r2, r3
 8000be8:	490c      	ldr	r1, [pc, #48]	; (8000c1c <__NVIC_SetPriority+0x4c>)
 8000bea:	f997 3007 	ldrsb.w	r3, [r7, #7]
 8000bee:	0112      	lsls	r2, r2, #4
 8000bf0:	b2d2      	uxtb	r2, r2
 8000bf2:	440b      	add	r3, r1
 8000bf4:	f883 2300 	strb.w	r2, [r3, #768]	; 0x300
  }
  else
  {
    SCB->SHP[(((uint32_t)IRQn) & 0xFUL)-4UL] = (uint8_t)((priority << (8U - __NVIC_PRIO_BITS)) & (uint32_t)0xFFUL);
  }
}
 8000bf8:	e00a      	b.n	8000c10 <__NVIC_SetPriority+0x40>
    SCB->SHP[(((uint32_t)IRQn) & 0xFUL)-4UL] = (uint8_t)((priority << (8U - __NVIC_PRIO_BITS)) & (uint32_t)0xFFUL);
 8000bfa:	683b      	ldr	r3, [r7, #0]
 8000bfc:	b2da      	uxtb	r2, r3
 8000bfe:	4908      	ldr	r1, [pc, #32]	; (8000c20 <__NVIC_SetPriority+0x50>)
 8000c00:	79fb      	ldrb	r3, [r7, #7]
 8000c02:	f003 030f 	and.w	r3, r3, #15
 8000c06:	3b04      	subs	r3, #4
 8000c08:	0112      	lsls	r2, r2, #4
 8000c0a:	b2d2      	uxtb	r2, r2
 8000c0c:	440b      	add	r3, r1
 8000c0e:	761a      	strb	r2, [r3, #24]
}
 8000c10:	bf00      	nop
 8000c12:	370c      	adds	r7, #12
 8000c14:	46bd      	mov	sp, r7
 8000c16:	f85d 7b04 	ldr.w	r7, [sp], #4
 8000c1a:	4770      	bx	lr
 8000c1c:	e000e100 	.word	0xe000e100
 8000c20:	e000ed00 	.word	0xe000ed00

08000c24 <NVIC_EncodePriority>:
  \param [in]   PreemptPriority  Preemptive priority value (starting from 0).
  \param [in]       SubPriority  Subpriority value (starting from 0).
  \return                        Encoded priority. Value can be used in the function \ref NVIC_SetPriority().
 */
__STATIC_INLINE uint32_t NVIC_EncodePriority (uint32_t PriorityGroup, uint32_t PreemptPriority, uint32_t SubPriority)
{
 8000c24:	b480      	push	{r7}
 8000c26:	b089      	sub	sp, #36	; 0x24
 8000c28:	af00      	add	r7, sp, #0
 8000c2a:	60f8      	str	r0, [r7, #12]
 8000c2c:	60b9      	str	r1, [r7, #8]
 8000c2e:	607a      	str	r2, [r7, #4]
  uint32_t PriorityGroupTmp = (PriorityGroup & (uint32_t)0x07UL);   /* only values 0..7 are used          */
 8000c30:	68fb      	ldr	r3, [r7, #12]
 8000c32:	f003 0307 	and.w	r3, r3, #7
 8000c36:	61fb      	str	r3, [r7, #28]
  uint32_t PreemptPriorityBits;
  uint32_t SubPriorityBits;

  PreemptPriorityBits = ((7UL - PriorityGroupTmp) > (uint32_t)(__NVIC_PRIO_BITS)) ? (uint32_t)(__NVIC_PRIO_BITS) : (uint32_t)(7UL - PriorityGroupTmp);
 8000c38:	69fb      	ldr	r3, [r7, #28]
 8000c3a:	f1c3 0307 	rsb	r3, r3, #7
 8000c3e:	2b04      	cmp	r3, #4
 8000c40:	bf28      	it	cs
 8000c42:	2304      	movcs	r3, #4
 8000c44:	61bb      	str	r3, [r7, #24]
  SubPriorityBits     = ((PriorityGroupTmp + (uint32_t)(__NVIC_PRIO_BITS)) < (uint32_t)7UL) ? (uint32_t)0UL : (uint32_t)((PriorityGroupTmp - 7UL) + (uint32_t)(__NVIC_PRIO_BITS));
 8000c46:	69fb      	ldr	r3, [r7, #28]
 8000c48:	3304      	adds	r3, #4
 8000c4a:	2b06      	cmp	r3, #6
 8000c4c:	d902      	bls.n	8000c54 <NVIC_EncodePriority+0x30>
 8000c4e:	69fb      	ldr	r3, [r7, #28]
 8000c50:	3b03      	subs	r3, #3
 8000c52:	e000      	b.n	8000c56 <NVIC_EncodePriority+0x32>
 8000c54:	2300      	movs	r3, #0
 8000c56:	617b      	str	r3, [r7, #20]

  return (
           ((PreemptPriority & (uint32_t)((1UL << (PreemptPriorityBits)) - 1UL)) << SubPriorityBits) |
 8000c58:	f04f 32ff 	mov.w	r2, #4294967295	; 0xffffffff
 8000c5c:	69bb      	ldr	r3, [r7, #24]
 8000c5e:	fa02 f303 	lsl.w	r3, r2, r3
 8000c62:	43da      	mvns	r2, r3
 8000c64:	68bb      	ldr	r3, [r7, #8]
 8000c66:	401a      	ands	r2, r3
 8000c68:	697b      	ldr	r3, [r7, #20]
 8000c6a:	409a      	lsls	r2, r3
           ((SubPriority     & (uint32_t)((1UL << (SubPriorityBits    )) - 1UL)))
 8000c6c:	f04f 31ff 	mov.w	r1, #4294967295	; 0xffffffff
 8000c70:	697b      	ldr	r3, [r7, #20]
 8000c72:	fa01 f303 	lsl.w	r3, r1, r3
 8000c76:	43d9      	mvns	r1, r3
 8000c78:	687b      	ldr	r3, [r7, #4]
 8000c7a:	400b      	ands	r3, r1
           ((PreemptPriority & (uint32_t)((1UL << (PreemptPriorityBits)) - 1UL)) << SubPriorityBits) |
 8000c7c:	4313      	orrs	r3, r2
         );
}
 8000c7e:	4618      	mov	r0, r3
 8000c80:	3724      	adds	r7, #36	; 0x24
 8000c82:	46bd      	mov	sp, r7
 8000c84:	f85d 7b04 	ldr.w	r7, [sp], #4
 8000c88:	4770      	bx	lr
	...

08000c8c <SysTick_Config>:
  \note    When the variable <b>__Vendor_SysTickConfig</b> is set to 1, then the
           function <b>SysTick_Config</b> is not included. In this case, the file <b><i>device</i>.h</b>
           must contain a vendor-specific implementation of this function.
 */
__STATIC_INLINE uint32_t SysTick_Config(uint32_t ticks)
{
 8000c8c:	b580      	push	{r7, lr}
 8000c8e:	b082      	sub	sp, #8
 8000c90:	af00      	add	r7, sp, #0
 8000c92:	6078      	str	r0, [r7, #4]
  if ((ticks - 1UL) > SysTick_LOAD_RELOAD_Msk)
 8000c94:	687b      	ldr	r3, [r7, #4]
 8000c96:	3b01      	subs	r3, #1
 8000c98:	f1b3 7f80 	cmp.w	r3, #16777216	; 0x1000000
 8000c9c:	d301      	bcc.n	8000ca2 <SysTick_Config+0x16>
  {
    return (1UL);                                                   /* Reload value impossible */
 8000c9e:	2301      	movs	r3, #1
 8000ca0:	e00f      	b.n	8000cc2 <SysTick_Config+0x36>
  }

  SysTick->LOAD  = (uint32_t)(ticks - 1UL);                         /* set reload register */
 8000ca2:	4a0a      	ldr	r2, [pc, #40]	; (8000ccc <SysTick_Config+0x40>)
 8000ca4:	687b      	ldr	r3, [r7, #4]
 8000ca6:	3b01      	subs	r3, #1
 8000ca8:	6053      	str	r3, [r2, #4]
  NVIC_SetPriority (SysTick_IRQn, (1UL << __NVIC_PRIO_BITS) - 1UL); /* set Priority for Systick Interrupt */
 8000caa:	210f      	movs	r1, #15
 8000cac:	f04f 30ff 	mov.w	r0, #4294967295	; 0xffffffff
 8000cb0:	f7ff ff8e 	bl	8000bd0 <__NVIC_SetPriority>
  SysTick->VAL   = 0UL;                                             /* Load the SysTick Counter Value */
 8000cb4:	4b05      	ldr	r3, [pc, #20]	; (8000ccc <SysTick_Config+0x40>)
 8000cb6:	2200      	movs	r2, #0
 8000cb8:	609a      	str	r2, [r3, #8]
  SysTick->CTRL  = SysTick_CTRL_CLKSOURCE_Msk |
 8000cba:	4b04      	ldr	r3, [pc, #16]	; (8000ccc <SysTick_Config+0x40>)
 8000cbc:	2207      	movs	r2, #7
 8000cbe:	601a      	str	r2, [r3, #0]
                   SysTick_CTRL_TICKINT_Msk   |
                   SysTick_CTRL_ENABLE_Msk;                         /* Enable SysTick IRQ and SysTick Timer */
  return (0UL);                                                     /* Function successful */
 8000cc0:	2300      	movs	r3, #0
}
 8000cc2:	4618      	mov	r0, r3
 8000cc4:	3708      	adds	r7, #8
 8000cc6:	46bd      	mov	sp, r7
 8000cc8:	bd80      	pop	{r7, pc}
 8000cca:	bf00      	nop
 8000ccc:	e000e010 	.word	0xe000e010

08000cd0 <HAL_NVIC_SetPriorityGrouping>:
  * @note   When the NVIC_PriorityGroup_0 is selected, IRQ preemption is no more possible. 
  *         The pending IRQ priority will be managed only by the subpriority. 
  * @retval None
  */
void HAL_NVIC_SetPriorityGrouping(uint32_t PriorityGroup)
{
 8000cd0:	b580      	push	{r7, lr}
 8000cd2:	b082      	sub	sp, #8
 8000cd4:	af00      	add	r7, sp, #0
 8000cd6:	6078      	str	r0, [r7, #4]
  /* Check the parameters */
  assert_param(IS_NVIC_PRIORITY_GROUP(PriorityGroup));
  
  /* Set the PRIGROUP[10:8] bits according to the PriorityGroup parameter value */
  NVIC_SetPriorityGrouping(PriorityGroup);
 8000cd8:	6878      	ldr	r0, [r7, #4]
 8000cda:	f7ff ff47 	bl	8000b6c <__NVIC_SetPriorityGrouping>
}
 8000cde:	bf00      	nop
 8000ce0:	3708      	adds	r7, #8
 8000ce2:	46bd      	mov	sp, r7
 8000ce4:	bd80      	pop	{r7, pc}

08000ce6 <HAL_NVIC_SetPriority>:
  *         This parameter can be a value between 0 and 15
  *         A lower priority value indicates a higher priority.          
  * @retval None
  */
void HAL_NVIC_SetPriority(IRQn_Type IRQn, uint32_t PreemptPriority, uint32_t SubPriority)
{ 
 8000ce6:	b580      	push	{r7, lr}
 8000ce8:	b086      	sub	sp, #24
 8000cea:	af00      	add	r7, sp, #0
 8000cec:	4603      	mov	r3, r0
 8000cee:	60b9      	str	r1, [r7, #8]
 8000cf0:	607a      	str	r2, [r7, #4]
 8000cf2:	73fb      	strb	r3, [r7, #15]
  uint32_t prioritygroup = 0x00U;
 8000cf4:	2300      	movs	r3, #0
 8000cf6:	617b      	str	r3, [r7, #20]
  
  /* Check the parameters */
  assert_param(IS_NVIC_SUB_PRIORITY(SubPriority));
  assert_param(IS_NVIC_PREEMPTION_PRIORITY(PreemptPriority));
  
  prioritygroup = NVIC_GetPriorityGrouping();
 8000cf8:	f7ff ff5c 	bl	8000bb4 <__NVIC_GetPriorityGrouping>
 8000cfc:	6178      	str	r0, [r7, #20]
  
  NVIC_SetPriority(IRQn, NVIC_EncodePriority(prioritygroup, PreemptPriority, SubPriority));
 8000cfe:	687a      	ldr	r2, [r7, #4]
 8000d00:	68b9      	ldr	r1, [r7, #8]
 8000d02:	6978      	ldr	r0, [r7, #20]
 8000d04:	f7ff ff8e 	bl	8000c24 <NVIC_EncodePriority>
 8000d08:	4602      	mov	r2, r0
 8000d0a:	f997 300f 	ldrsb.w	r3, [r7, #15]
 8000d0e:	4611      	mov	r1, r2
 8000d10:	4618      	mov	r0, r3
 8000d12:	f7ff ff5d 	bl	8000bd0 <__NVIC_SetPriority>
}
 8000d16:	bf00      	nop
 8000d18:	3718      	adds	r7, #24
 8000d1a:	46bd      	mov	sp, r7
 8000d1c:	bd80      	pop	{r7, pc}

08000d1e <HAL_SYSTICK_Config>:
  * @param  TicksNumb Specifies the ticks Number of ticks between two interrupts.
  * @retval status:  - 0  Function succeeded.
  *                  - 1  Function failed.
  */
uint32_t HAL_SYSTICK_Config(uint32_t TicksNumb)
{
 8000d1e:	b580      	push	{r7, lr}
 8000d20:	b082      	sub	sp, #8
 8000d22:	af00      	add	r7, sp, #0
 8000d24:	6078      	str	r0, [r7, #4]
   return SysTick_Config(TicksNumb);
 8000d26:	6878      	ldr	r0, [r7, #4]
 8000d28:	f7ff ffb0 	bl	8000c8c <SysTick_Config>
 8000d2c:	4603      	mov	r3, r0
}
 8000d2e:	4618      	mov	r0, r3
 8000d30:	3708      	adds	r7, #8
 8000d32:	46bd      	mov	sp, r7
 8000d34:	bd80      	pop	{r7, pc}
	...

08000d38 <HAL_GPIO_Init>:
  * @param  GPIO_Init pointer to a GPIO_InitTypeDef structure that contains
  *         the configuration information for the specified GPIO peripheral.
  * @retval None
  */
void HAL_GPIO_Init(GPIO_TypeDef  *GPIOx, GPIO_InitTypeDef *GPIO_Init)
{
 8000d38:	b480      	push	{r7}
 8000d3a:	b089      	sub	sp, #36	; 0x24
 8000d3c:	af00      	add	r7, sp, #0
 8000d3e:	6078      	str	r0, [r7, #4]
 8000d40:	6039      	str	r1, [r7, #0]
  uint32_t position;
  uint32_t ioposition = 0x00U;
 8000d42:	2300      	movs	r3, #0
 8000d44:	617b      	str	r3, [r7, #20]
  uint32_t iocurrent = 0x00U;
 8000d46:	2300      	movs	r3, #0
 8000d48:	613b      	str	r3, [r7, #16]
  uint32_t temp = 0x00U;
 8000d4a:	2300      	movs	r3, #0
 8000d4c:	61bb      	str	r3, [r7, #24]
  assert_param(IS_GPIO_ALL_INSTANCE(GPIOx));
  assert_param(IS_GPIO_PIN(GPIO_Init->Pin));
  assert_param(IS_GPIO_MODE(GPIO_Init->Mode));

  /* Configure the port pins */
  for(position = 0U; position < GPIO_NUMBER; position++)
 8000d4e:	2300      	movs	r3, #0
 8000d50:	61fb      	str	r3, [r7, #28]
 8000d52:	e177      	b.n	8001044 <HAL_GPIO_Init+0x30c>
  {
    /* Get the IO position */
    ioposition = 0x01U << position;
 8000d54:	2201      	movs	r2, #1
 8000d56:	69fb      	ldr	r3, [r7, #28]
 8000d58:	fa02 f303 	lsl.w	r3, r2, r3
 8000d5c:	617b      	str	r3, [r7, #20]
    /* Get the current IO position */
    iocurrent = (uint32_t)(GPIO_Init->Pin) & ioposition;
 8000d5e:	683b      	ldr	r3, [r7, #0]
 8000d60:	681b      	ldr	r3, [r3, #0]
 8000d62:	697a      	ldr	r2, [r7, #20]
 8000d64:	4013      	ands	r3, r2
 8000d66:	613b      	str	r3, [r7, #16]

    if(iocurrent == ioposition)
 8000d68:	693a      	ldr	r2, [r7, #16]
 8000d6a:	697b      	ldr	r3, [r7, #20]
 8000d6c:	429a      	cmp	r2, r3
 8000d6e:	f040 8166 	bne.w	800103e <HAL_GPIO_Init+0x306>
    {
      /*--------------------- GPIO Mode Configuration ------------------------*/
      /* In case of Output or Alternate function mode selection */
      if(((GPIO_Init->Mode & GPIO_MODE) == MODE_OUTPUT) || \
 8000d72:	683b      	ldr	r3, [r7, #0]
 8000d74:	685b      	ldr	r3, [r3, #4]
 8000d76:	f003 0303 	and.w	r3, r3, #3
 8000d7a:	2b01      	cmp	r3, #1
 8000d7c:	d005      	beq.n	8000d8a <HAL_GPIO_Init+0x52>
          (GPIO_Init->Mode & GPIO_MODE) == MODE_AF)
 8000d7e:	683b      	ldr	r3, [r7, #0]
 8000d80:	685b      	ldr	r3, [r3, #4]
 8000d82:	f003 0303 	and.w	r3, r3, #3
      if(((GPIO_Init->Mode & GPIO_MODE) == MODE_OUTPUT) || \
 8000d86:	2b02      	cmp	r3, #2
 8000d88:	d130      	bne.n	8000dec <HAL_GPIO_Init+0xb4>
      {
        /* Check the Speed parameter */
        assert_param(IS_GPIO_SPEED(GPIO_Init->Speed));
        /* Configure the IO Speed */
        temp = GPIOx->OSPEEDR; 
 8000d8a:	687b      	ldr	r3, [r7, #4]
 8000d8c:	689b      	ldr	r3, [r3, #8]
 8000d8e:	61bb      	str	r3, [r7, #24]
        temp &= ~(GPIO_OSPEEDER_OSPEEDR0 << (position * 2U));
 8000d90:	69fb      	ldr	r3, [r7, #28]
 8000d92:	005b      	lsls	r3, r3, #1
 8000d94:	2203      	movs	r2, #3
 8000d96:	fa02 f303 	lsl.w	r3, r2, r3
 8000d9a:	43db      	mvns	r3, r3
 8000d9c:	69ba      	ldr	r2, [r7, #24]
 8000d9e:	4013      	ands	r3, r2
 8000da0:	61bb      	str	r3, [r7, #24]
        temp |= (GPIO_Init->Speed << (position * 2U));
 8000da2:	683b      	ldr	r3, [r7, #0]
 8000da4:	68da      	ldr	r2, [r3, #12]
 8000da6:	69fb      	ldr	r3, [r7, #28]
 8000da8:	005b      	lsls	r3, r3, #1
 8000daa:	fa02 f303 	lsl.w	r3, r2, r3
 8000dae:	69ba      	ldr	r2, [r7, #24]
 8000db0:	4313      	orrs	r3, r2
 8000db2:	61bb      	str	r3, [r7, #24]
        GPIOx->OSPEEDR = temp;
 8000db4:	687b      	ldr	r3, [r7, #4]
 8000db6:	69ba      	ldr	r2, [r7, #24]
 8000db8:	609a      	str	r2, [r3, #8]

        /* Configure the IO Output Type */
        temp = GPIOx->OTYPER;
 8000dba:	687b      	ldr	r3, [r7, #4]
 8000dbc:	685b      	ldr	r3, [r3, #4]
 8000dbe:	61bb      	str	r3, [r7, #24]
        temp &= ~(GPIO_OTYPER_OT_0 << position) ;
 8000dc0:	2201      	movs	r2, #1
 8000dc2:	69fb      	ldr	r3, [r7, #28]
 8000dc4:	fa02 f303 	lsl.w	r3, r2, r3
 8000dc8:	43db      	mvns	r3, r3
 8000dca:	69ba      	ldr	r2, [r7, #24]
 8000dcc:	4013      	ands	r3, r2
 8000dce:	61bb      	str	r3, [r7, #24]
        temp |= (((GPIO_Init->Mode & OUTPUT_TYPE) >> OUTPUT_TYPE_Pos) << position);
 8000dd0:	683b      	ldr	r3, [r7, #0]
 8000dd2:	685b      	ldr	r3, [r3, #4]
 8000dd4:	091b      	lsrs	r3, r3, #4
 8000dd6:	f003 0201 	and.w	r2, r3, #1
 8000dda:	69fb      	ldr	r3, [r7, #28]
 8000ddc:	fa02 f303 	lsl.w	r3, r2, r3
 8000de0:	69ba      	ldr	r2, [r7, #24]
 8000de2:	4313      	orrs	r3, r2
 8000de4:	61bb      	str	r3, [r7, #24]
        GPIOx->OTYPER = temp;
 8000de6:	687b      	ldr	r3, [r7, #4]
 8000de8:	69ba      	ldr	r2, [r7, #24]
 8000dea:	605a      	str	r2, [r3, #4]
       }

      if((GPIO_Init->Mode & GPIO_MODE) != MODE_ANALOG)
 8000dec:	683b      	ldr	r3, [r7, #0]
 8000dee:	685b      	ldr	r3, [r3, #4]
 8000df0:	f003 0303 	and.w	r3, r3, #3
 8000df4:	2b03      	cmp	r3, #3
 8000df6:	d017      	beq.n	8000e28 <HAL_GPIO_Init+0xf0>
      {
        /* Check the parameters */
        assert_param(IS_GPIO_PULL(GPIO_Init->Pull));
        
        /* Activate the Pull-up or Pull down resistor for the current IO */
        temp = GPIOx->PUPDR;
 8000df8:	687b      	ldr	r3, [r7, #4]
 8000dfa:	68db      	ldr	r3, [r3, #12]
 8000dfc:	61bb      	str	r3, [r7, #24]
        temp &= ~(GPIO_PUPDR_PUPDR0 << (position * 2U));
 8000dfe:	69fb      	ldr	r3, [r7, #28]
 8000e00:	005b      	lsls	r3, r3, #1
 8000e02:	2203      	movs	r2, #3
 8000e04:	fa02 f303 	lsl.w	r3, r2, r3
 8000e08:	43db      	mvns	r3, r3
 8000e0a:	69ba      	ldr	r2, [r7, #24]
 8000e0c:	4013      	ands	r3, r2
 8000e0e:	61bb      	str	r3, [r7, #24]
        temp |= ((GPIO_Init->Pull) << (position * 2U));
 8000e10:	683b      	ldr	r3, [r7, #0]
 8000e12:	689a      	ldr	r2, [r3, #8]
 8000e14:	69fb      	ldr	r3, [r7, #28]
 8000e16:	005b      	lsls	r3, r3, #1
 8000e18:	fa02 f303 	lsl.w	r3, r2, r3
 8000e1c:	69ba      	ldr	r2, [r7, #24]
 8000e1e:	4313      	orrs	r3, r2
 8000e20:	61bb      	str	r3, [r7, #24]
        GPIOx->PUPDR = temp;
 8000e22:	687b      	ldr	r3, [r7, #4]
 8000e24:	69ba      	ldr	r2, [r7, #24]
 8000e26:	60da      	str	r2, [r3, #12]
      }

      /* In case of Alternate function mode selection */
      if((GPIO_Init->Mode & GPIO_MODE) == MODE_AF)
 8000e28:	683b      	ldr	r3, [r7, #0]
 8000e2a:	685b      	ldr	r3, [r3, #4]
 8000e2c:	f003 0303 	and.w	r3, r3, #3
 8000e30:	2b02      	cmp	r3, #2
 8000e32:	d123      	bne.n	8000e7c <HAL_GPIO_Init+0x144>
      {
        /* Check the Alternate function parameter */
        assert_param(IS_GPIO_AF(GPIO_Init->Alternate));
        /* Configure Alternate function mapped with the current IO */
        temp = GPIOx->AFR[position >> 3U];
 8000e34:	69fb      	ldr	r3, [r7, #28]
 8000e36:	08da      	lsrs	r2, r3, #3
 8000e38:	687b      	ldr	r3, [r7, #4]
 8000e3a:	3208      	adds	r2, #8
 8000e3c:	f853 3022 	ldr.w	r3, [r3, r2, lsl #2]
 8000e40:	61bb      	str	r3, [r7, #24]
        temp &= ~(0xFU << ((uint32_t)(position & 0x07U) * 4U)) ;
 8000e42:	69fb      	ldr	r3, [r7, #28]
 8000e44:	f003 0307 	and.w	r3, r3, #7
 8000e48:	009b      	lsls	r3, r3, #2
 8000e4a:	220f      	movs	r2, #15
 8000e4c:	fa02 f303 	lsl.w	r3, r2, r3
 8000e50:	43db      	mvns	r3, r3
 8000e52:	69ba      	ldr	r2, [r7, #24]
 8000e54:	4013      	ands	r3, r2
 8000e56:	61bb      	str	r3, [r7, #24]
        temp |= ((uint32_t)(GPIO_Init->Alternate) << (((uint32_t)position & 0x07U) * 4U));
 8000e58:	683b      	ldr	r3, [r7, #0]
 8000e5a:	691a      	ldr	r2, [r3, #16]
 8000e5c:	69fb      	ldr	r3, [r7, #28]
 8000e5e:	f003 0307 	and.w	r3, r3, #7
 8000e62:	009b      	lsls	r3, r3, #2
 8000e64:	fa02 f303 	lsl.w	r3, r2, r3
 8000e68:	69ba      	ldr	r2, [r7, #24]
 8000e6a:	4313      	orrs	r3, r2
 8000e6c:	61bb      	str	r3, [r7, #24]
        GPIOx->AFR[position >> 3U] = temp;
 8000e6e:	69fb      	ldr	r3, [r7, #28]
 8000e70:	08da      	lsrs	r2, r3, #3
 8000e72:	687b      	ldr	r3, [r7, #4]
 8000e74:	3208      	adds	r2, #8
 8000e76:	69b9      	ldr	r1, [r7, #24]
 8000e78:	f843 1022 	str.w	r1, [r3, r2, lsl #2]
      }

      /* Configure IO Direction mode (Input, Output, Alternate or Analog) */
      temp = GPIOx->MODER;
 8000e7c:	687b      	ldr	r3, [r7, #4]
 8000e7e:	681b      	ldr	r3, [r3, #0]
 8000e80:	61bb      	str	r3, [r7, #24]
      temp &= ~(GPIO_MODER_MODER0 << (position * 2U));
 8000e82:	69fb      	ldr	r3, [r7, #28]
 8000e84:	005b      	lsls	r3, r3, #1
 8000e86:	2203      	movs	r2, #3
 8000e88:	fa02 f303 	lsl.w	r3, r2, r3
 8000e8c:	43db      	mvns	r3, r3
 8000e8e:	69ba      	ldr	r2, [r7, #24]
 8000e90:	4013      	ands	r3, r2
 8000e92:	61bb      	str	r3, [r7, #24]
      temp |= ((GPIO_Init->Mode & GPIO_MODE) << (position * 2U));
 8000e94:	683b      	ldr	r3, [r7, #0]
 8000e96:	685b      	ldr	r3, [r3, #4]
 8000e98:	f003 0203 	and.w	r2, r3, #3
 8000e9c:	69fb      	ldr	r3, [r7, #28]
 8000e9e:	005b      	lsls	r3, r3, #1
 8000ea0:	fa02 f303 	lsl.w	r3, r2, r3
 8000ea4:	69ba      	ldr	r2, [r7, #24]
 8000ea6:	4313      	orrs	r3, r2
 8000ea8:	61bb      	str	r3, [r7, #24]
      GPIOx->MODER = temp;
 8000eaa:	687b      	ldr	r3, [r7, #4]
 8000eac:	69ba      	ldr	r2, [r7, #24]
 8000eae:	601a      	str	r2, [r3, #0]

      /*--------------------- EXTI Mode Configuration ------------------------*/
      /* Configure the External Interrupt or event for the current IO */
      if((GPIO_Init->Mode & EXTI_MODE) != 0x00U)
 8000eb0:	683b      	ldr	r3, [r7, #0]
 8000eb2:	685b      	ldr	r3, [r3, #4]
 8000eb4:	f403 3340 	and.w	r3, r3, #196608	; 0x30000
 8000eb8:	2b00      	cmp	r3, #0
 8000eba:	f000 80c0 	beq.w	800103e <HAL_GPIO_Init+0x306>
      {
        /* Enable SYSCFG Clock */
        __HAL_RCC_SYSCFG_CLK_ENABLE();
 8000ebe:	2300      	movs	r3, #0
 8000ec0:	60fb      	str	r3, [r7, #12]
 8000ec2:	4b66      	ldr	r3, [pc, #408]	; (800105c <HAL_GPIO_Init+0x324>)
 8000ec4:	6c5b      	ldr	r3, [r3, #68]	; 0x44
 8000ec6:	4a65      	ldr	r2, [pc, #404]	; (800105c <HAL_GPIO_Init+0x324>)
 8000ec8:	f443 4380 	orr.w	r3, r3, #16384	; 0x4000
 8000ecc:	6453      	str	r3, [r2, #68]	; 0x44
 8000ece:	4b63      	ldr	r3, [pc, #396]	; (800105c <HAL_GPIO_Init+0x324>)
 8000ed0:	6c5b      	ldr	r3, [r3, #68]	; 0x44
 8000ed2:	f403 4380 	and.w	r3, r3, #16384	; 0x4000
 8000ed6:	60fb      	str	r3, [r7, #12]
 8000ed8:	68fb      	ldr	r3, [r7, #12]

        temp = SYSCFG->EXTICR[position >> 2U];
 8000eda:	4a61      	ldr	r2, [pc, #388]	; (8001060 <HAL_GPIO_Init+0x328>)
 8000edc:	69fb      	ldr	r3, [r7, #28]
 8000ede:	089b      	lsrs	r3, r3, #2
 8000ee0:	3302      	adds	r3, #2
 8000ee2:	f852 3023 	ldr.w	r3, [r2, r3, lsl #2]
 8000ee6:	61bb      	str	r3, [r7, #24]
        temp &= ~(0x0FU << (4U * (position & 0x03U)));
 8000ee8:	69fb      	ldr	r3, [r7, #28]
 8000eea:	f003 0303 	and.w	r3, r3, #3
 8000eee:	009b      	lsls	r3, r3, #2
 8000ef0:	220f      	movs	r2, #15
 8000ef2:	fa02 f303 	lsl.w	r3, r2, r3
 8000ef6:	43db      	mvns	r3, r3
 8000ef8:	69ba      	ldr	r2, [r7, #24]
 8000efa:	4013      	ands	r3, r2
 8000efc:	61bb      	str	r3, [r7, #24]
        temp |= ((uint32_t)(GPIO_GET_INDEX(GPIOx)) << (4U * (position & 0x03U)));
 8000efe:	687b      	ldr	r3, [r7, #4]
 8000f00:	4a58      	ldr	r2, [pc, #352]	; (8001064 <HAL_GPIO_Init+0x32c>)
 8000f02:	4293      	cmp	r3, r2
 8000f04:	d037      	beq.n	8000f76 <HAL_GPIO_Init+0x23e>
 8000f06:	687b      	ldr	r3, [r7, #4]
 8000f08:	4a57      	ldr	r2, [pc, #348]	; (8001068 <HAL_GPIO_Init+0x330>)
 8000f0a:	4293      	cmp	r3, r2
 8000f0c:	d031      	beq.n	8000f72 <HAL_GPIO_Init+0x23a>
 8000f0e:	687b      	ldr	r3, [r7, #4]
 8000f10:	4a56      	ldr	r2, [pc, #344]	; (800106c <HAL_GPIO_Init+0x334>)
 8000f12:	4293      	cmp	r3, r2
 8000f14:	d02b      	beq.n	8000f6e <HAL_GPIO_Init+0x236>
 8000f16:	687b      	ldr	r3, [r7, #4]
 8000f18:	4a55      	ldr	r2, [pc, #340]	; (8001070 <HAL_GPIO_Init+0x338>)
 8000f1a:	4293      	cmp	r3, r2
 8000f1c:	d025      	beq.n	8000f6a <HAL_GPIO_Init+0x232>
 8000f1e:	687b      	ldr	r3, [r7, #4]
 8000f20:	4a54      	ldr	r2, [pc, #336]	; (8001074 <HAL_GPIO_Init+0x33c>)
 8000f22:	4293      	cmp	r3, r2
 8000f24:	d01f      	beq.n	8000f66 <HAL_GPIO_Init+0x22e>
 8000f26:	687b      	ldr	r3, [r7, #4]
 8000f28:	4a53      	ldr	r2, [pc, #332]	; (8001078 <HAL_GPIO_Init+0x340>)
 8000f2a:	4293      	cmp	r3, r2
 8000f2c:	d019      	beq.n	8000f62 <HAL_GPIO_Init+0x22a>
 8000f2e:	687b      	ldr	r3, [r7, #4]
 8000f30:	4a52      	ldr	r2, [pc, #328]	; (800107c <HAL_GPIO_Init+0x344>)
 8000f32:	4293      	cmp	r3, r2
 8000f34:	d013      	beq.n	8000f5e <HAL_GPIO_Init+0x226>
 8000f36:	687b      	ldr	r3, [r7, #4]
 8000f38:	4a51      	ldr	r2, [pc, #324]	; (8001080 <HAL_GPIO_Init+0x348>)
 8000f3a:	4293      	cmp	r3, r2
 8000f3c:	d00d      	beq.n	8000f5a <HAL_GPIO_Init+0x222>
 8000f3e:	687b      	ldr	r3, [r7, #4]
 8000f40:	4a50      	ldr	r2, [pc, #320]	; (8001084 <HAL_GPIO_Init+0x34c>)
 8000f42:	4293      	cmp	r3, r2
 8000f44:	d007      	beq.n	8000f56 <HAL_GPIO_Init+0x21e>
 8000f46:	687b      	ldr	r3, [r7, #4]
 8000f48:	4a4f      	ldr	r2, [pc, #316]	; (8001088 <HAL_GPIO_Init+0x350>)
 8000f4a:	4293      	cmp	r3, r2
 8000f4c:	d101      	bne.n	8000f52 <HAL_GPIO_Init+0x21a>
 8000f4e:	2309      	movs	r3, #9
 8000f50:	e012      	b.n	8000f78 <HAL_GPIO_Init+0x240>
 8000f52:	230a      	movs	r3, #10
 8000f54:	e010      	b.n	8000f78 <HAL_GPIO_Init+0x240>
 8000f56:	2308      	movs	r3, #8
 8000f58:	e00e      	b.n	8000f78 <HAL_GPIO_Init+0x240>
 8000f5a:	2307      	movs	r3, #7
 8000f5c:	e00c      	b.n	8000f78 <HAL_GPIO_Init+0x240>
 8000f5e:	2306      	movs	r3, #6
 8000f60:	e00a      	b.n	8000f78 <HAL_GPIO_Init+0x240>
 8000f62:	2305      	movs	r3, #5
 8000f64:	e008      	b.n	8000f78 <HAL_GPIO_Init+0x240>
 8000f66:	2304      	movs	r3, #4
 8000f68:	e006      	b.n	8000f78 <HAL_GPIO_Init+0x240>
 8000f6a:	2303      	movs	r3, #3
 8000f6c:	e004      	b.n	8000f78 <HAL_GPIO_Init+0x240>
 8000f6e:	2302      	movs	r3, #2
 8000f70:	e002      	b.n	8000f78 <HAL_GPIO_Init+0x240>
 8000f72:	2301      	movs	r3, #1
 8000f74:	e000      	b.n	8000f78 <HAL_GPIO_Init+0x240>
 8000f76:	2300      	movs	r3, #0
 8000f78:	69fa      	ldr	r2, [r7, #28]
 8000f7a:	f002 0203 	and.w	r2, r2, #3
 8000f7e:	0092      	lsls	r2, r2, #2
 8000f80:	4093      	lsls	r3, r2
 8000f82:	69ba      	ldr	r2, [r7, #24]
 8000f84:	4313      	orrs	r3, r2
 8000f86:	61bb      	str	r3, [r7, #24]
        SYSCFG->EXTICR[position >> 2U] = temp;
 8000f88:	4935      	ldr	r1, [pc, #212]	; (8001060 <HAL_GPIO_Init+0x328>)
 8000f8a:	69fb      	ldr	r3, [r7, #28]
 8000f8c:	089b      	lsrs	r3, r3, #2
 8000f8e:	3302      	adds	r3, #2
 8000f90:	69ba      	ldr	r2, [r7, #24]
 8000f92:	f841 2023 	str.w	r2, [r1, r3, lsl #2]

        /* Clear Rising Falling edge configuration */
        temp = EXTI->RTSR;
 8000f96:	4b3d      	ldr	r3, [pc, #244]	; (800108c <HAL_GPIO_Init+0x354>)
 8000f98:	689b      	ldr	r3, [r3, #8]
 8000f9a:	61bb      	str	r3, [r7, #24]
        temp &= ~((uint32_t)iocurrent);
 8000f9c:	693b      	ldr	r3, [r7, #16]
 8000f9e:	43db      	mvns	r3, r3
 8000fa0:	69ba      	ldr	r2, [r7, #24]
 8000fa2:	4013      	ands	r3, r2
 8000fa4:	61bb      	str	r3, [r7, #24]
        if((GPIO_Init->Mode & TRIGGER_RISING) != 0x00U)
 8000fa6:	683b      	ldr	r3, [r7, #0]
 8000fa8:	685b      	ldr	r3, [r3, #4]
 8000faa:	f403 1380 	and.w	r3, r3, #1048576	; 0x100000
 8000fae:	2b00      	cmp	r3, #0
 8000fb0:	d003      	beq.n	8000fba <HAL_GPIO_Init+0x282>
        {
          temp |= iocurrent;
 8000fb2:	69ba      	ldr	r2, [r7, #24]
 8000fb4:	693b      	ldr	r3, [r7, #16]
 8000fb6:	4313      	orrs	r3, r2
 8000fb8:	61bb      	str	r3, [r7, #24]
        }
        EXTI->RTSR = temp;
 8000fba:	4a34      	ldr	r2, [pc, #208]	; (800108c <HAL_GPIO_Init+0x354>)
 8000fbc:	69bb      	ldr	r3, [r7, #24]
 8000fbe:	6093      	str	r3, [r2, #8]

        temp = EXTI->FTSR;
 8000fc0:	4b32      	ldr	r3, [pc, #200]	; (800108c <HAL_GPIO_Init+0x354>)
 8000fc2:	68db      	ldr	r3, [r3, #12]
 8000fc4:	61bb      	str	r3, [r7, #24]
        temp &= ~((uint32_t)iocurrent);
 8000fc6:	693b      	ldr	r3, [r7, #16]
 8000fc8:	43db      	mvns	r3, r3
 8000fca:	69ba      	ldr	r2, [r7, #24]
 8000fcc:	4013      	ands	r3, r2
 8000fce:	61bb      	str	r3, [r7, #24]
        if((GPIO_Init->Mode & TRIGGER_FALLING) != 0x00U)
 8000fd0:	683b      	ldr	r3, [r7, #0]
 8000fd2:	685b      	ldr	r3, [r3, #4]
 8000fd4:	f403 1300 	and.w	r3, r3, #2097152	; 0x200000
 8000fd8:	2b00      	cmp	r3, #0
 8000fda:	d003      	beq.n	8000fe4 <HAL_GPIO_Init+0x2ac>
        {
          temp |= iocurrent;
 8000fdc:	69ba      	ldr	r2, [r7, #24]
 8000fde:	693b      	ldr	r3, [r7, #16]
 8000fe0:	4313      	orrs	r3, r2
 8000fe2:	61bb      	str	r3, [r7, #24]
        }
        EXTI->FTSR = temp;
 8000fe4:	4a29      	ldr	r2, [pc, #164]	; (800108c <HAL_GPIO_Init+0x354>)
 8000fe6:	69bb      	ldr	r3, [r7, #24]
 8000fe8:	60d3      	str	r3, [r2, #12]

        temp = EXTI->EMR;
 8000fea:	4b28      	ldr	r3, [pc, #160]	; (800108c <HAL_GPIO_Init+0x354>)
 8000fec:	685b      	ldr	r3, [r3, #4]
 8000fee:	61bb      	str	r3, [r7, #24]
        temp &= ~((uint32_t)iocurrent);
 8000ff0:	693b      	ldr	r3, [r7, #16]
 8000ff2:	43db      	mvns	r3, r3
 8000ff4:	69ba      	ldr	r2, [r7, #24]
 8000ff6:	4013      	ands	r3, r2
 8000ff8:	61bb      	str	r3, [r7, #24]
        if((GPIO_Init->Mode & EXTI_EVT) != 0x00U)
 8000ffa:	683b      	ldr	r3, [r7, #0]
 8000ffc:	685b      	ldr	r3, [r3, #4]
 8000ffe:	f403 3300 	and.w	r3, r3, #131072	; 0x20000
 8001002:	2b00      	cmp	r3, #0
 8001004:	d003      	beq.n	800100e <HAL_GPIO_Init+0x2d6>
        {
          temp |= iocurrent;
 8001006:	69ba      	ldr	r2, [r7, #24]
 8001008:	693b      	ldr	r3, [r7, #16]
 800100a:	4313      	orrs	r3, r2
 800100c:	61bb      	str	r3, [r7, #24]
        }
        EXTI->EMR = temp;
 800100e:	4a1f      	ldr	r2, [pc, #124]	; (800108c <HAL_GPIO_Init+0x354>)
 8001010:	69bb      	ldr	r3, [r7, #24]
 8001012:	6053      	str	r3, [r2, #4]

        /* Clear EXTI line configuration */
        temp = EXTI->IMR;
 8001014:	4b1d      	ldr	r3, [pc, #116]	; (800108c <HAL_GPIO_Init+0x354>)
 8001016:	681b      	ldr	r3, [r3, #0]
 8001018:	61bb      	str	r3, [r7, #24]
        temp &= ~((uint32_t)iocurrent);
 800101a:	693b      	ldr	r3, [r7, #16]
 800101c:	43db      	mvns	r3, r3
 800101e:	69ba      	ldr	r2, [r7, #24]
 8001020:	4013      	ands	r3, r2
 8001022:	61bb      	str	r3, [r7, #24]
        if((GPIO_Init->Mode & EXTI_IT) != 0x00U)
 8001024:	683b      	ldr	r3, [r7, #0]
 8001026:	685b      	ldr	r3, [r3, #4]
 8001028:	f403 3380 	and.w	r3, r3, #65536	; 0x10000
 800102c:	2b00      	cmp	r3, #0
 800102e:	d003      	beq.n	8001038 <HAL_GPIO_Init+0x300>
        {
          temp |= iocurrent;
 8001030:	69ba      	ldr	r2, [r7, #24]
 8001032:	693b      	ldr	r3, [r7, #16]
 8001034:	4313      	orrs	r3, r2
 8001036:	61bb      	str	r3, [r7, #24]
        }
        EXTI->IMR = temp;
 8001038:	4a14      	ldr	r2, [pc, #80]	; (800108c <HAL_GPIO_Init+0x354>)
 800103a:	69bb      	ldr	r3, [r7, #24]
 800103c:	6013      	str	r3, [r2, #0]
  for(position = 0U; position < GPIO_NUMBER; position++)
 800103e:	69fb      	ldr	r3, [r7, #28]
 8001040:	3301      	adds	r3, #1
 8001042:	61fb      	str	r3, [r7, #28]
 8001044:	69fb      	ldr	r3, [r7, #28]
 8001046:	2b0f      	cmp	r3, #15
 8001048:	f67f ae84 	bls.w	8000d54 <HAL_GPIO_Init+0x1c>
      }
    }
  }
}
 800104c:	bf00      	nop
 800104e:	bf00      	nop
 8001050:	3724      	adds	r7, #36	; 0x24
 8001052:	46bd      	mov	sp, r7
 8001054:	f85d 7b04 	ldr.w	r7, [sp], #4
 8001058:	4770      	bx	lr
 800105a:	bf00      	nop
 800105c:	40023800 	.word	0x40023800
 8001060:	40013800 	.word	0x40013800
 8001064:	40020000 	.word	0x40020000
 8001068:	40020400 	.word	0x40020400
 800106c:	40020800 	.word	0x40020800
 8001070:	40020c00 	.word	0x40020c00
 8001074:	40021000 	.word	0x40021000
 8001078:	40021400 	.word	0x40021400
 800107c:	40021800 	.word	0x40021800
 8001080:	40021c00 	.word	0x40021c00
 8001084:	40022000 	.word	0x40022000
 8001088:	40022400 	.word	0x40022400
 800108c:	40013c00 	.word	0x40013c00

08001090 <HAL_GPIO_ReadPin>:
  * @param  GPIO_Pin specifies the port bit to read.
  *         This parameter can be GPIO_PIN_x where x can be (0..15).
  * @retval The input port pin value.
  */
GPIO_PinState HAL_GPIO_ReadPin(GPIO_TypeDef* GPIOx, uint16_t GPIO_Pin)
{
 8001090:	b480      	push	{r7}
 8001092:	b085      	sub	sp, #20
 8001094:	af00      	add	r7, sp, #0
 8001096:	6078      	str	r0, [r7, #4]
 8001098:	460b      	mov	r3, r1
 800109a:	807b      	strh	r3, [r7, #2]
  GPIO_PinState bitstatus;

  /* Check the parameters */
  assert_param(IS_GPIO_PIN(GPIO_Pin));

  if((GPIOx->IDR & GPIO_Pin) != (uint32_t)GPIO_PIN_RESET)
 800109c:	687b      	ldr	r3, [r7, #4]
 800109e:	691a      	ldr	r2, [r3, #16]
 80010a0:	887b      	ldrh	r3, [r7, #2]
 80010a2:	4013      	ands	r3, r2
 80010a4:	2b00      	cmp	r3, #0
 80010a6:	d002      	beq.n	80010ae <HAL_GPIO_ReadPin+0x1e>
  {
    bitstatus = GPIO_PIN_SET;
 80010a8:	2301      	movs	r3, #1
 80010aa:	73fb      	strb	r3, [r7, #15]
 80010ac:	e001      	b.n	80010b2 <HAL_GPIO_ReadPin+0x22>
  }
  else
  {
    bitstatus = GPIO_PIN_RESET;
 80010ae:	2300      	movs	r3, #0
 80010b0:	73fb      	strb	r3, [r7, #15]
  }
  return bitstatus;
 80010b2:	7bfb      	ldrb	r3, [r7, #15]
}
 80010b4:	4618      	mov	r0, r3
 80010b6:	3714      	adds	r7, #20
 80010b8:	46bd      	mov	sp, r7
 80010ba:	f85d 7b04 	ldr.w	r7, [sp], #4
 80010be:	4770      	bx	lr

080010c0 <HAL_GPIO_WritePin>:
  *            @arg GPIO_PIN_RESET: to clear the port pin
  *            @arg GPIO_PIN_SET: to set the port pin
  * @retval None
  */
void HAL_GPIO_WritePin(GPIO_TypeDef* GPIOx, uint16_t GPIO_Pin, GPIO_PinState PinState)
{
 80010c0:	b480      	push	{r7}
 80010c2:	b083      	sub	sp, #12
 80010c4:	af00      	add	r7, sp, #0
 80010c6:	6078      	str	r0, [r7, #4]
 80010c8:	460b      	mov	r3, r1
 80010ca:	807b      	strh	r3, [r7, #2]
 80010cc:	4613      	mov	r3, r2
 80010ce:	707b      	strb	r3, [r7, #1]
  /* Check the parameters */
  assert_param(IS_GPIO_PIN(GPIO_Pin));
  assert_param(IS_GPIO_PIN_ACTION(PinState));

  if(PinState != GPIO_PIN_RESET)
 80010d0:	787b      	ldrb	r3, [r7, #1]
 80010d2:	2b00      	cmp	r3, #0
 80010d4:	d003      	beq.n	80010de <HAL_GPIO_WritePin+0x1e>
  {
    GPIOx->BSRR = GPIO_Pin;
 80010d6:	887a      	ldrh	r2, [r7, #2]
 80010d8:	687b      	ldr	r3, [r7, #4]
 80010da:	619a      	str	r2, [r3, #24]
  }
  else
  {
    GPIOx->BSRR = (uint32_t)GPIO_Pin << 16U;
  }
}
 80010dc:	e003      	b.n	80010e6 <HAL_GPIO_WritePin+0x26>
    GPIOx->BSRR = (uint32_t)GPIO_Pin << 16U;
 80010de:	887b      	ldrh	r3, [r7, #2]
 80010e0:	041a      	lsls	r2, r3, #16
 80010e2:	687b      	ldr	r3, [r7, #4]
 80010e4:	619a      	str	r2, [r3, #24]
}
 80010e6:	bf00      	nop
 80010e8:	370c      	adds	r7, #12
 80010ea:	46bd      	mov	sp, r7
 80010ec:	f85d 7b04 	ldr.w	r7, [sp], #4
 80010f0:	4770      	bx	lr

080010f2 <HAL_GPIO_TogglePin>:
  *                      x can be (A..I) to select the GPIO peripheral for STM32F40XX and STM32F427X devices.
  * @param  GPIO_Pin Specifies the pins to be toggled.
  * @retval None
  */
void HAL_GPIO_TogglePin(GPIO_TypeDef* GPIOx, uint16_t GPIO_Pin)
{
 80010f2:	b480      	push	{r7}
 80010f4:	b085      	sub	sp, #20
 80010f6:	af00      	add	r7, sp, #0
 80010f8:	6078      	str	r0, [r7, #4]
 80010fa:	460b      	mov	r3, r1
 80010fc:	807b      	strh	r3, [r7, #2]

  /* Check the parameters */
  assert_param(IS_GPIO_PIN(GPIO_Pin));

  /* get current Output Data Register value */
  odr = GPIOx->ODR;
 80010fe:	687b      	ldr	r3, [r7, #4]
 8001100:	695b      	ldr	r3, [r3, #20]
 8001102:	60fb      	str	r3, [r7, #12]

  /* Set selected pins that were at low level, and reset ones that were high */
  GPIOx->BSRR = ((odr & GPIO_Pin) << GPIO_NUMBER) | (~odr & GPIO_Pin);
 8001104:	887a      	ldrh	r2, [r7, #2]
 8001106:	68fb      	ldr	r3, [r7, #12]
 8001108:	4013      	ands	r3, r2
 800110a:	041a      	lsls	r2, r3, #16
 800110c:	68fb      	ldr	r3, [r7, #12]
 800110e:	43d9      	mvns	r1, r3
 8001110:	887b      	ldrh	r3, [r7, #2]
 8001112:	400b      	ands	r3, r1
 8001114:	431a      	orrs	r2, r3
 8001116:	687b      	ldr	r3, [r7, #4]
 8001118:	619a      	str	r2, [r3, #24]
}
 800111a:	bf00      	nop
 800111c:	3714      	adds	r7, #20
 800111e:	46bd      	mov	sp, r7
 8001120:	f85d 7b04 	ldr.w	r7, [sp], #4
 8001124:	4770      	bx	lr
	...

08001128 <HAL_RCC_OscConfig>:
  *         supported by this API. User should request a transition to HSE Off
  *         first and then HSE On or HSE Bypass.
  * @retval HAL status
  */
__weak HAL_StatusTypeDef HAL_RCC_OscConfig(RCC_OscInitTypeDef  *RCC_OscInitStruct)
{
 8001128:	b580      	push	{r7, lr}
 800112a:	b086      	sub	sp, #24
 800112c:	af00      	add	r7, sp, #0
 800112e:	6078      	str	r0, [r7, #4]
  uint32_t tickstart, pll_config;

  /* Check Null pointer */
  if(RCC_OscInitStruct == NULL)
 8001130:	687b      	ldr	r3, [r7, #4]
 8001132:	2b00      	cmp	r3, #0
 8001134:	d101      	bne.n	800113a <HAL_RCC_OscConfig+0x12>
  {
    return HAL_ERROR;
 8001136:	2301      	movs	r3, #1
 8001138:	e267      	b.n	800160a <HAL_RCC_OscConfig+0x4e2>
  }

  /* Check the parameters */
  assert_param(IS_RCC_OSCILLATORTYPE(RCC_OscInitStruct->OscillatorType));
  /*------------------------------- HSE Configuration ------------------------*/
  if(((RCC_OscInitStruct->OscillatorType) & RCC_OSCILLATORTYPE_HSE) == RCC_OSCILLATORTYPE_HSE)
 800113a:	687b      	ldr	r3, [r7, #4]
 800113c:	681b      	ldr	r3, [r3, #0]
 800113e:	f003 0301 	and.w	r3, r3, #1
 8001142:	2b00      	cmp	r3, #0
 8001144:	d075      	beq.n	8001232 <HAL_RCC_OscConfig+0x10a>
  {
    /* Check the parameters */
    assert_param(IS_RCC_HSE(RCC_OscInitStruct->HSEState));
    /* When the HSE is used as system clock or clock source for PLL in these cases HSE will not disabled */
    if((__HAL_RCC_GET_SYSCLK_SOURCE() == RCC_CFGR_SWS_HSE) ||\
 8001146:	4b88      	ldr	r3, [pc, #544]	; (8001368 <HAL_RCC_OscConfig+0x240>)
 8001148:	689b      	ldr	r3, [r3, #8]
 800114a:	f003 030c 	and.w	r3, r3, #12
 800114e:	2b04      	cmp	r3, #4
 8001150:	d00c      	beq.n	800116c <HAL_RCC_OscConfig+0x44>
      ((__HAL_RCC_GET_SYSCLK_SOURCE() == RCC_CFGR_SWS_PLL) && ((RCC->PLLCFGR & RCC_PLLCFGR_PLLSRC) == RCC_PLLCFGR_PLLSRC_HSE)))
 8001152:	4b85      	ldr	r3, [pc, #532]	; (8001368 <HAL_RCC_OscConfig+0x240>)
 8001154:	689b      	ldr	r3, [r3, #8]
 8001156:	f003 030c 	and.w	r3, r3, #12
    if((__HAL_RCC_GET_SYSCLK_SOURCE() == RCC_CFGR_SWS_HSE) ||\
 800115a:	2b08      	cmp	r3, #8
 800115c:	d112      	bne.n	8001184 <HAL_RCC_OscConfig+0x5c>
      ((__HAL_RCC_GET_SYSCLK_SOURCE() == RCC_CFGR_SWS_PLL) && ((RCC->PLLCFGR & RCC_PLLCFGR_PLLSRC) == RCC_PLLCFGR_PLLSRC_HSE)))
 800115e:	4b82      	ldr	r3, [pc, #520]	; (8001368 <HAL_RCC_OscConfig+0x240>)
 8001160:	685b      	ldr	r3, [r3, #4]
 8001162:	f403 0380 	and.w	r3, r3, #4194304	; 0x400000
 8001166:	f5b3 0f80 	cmp.w	r3, #4194304	; 0x400000
 800116a:	d10b      	bne.n	8001184 <HAL_RCC_OscConfig+0x5c>
    {
      if((__HAL_RCC_GET_FLAG(RCC_FLAG_HSERDY) != RESET) && (RCC_OscInitStruct->HSEState == RCC_HSE_OFF))
 800116c:	4b7e      	ldr	r3, [pc, #504]	; (8001368 <HAL_RCC_OscConfig+0x240>)
 800116e:	681b      	ldr	r3, [r3, #0]
 8001170:	f403 3300 	and.w	r3, r3, #131072	; 0x20000
 8001174:	2b00      	cmp	r3, #0
 8001176:	d05b      	beq.n	8001230 <HAL_RCC_OscConfig+0x108>
 8001178:	687b      	ldr	r3, [r7, #4]
 800117a:	685b      	ldr	r3, [r3, #4]
 800117c:	2b00      	cmp	r3, #0
 800117e:	d157      	bne.n	8001230 <HAL_RCC_OscConfig+0x108>
      {
        return HAL_ERROR;
 8001180:	2301      	movs	r3, #1
 8001182:	e242      	b.n	800160a <HAL_RCC_OscConfig+0x4e2>
      }
    }
    else
    {
      /* Set the new HSE configuration ---------------------------------------*/
      __HAL_RCC_HSE_CONFIG(RCC_OscInitStruct->HSEState);
 8001184:	687b      	ldr	r3, [r7, #4]
 8001186:	685b      	ldr	r3, [r3, #4]
 8001188:	f5b3 3f80 	cmp.w	r3, #65536	; 0x10000
 800118c:	d106      	bne.n	800119c <HAL_RCC_OscConfig+0x74>
 800118e:	4b76      	ldr	r3, [pc, #472]	; (8001368 <HAL_RCC_OscConfig+0x240>)
 8001190:	681b      	ldr	r3, [r3, #0]
 8001192:	4a75      	ldr	r2, [pc, #468]	; (8001368 <HAL_RCC_OscConfig+0x240>)
 8001194:	f443 3380 	orr.w	r3, r3, #65536	; 0x10000
 8001198:	6013      	str	r3, [r2, #0]
 800119a:	e01d      	b.n	80011d8 <HAL_RCC_OscConfig+0xb0>
 800119c:	687b      	ldr	r3, [r7, #4]
 800119e:	685b      	ldr	r3, [r3, #4]
 80011a0:	f5b3 2fa0 	cmp.w	r3, #327680	; 0x50000
 80011a4:	d10c      	bne.n	80011c0 <HAL_RCC_OscConfig+0x98>
 80011a6:	4b70      	ldr	r3, [pc, #448]	; (8001368 <HAL_RCC_OscConfig+0x240>)
 80011a8:	681b      	ldr	r3, [r3, #0]
 80011aa:	4a6f      	ldr	r2, [pc, #444]	; (8001368 <HAL_RCC_OscConfig+0x240>)
 80011ac:	f443 2380 	orr.w	r3, r3, #262144	; 0x40000
 80011b0:	6013      	str	r3, [r2, #0]
 80011b2:	4b6d      	ldr	r3, [pc, #436]	; (8001368 <HAL_RCC_OscConfig+0x240>)
 80011b4:	681b      	ldr	r3, [r3, #0]
 80011b6:	4a6c      	ldr	r2, [pc, #432]	; (8001368 <HAL_RCC_OscConfig+0x240>)
 80011b8:	f443 3380 	orr.w	r3, r3, #65536	; 0x10000
 80011bc:	6013      	str	r3, [r2, #0]
 80011be:	e00b      	b.n	80011d8 <HAL_RCC_OscConfig+0xb0>
 80011c0:	4b69      	ldr	r3, [pc, #420]	; (8001368 <HAL_RCC_OscConfig+0x240>)
 80011c2:	681b      	ldr	r3, [r3, #0]
 80011c4:	4a68      	ldr	r2, [pc, #416]	; (8001368 <HAL_RCC_OscConfig+0x240>)
 80011c6:	f423 3380 	bic.w	r3, r3, #65536	; 0x10000
 80011ca:	6013      	str	r3, [r2, #0]
 80011cc:	4b66      	ldr	r3, [pc, #408]	; (8001368 <HAL_RCC_OscConfig+0x240>)
 80011ce:	681b      	ldr	r3, [r3, #0]
 80011d0:	4a65      	ldr	r2, [pc, #404]	; (8001368 <HAL_RCC_OscConfig+0x240>)
 80011d2:	f423 2380 	bic.w	r3, r3, #262144	; 0x40000
 80011d6:	6013      	str	r3, [r2, #0]

      /* Check the HSE State */
      if((RCC_OscInitStruct->HSEState) != RCC_HSE_OFF)
 80011d8:	687b      	ldr	r3, [r7, #4]
 80011da:	685b      	ldr	r3, [r3, #4]
 80011dc:	2b00      	cmp	r3, #0
 80011de:	d013      	beq.n	8001208 <HAL_RCC_OscConfig+0xe0>
      {
        /* Get Start Tick */
        tickstart = HAL_GetTick();
 80011e0:	f7ff fc94 	bl	8000b0c <HAL_GetTick>
 80011e4:	6138      	str	r0, [r7, #16]

        /* Wait till HSE is ready */
        while(__HAL_RCC_GET_FLAG(RCC_FLAG_HSERDY) == RESET)
 80011e6:	e008      	b.n	80011fa <HAL_RCC_OscConfig+0xd2>
        {
          if((HAL_GetTick() - tickstart ) > HSE_TIMEOUT_VALUE)
 80011e8:	f7ff fc90 	bl	8000b0c <HAL_GetTick>
 80011ec:	4602      	mov	r2, r0
 80011ee:	693b      	ldr	r3, [r7, #16]
 80011f0:	1ad3      	subs	r3, r2, r3
 80011f2:	2b64      	cmp	r3, #100	; 0x64
 80011f4:	d901      	bls.n	80011fa <HAL_RCC_OscConfig+0xd2>
          {
            return HAL_TIMEOUT;
 80011f6:	2303      	movs	r3, #3
 80011f8:	e207      	b.n	800160a <HAL_RCC_OscConfig+0x4e2>
        while(__HAL_RCC_GET_FLAG(RCC_FLAG_HSERDY) == RESET)
 80011fa:	4b5b      	ldr	r3, [pc, #364]	; (8001368 <HAL_RCC_OscConfig+0x240>)
 80011fc:	681b      	ldr	r3, [r3, #0]
 80011fe:	f403 3300 	and.w	r3, r3, #131072	; 0x20000
 8001202:	2b00      	cmp	r3, #0
 8001204:	d0f0      	beq.n	80011e8 <HAL_RCC_OscConfig+0xc0>
 8001206:	e014      	b.n	8001232 <HAL_RCC_OscConfig+0x10a>
        }
      }
      else
      {
        /* Get Start Tick */
        tickstart = HAL_GetTick();
 8001208:	f7ff fc80 	bl	8000b0c <HAL_GetTick>
 800120c:	6138      	str	r0, [r7, #16]

        /* Wait till HSE is bypassed or disabled */
        while(__HAL_RCC_GET_FLAG(RCC_FLAG_HSERDY) != RESET)
 800120e:	e008      	b.n	8001222 <HAL_RCC_OscConfig+0xfa>
        {
          if((HAL_GetTick() - tickstart ) > HSE_TIMEOUT_VALUE)
 8001210:	f7ff fc7c 	bl	8000b0c <HAL_GetTick>
 8001214:	4602      	mov	r2, r0
 8001216:	693b      	ldr	r3, [r7, #16]
 8001218:	1ad3      	subs	r3, r2, r3
 800121a:	2b64      	cmp	r3, #100	; 0x64
 800121c:	d901      	bls.n	8001222 <HAL_RCC_OscConfig+0xfa>
          {
            return HAL_TIMEOUT;
 800121e:	2303      	movs	r3, #3
 8001220:	e1f3      	b.n	800160a <HAL_RCC_OscConfig+0x4e2>
        while(__HAL_RCC_GET_FLAG(RCC_FLAG_HSERDY) != RESET)
 8001222:	4b51      	ldr	r3, [pc, #324]	; (8001368 <HAL_RCC_OscConfig+0x240>)
 8001224:	681b      	ldr	r3, [r3, #0]
 8001226:	f403 3300 	and.w	r3, r3, #131072	; 0x20000
 800122a:	2b00      	cmp	r3, #0
 800122c:	d1f0      	bne.n	8001210 <HAL_RCC_OscConfig+0xe8>
 800122e:	e000      	b.n	8001232 <HAL_RCC_OscConfig+0x10a>
      if((__HAL_RCC_GET_FLAG(RCC_FLAG_HSERDY) != RESET) && (RCC_OscInitStruct->HSEState == RCC_HSE_OFF))
 8001230:	bf00      	nop
        }
      }
    }
  }
  /*----------------------------- HSI Configuration --------------------------*/
  if(((RCC_OscInitStruct->OscillatorType) & RCC_OSCILLATORTYPE_HSI) == RCC_OSCILLATORTYPE_HSI)
 8001232:	687b      	ldr	r3, [r7, #4]
 8001234:	681b      	ldr	r3, [r3, #0]
 8001236:	f003 0302 	and.w	r3, r3, #2
 800123a:	2b00      	cmp	r3, #0
 800123c:	d063      	beq.n	8001306 <HAL_RCC_OscConfig+0x1de>
    /* Check the parameters */
    assert_param(IS_RCC_HSI(RCC_OscInitStruct->HSIState));
    assert_param(IS_RCC_CALIBRATION_VALUE(RCC_OscInitStruct->HSICalibrationValue));

    /* Check if HSI is used as system clock or as PLL source when PLL is selected as system clock */
    if((__HAL_RCC_GET_SYSCLK_SOURCE() == RCC_CFGR_SWS_HSI) ||\
 800123e:	4b4a      	ldr	r3, [pc, #296]	; (8001368 <HAL_RCC_OscConfig+0x240>)
 8001240:	689b      	ldr	r3, [r3, #8]
 8001242:	f003 030c 	and.w	r3, r3, #12
 8001246:	2b00      	cmp	r3, #0
 8001248:	d00b      	beq.n	8001262 <HAL_RCC_OscConfig+0x13a>
      ((__HAL_RCC_GET_SYSCLK_SOURCE() == RCC_CFGR_SWS_PLL) && ((RCC->PLLCFGR & RCC_PLLCFGR_PLLSRC) == RCC_PLLCFGR_PLLSRC_HSI)))
 800124a:	4b47      	ldr	r3, [pc, #284]	; (8001368 <HAL_RCC_OscConfig+0x240>)
 800124c:	689b      	ldr	r3, [r3, #8]
 800124e:	f003 030c 	and.w	r3, r3, #12
    if((__HAL_RCC_GET_SYSCLK_SOURCE() == RCC_CFGR_SWS_HSI) ||\
 8001252:	2b08      	cmp	r3, #8
 8001254:	d11c      	bne.n	8001290 <HAL_RCC_OscConfig+0x168>
      ((__HAL_RCC_GET_SYSCLK_SOURCE() == RCC_CFGR_SWS_PLL) && ((RCC->PLLCFGR & RCC_PLLCFGR_PLLSRC) == RCC_PLLCFGR_PLLSRC_HSI)))
 8001256:	4b44      	ldr	r3, [pc, #272]	; (8001368 <HAL_RCC_OscConfig+0x240>)
 8001258:	685b      	ldr	r3, [r3, #4]
 800125a:	f403 0380 	and.w	r3, r3, #4194304	; 0x400000
 800125e:	2b00      	cmp	r3, #0
 8001260:	d116      	bne.n	8001290 <HAL_RCC_OscConfig+0x168>
    {
      /* When HSI is used as system clock it will not disabled */
      if((__HAL_RCC_GET_FLAG(RCC_FLAG_HSIRDY) != RESET) && (RCC_OscInitStruct->HSIState != RCC_HSI_ON))
 8001262:	4b41      	ldr	r3, [pc, #260]	; (8001368 <HAL_RCC_OscConfig+0x240>)
 8001264:	681b      	ldr	r3, [r3, #0]
 8001266:	f003 0302 	and.w	r3, r3, #2
 800126a:	2b00      	cmp	r3, #0
 800126c:	d005      	beq.n	800127a <HAL_RCC_OscConfig+0x152>
 800126e:	687b      	ldr	r3, [r7, #4]
 8001270:	68db      	ldr	r3, [r3, #12]
 8001272:	2b01      	cmp	r3, #1
 8001274:	d001      	beq.n	800127a <HAL_RCC_OscConfig+0x152>
      {
        return HAL_ERROR;
 8001276:	2301      	movs	r3, #1
 8001278:	e1c7      	b.n	800160a <HAL_RCC_OscConfig+0x4e2>
      }
      /* Otherwise, just the calibration is allowed */
      else
      {
        /* Adjusts the Internal High Speed oscillator (HSI) calibration value.*/
        __HAL_RCC_HSI_CALIBRATIONVALUE_ADJUST(RCC_OscInitStruct->HSICalibrationValue);
 800127a:	4b3b      	ldr	r3, [pc, #236]	; (8001368 <HAL_RCC_OscConfig+0x240>)
 800127c:	681b      	ldr	r3, [r3, #0]
 800127e:	f023 02f8 	bic.w	r2, r3, #248	; 0xf8
 8001282:	687b      	ldr	r3, [r7, #4]
 8001284:	691b      	ldr	r3, [r3, #16]
 8001286:	00db      	lsls	r3, r3, #3
 8001288:	4937      	ldr	r1, [pc, #220]	; (8001368 <HAL_RCC_OscConfig+0x240>)
 800128a:	4313      	orrs	r3, r2
 800128c:	600b      	str	r3, [r1, #0]
      if((__HAL_RCC_GET_FLAG(RCC_FLAG_HSIRDY) != RESET) && (RCC_OscInitStruct->HSIState != RCC_HSI_ON))
 800128e:	e03a      	b.n	8001306 <HAL_RCC_OscConfig+0x1de>
      }
    }
    else
    {
      /* Check the HSI State */
      if((RCC_OscInitStruct->HSIState)!= RCC_HSI_OFF)
 8001290:	687b      	ldr	r3, [r7, #4]
 8001292:	68db      	ldr	r3, [r3, #12]
 8001294:	2b00      	cmp	r3, #0
 8001296:	d020      	beq.n	80012da <HAL_RCC_OscConfig+0x1b2>
      {
        /* Enable the Internal High Speed oscillator (HSI). */
        __HAL_RCC_HSI_ENABLE();
 8001298:	4b34      	ldr	r3, [pc, #208]	; (800136c <HAL_RCC_OscConfig+0x244>)
 800129a:	2201      	movs	r2, #1
 800129c:	601a      	str	r2, [r3, #0]

        /* Get Start Tick*/
        tickstart = HAL_GetTick();
 800129e:	f7ff fc35 	bl	8000b0c <HAL_GetTick>
 80012a2:	6138      	str	r0, [r7, #16]

        /* Wait till HSI is ready */
        while(__HAL_RCC_GET_FLAG(RCC_FLAG_HSIRDY) == RESET)
 80012a4:	e008      	b.n	80012b8 <HAL_RCC_OscConfig+0x190>
        {
          if((HAL_GetTick() - tickstart ) > HSI_TIMEOUT_VALUE)
 80012a6:	f7ff fc31 	bl	8000b0c <HAL_GetTick>
 80012aa:	4602      	mov	r2, r0
 80012ac:	693b      	ldr	r3, [r7, #16]
 80012ae:	1ad3      	subs	r3, r2, r3
 80012b0:	2b02      	cmp	r3, #2
 80012b2:	d901      	bls.n	80012b8 <HAL_RCC_OscConfig+0x190>
          {
            return HAL_TIMEOUT;
 80012b4:	2303      	movs	r3, #3
 80012b6:	e1a8      	b.n	800160a <HAL_RCC_OscConfig+0x4e2>
        while(__HAL_RCC_GET_FLAG(RCC_FLAG_HSIRDY) == RESET)
 80012b8:	4b2b      	ldr	r3, [pc, #172]	; (8001368 <HAL_RCC_OscConfig+0x240>)
 80012ba:	681b      	ldr	r3, [r3, #0]
 80012bc:	f003 0302 	and.w	r3, r3, #2
 80012c0:	2b00      	cmp	r3, #0
 80012c2:	d0f0      	beq.n	80012a6 <HAL_RCC_OscConfig+0x17e>
          }
        }

        /* Adjusts the Internal High Speed oscillator (HSI) calibration value. */
        __HAL_RCC_HSI_CALIBRATIONVALUE_ADJUST(RCC_OscInitStruct->HSICalibrationValue);
 80012c4:	4b28      	ldr	r3, [pc, #160]	; (8001368 <HAL_RCC_OscConfig+0x240>)
 80012c6:	681b      	ldr	r3, [r3, #0]
 80012c8:	f023 02f8 	bic.w	r2, r3, #248	; 0xf8
 80012cc:	687b      	ldr	r3, [r7, #4]
 80012ce:	691b      	ldr	r3, [r3, #16]
 80012d0:	00db      	lsls	r3, r3, #3
 80012d2:	4925      	ldr	r1, [pc, #148]	; (8001368 <HAL_RCC_OscConfig+0x240>)
 80012d4:	4313      	orrs	r3, r2
 80012d6:	600b      	str	r3, [r1, #0]
 80012d8:	e015      	b.n	8001306 <HAL_RCC_OscConfig+0x1de>
      }
      else
      {
        /* Disable the Internal High Speed oscillator (HSI). */
        __HAL_RCC_HSI_DISABLE();
 80012da:	4b24      	ldr	r3, [pc, #144]	; (800136c <HAL_RCC_OscConfig+0x244>)
 80012dc:	2200      	movs	r2, #0
 80012de:	601a      	str	r2, [r3, #0]

        /* Get Start Tick*/
        tickstart = HAL_GetTick();
 80012e0:	f7ff fc14 	bl	8000b0c <HAL_GetTick>
 80012e4:	6138      	str	r0, [r7, #16]

        /* Wait till HSI is ready */
        while(__HAL_RCC_GET_FLAG(RCC_FLAG_HSIRDY) != RESET)
 80012e6:	e008      	b.n	80012fa <HAL_RCC_OscConfig+0x1d2>
        {
          if((HAL_GetTick() - tickstart ) > HSI_TIMEOUT_VALUE)
 80012e8:	f7ff fc10 	bl	8000b0c <HAL_GetTick>
 80012ec:	4602      	mov	r2, r0
 80012ee:	693b      	ldr	r3, [r7, #16]
 80012f0:	1ad3      	subs	r3, r2, r3
 80012f2:	2b02      	cmp	r3, #2
 80012f4:	d901      	bls.n	80012fa <HAL_RCC_OscConfig+0x1d2>
          {
            return HAL_TIMEOUT;
 80012f6:	2303      	movs	r3, #3
 80012f8:	e187      	b.n	800160a <HAL_RCC_OscConfig+0x4e2>
        while(__HAL_RCC_GET_FLAG(RCC_FLAG_HSIRDY) != RESET)
 80012fa:	4b1b      	ldr	r3, [pc, #108]	; (8001368 <HAL_RCC_OscConfig+0x240>)
 80012fc:	681b      	ldr	r3, [r3, #0]
 80012fe:	f003 0302 	and.w	r3, r3, #2
 8001302:	2b00      	cmp	r3, #0
 8001304:	d1f0      	bne.n	80012e8 <HAL_RCC_OscConfig+0x1c0>
        }
      }
    }
  }
  /*------------------------------ LSI Configuration -------------------------*/
  if(((RCC_OscInitStruct->OscillatorType) & RCC_OSCILLATORTYPE_LSI) == RCC_OSCILLATORTYPE_LSI)
 8001306:	687b      	ldr	r3, [r7, #4]
 8001308:	681b      	ldr	r3, [r3, #0]
 800130a:	f003 0308 	and.w	r3, r3, #8
 800130e:	2b00      	cmp	r3, #0
 8001310:	d036      	beq.n	8001380 <HAL_RCC_OscConfig+0x258>
  {
    /* Check the parameters */
    assert_param(IS_RCC_LSI(RCC_OscInitStruct->LSIState));

    /* Check the LSI State */
    if((RCC_OscInitStruct->LSIState)!= RCC_LSI_OFF)
 8001312:	687b      	ldr	r3, [r7, #4]
 8001314:	695b      	ldr	r3, [r3, #20]
 8001316:	2b00      	cmp	r3, #0
 8001318:	d016      	beq.n	8001348 <HAL_RCC_OscConfig+0x220>
    {
      /* Enable the Internal Low Speed oscillator (LSI). */
      __HAL_RCC_LSI_ENABLE();
 800131a:	4b15      	ldr	r3, [pc, #84]	; (8001370 <HAL_RCC_OscConfig+0x248>)
 800131c:	2201      	movs	r2, #1
 800131e:	601a      	str	r2, [r3, #0]

      /* Get Start Tick*/
      tickstart = HAL_GetTick();
 8001320:	f7ff fbf4 	bl	8000b0c <HAL_GetTick>
 8001324:	6138      	str	r0, [r7, #16]

      /* Wait till LSI is ready */
      while(__HAL_RCC_GET_FLAG(RCC_FLAG_LSIRDY) == RESET)
 8001326:	e008      	b.n	800133a <HAL_RCC_OscConfig+0x212>
      {
        if((HAL_GetTick() - tickstart ) > LSI_TIMEOUT_VALUE)
 8001328:	f7ff fbf0 	bl	8000b0c <HAL_GetTick>
 800132c:	4602      	mov	r2, r0
 800132e:	693b      	ldr	r3, [r7, #16]
 8001330:	1ad3      	subs	r3, r2, r3
 8001332:	2b02      	cmp	r3, #2
 8001334:	d901      	bls.n	800133a <HAL_RCC_OscConfig+0x212>
        {
          return HAL_TIMEOUT;
 8001336:	2303      	movs	r3, #3
 8001338:	e167      	b.n	800160a <HAL_RCC_OscConfig+0x4e2>
      while(__HAL_RCC_GET_FLAG(RCC_FLAG_LSIRDY) == RESET)
 800133a:	4b0b      	ldr	r3, [pc, #44]	; (8001368 <HAL_RCC_OscConfig+0x240>)
 800133c:	6f5b      	ldr	r3, [r3, #116]	; 0x74
 800133e:	f003 0302 	and.w	r3, r3, #2
 8001342:	2b00      	cmp	r3, #0
 8001344:	d0f0      	beq.n	8001328 <HAL_RCC_OscConfig+0x200>
 8001346:	e01b      	b.n	8001380 <HAL_RCC_OscConfig+0x258>
      }
    }
    else
    {
      /* Disable the Internal Low Speed oscillator (LSI). */
      __HAL_RCC_LSI_DISABLE();
 8001348:	4b09      	ldr	r3, [pc, #36]	; (8001370 <HAL_RCC_OscConfig+0x248>)
 800134a:	2200      	movs	r2, #0
 800134c:	601a      	str	r2, [r3, #0]

      /* Get Start Tick */
      tickstart = HAL_GetTick();
 800134e:	f7ff fbdd 	bl	8000b0c <HAL_GetTick>
 8001352:	6138      	str	r0, [r7, #16]

      /* Wait till LSI is ready */
      while(__HAL_RCC_GET_FLAG(RCC_FLAG_LSIRDY) != RESET)
 8001354:	e00e      	b.n	8001374 <HAL_RCC_OscConfig+0x24c>
      {
        if((HAL_GetTick() - tickstart ) > LSI_TIMEOUT_VALUE)
 8001356:	f7ff fbd9 	bl	8000b0c <HAL_GetTick>
 800135a:	4602      	mov	r2, r0
 800135c:	693b      	ldr	r3, [r7, #16]
 800135e:	1ad3      	subs	r3, r2, r3
 8001360:	2b02      	cmp	r3, #2
 8001362:	d907      	bls.n	8001374 <HAL_RCC_OscConfig+0x24c>
        {
          return HAL_TIMEOUT;
 8001364:	2303      	movs	r3, #3
 8001366:	e150      	b.n	800160a <HAL_RCC_OscConfig+0x4e2>
 8001368:	40023800 	.word	0x40023800
 800136c:	42470000 	.word	0x42470000
 8001370:	42470e80 	.word	0x42470e80
      while(__HAL_RCC_GET_FLAG(RCC_FLAG_LSIRDY) != RESET)
 8001374:	4b88      	ldr	r3, [pc, #544]	; (8001598 <HAL_RCC_OscConfig+0x470>)
 8001376:	6f5b      	ldr	r3, [r3, #116]	; 0x74
 8001378:	f003 0302 	and.w	r3, r3, #2
 800137c:	2b00      	cmp	r3, #0
 800137e:	d1ea      	bne.n	8001356 <HAL_RCC_OscConfig+0x22e>
        }
      }
    }
  }
  /*------------------------------ LSE Configuration -------------------------*/
  if(((RCC_OscInitStruct->OscillatorType) & RCC_OSCILLATORTYPE_LSE) == RCC_OSCILLATORTYPE_LSE)
 8001380:	687b      	ldr	r3, [r7, #4]
 8001382:	681b      	ldr	r3, [r3, #0]
 8001384:	f003 0304 	and.w	r3, r3, #4
 8001388:	2b00      	cmp	r3, #0
 800138a:	f000 8097 	beq.w	80014bc <HAL_RCC_OscConfig+0x394>
  {
    FlagStatus       pwrclkchanged = RESET;
 800138e:	2300      	movs	r3, #0
 8001390:	75fb      	strb	r3, [r7, #23]
    /* Check the parameters */
    assert_param(IS_RCC_LSE(RCC_OscInitStruct->LSEState));

    /* Update LSE configuration in Backup Domain control register    */
    /* Requires to enable write access to Backup Domain of necessary */
    if(__HAL_RCC_PWR_IS_CLK_DISABLED())
 8001392:	4b81      	ldr	r3, [pc, #516]	; (8001598 <HAL_RCC_OscConfig+0x470>)
 8001394:	6c1b      	ldr	r3, [r3, #64]	; 0x40
 8001396:	f003 5380 	and.w	r3, r3, #268435456	; 0x10000000
 800139a:	2b00      	cmp	r3, #0
 800139c:	d10f      	bne.n	80013be <HAL_RCC_OscConfig+0x296>
    {
      __HAL_RCC_PWR_CLK_ENABLE();
 800139e:	2300      	movs	r3, #0
 80013a0:	60bb      	str	r3, [r7, #8]
 80013a2:	4b7d      	ldr	r3, [pc, #500]	; (8001598 <HAL_RCC_OscConfig+0x470>)
 80013a4:	6c1b      	ldr	r3, [r3, #64]	; 0x40
 80013a6:	4a7c      	ldr	r2, [pc, #496]	; (8001598 <HAL_RCC_OscConfig+0x470>)
 80013a8:	f043 5380 	orr.w	r3, r3, #268435456	; 0x10000000
 80013ac:	6413      	str	r3, [r2, #64]	; 0x40
 80013ae:	4b7a      	ldr	r3, [pc, #488]	; (8001598 <HAL_RCC_OscConfig+0x470>)
 80013b0:	6c1b      	ldr	r3, [r3, #64]	; 0x40
 80013b2:	f003 5380 	and.w	r3, r3, #268435456	; 0x10000000
 80013b6:	60bb      	str	r3, [r7, #8]
 80013b8:	68bb      	ldr	r3, [r7, #8]
      pwrclkchanged = SET;
 80013ba:	2301      	movs	r3, #1
 80013bc:	75fb      	strb	r3, [r7, #23]
    }

    if(HAL_IS_BIT_CLR(PWR->CR, PWR_CR_DBP))
 80013be:	4b77      	ldr	r3, [pc, #476]	; (800159c <HAL_RCC_OscConfig+0x474>)
 80013c0:	681b      	ldr	r3, [r3, #0]
 80013c2:	f403 7380 	and.w	r3, r3, #256	; 0x100
 80013c6:	2b00      	cmp	r3, #0
 80013c8:	d118      	bne.n	80013fc <HAL_RCC_OscConfig+0x2d4>
    {
      /* Enable write access to Backup domain */
      SET_BIT(PWR->CR, PWR_CR_DBP);
 80013ca:	4b74      	ldr	r3, [pc, #464]	; (800159c <HAL_RCC_OscConfig+0x474>)
 80013cc:	681b      	ldr	r3, [r3, #0]
 80013ce:	4a73      	ldr	r2, [pc, #460]	; (800159c <HAL_RCC_OscConfig+0x474>)
 80013d0:	f443 7380 	orr.w	r3, r3, #256	; 0x100
 80013d4:	6013      	str	r3, [r2, #0]

      /* Wait for Backup domain Write protection disable */
      tickstart = HAL_GetTick();
 80013d6:	f7ff fb99 	bl	8000b0c <HAL_GetTick>
 80013da:	6138      	str	r0, [r7, #16]

      while(HAL_IS_BIT_CLR(PWR->CR, PWR_CR_DBP))
 80013dc:	e008      	b.n	80013f0 <HAL_RCC_OscConfig+0x2c8>
      {
        if((HAL_GetTick() - tickstart) > RCC_DBP_TIMEOUT_VALUE)
 80013de:	f7ff fb95 	bl	8000b0c <HAL_GetTick>
 80013e2:	4602      	mov	r2, r0
 80013e4:	693b      	ldr	r3, [r7, #16]
 80013e6:	1ad3      	subs	r3, r2, r3
 80013e8:	2b02      	cmp	r3, #2
 80013ea:	d901      	bls.n	80013f0 <HAL_RCC_OscConfig+0x2c8>
        {
          return HAL_TIMEOUT;
 80013ec:	2303      	movs	r3, #3
 80013ee:	e10c      	b.n	800160a <HAL_RCC_OscConfig+0x4e2>
      while(HAL_IS_BIT_CLR(PWR->CR, PWR_CR_DBP))
 80013f0:	4b6a      	ldr	r3, [pc, #424]	; (800159c <HAL_RCC_OscConfig+0x474>)
 80013f2:	681b      	ldr	r3, [r3, #0]
 80013f4:	f403 7380 	and.w	r3, r3, #256	; 0x100
 80013f8:	2b00      	cmp	r3, #0
 80013fa:	d0f0      	beq.n	80013de <HAL_RCC_OscConfig+0x2b6>
        }
      }
    }

    /* Set the new LSE configuration -----------------------------------------*/
    __HAL_RCC_LSE_CONFIG(RCC_OscInitStruct->LSEState);
 80013fc:	687b      	ldr	r3, [r7, #4]
 80013fe:	689b      	ldr	r3, [r3, #8]
 8001400:	2b01      	cmp	r3, #1
 8001402:	d106      	bne.n	8001412 <HAL_RCC_OscConfig+0x2ea>
 8001404:	4b64      	ldr	r3, [pc, #400]	; (8001598 <HAL_RCC_OscConfig+0x470>)
 8001406:	6f1b      	ldr	r3, [r3, #112]	; 0x70
 8001408:	4a63      	ldr	r2, [pc, #396]	; (8001598 <HAL_RCC_OscConfig+0x470>)
 800140a:	f043 0301 	orr.w	r3, r3, #1
 800140e:	6713      	str	r3, [r2, #112]	; 0x70
 8001410:	e01c      	b.n	800144c <HAL_RCC_OscConfig+0x324>
 8001412:	687b      	ldr	r3, [r7, #4]
 8001414:	689b      	ldr	r3, [r3, #8]
 8001416:	2b05      	cmp	r3, #5
 8001418:	d10c      	bne.n	8001434 <HAL_RCC_OscConfig+0x30c>
 800141a:	4b5f      	ldr	r3, [pc, #380]	; (8001598 <HAL_RCC_OscConfig+0x470>)
 800141c:	6f1b      	ldr	r3, [r3, #112]	; 0x70
 800141e:	4a5e      	ldr	r2, [pc, #376]	; (8001598 <HAL_RCC_OscConfig+0x470>)
 8001420:	f043 0304 	orr.w	r3, r3, #4
 8001424:	6713      	str	r3, [r2, #112]	; 0x70
 8001426:	4b5c      	ldr	r3, [pc, #368]	; (8001598 <HAL_RCC_OscConfig+0x470>)
 8001428:	6f1b      	ldr	r3, [r3, #112]	; 0x70
 800142a:	4a5b      	ldr	r2, [pc, #364]	; (8001598 <HAL_RCC_OscConfig+0x470>)
 800142c:	f043 0301 	orr.w	r3, r3, #1
 8001430:	6713      	str	r3, [r2, #112]	; 0x70
 8001432:	e00b      	b.n	800144c <HAL_RCC_OscConfig+0x324>
 8001434:	4b58      	ldr	r3, [pc, #352]	; (8001598 <HAL_RCC_OscConfig+0x470>)
 8001436:	6f1b      	ldr	r3, [r3, #112]	; 0x70
 8001438:	4a57      	ldr	r2, [pc, #348]	; (8001598 <HAL_RCC_OscConfig+0x470>)
 800143a:	f023 0301 	bic.w	r3, r3, #1
 800143e:	6713      	str	r3, [r2, #112]	; 0x70
 8001440:	4b55      	ldr	r3, [pc, #340]	; (8001598 <HAL_RCC_OscConfig+0x470>)
 8001442:	6f1b      	ldr	r3, [r3, #112]	; 0x70
 8001444:	4a54      	ldr	r2, [pc, #336]	; (8001598 <HAL_RCC_OscConfig+0x470>)
 8001446:	f023 0304 	bic.w	r3, r3, #4
 800144a:	6713      	str	r3, [r2, #112]	; 0x70
    /* Check the LSE State */
    if((RCC_OscInitStruct->LSEState) != RCC_LSE_OFF)
 800144c:	687b      	ldr	r3, [r7, #4]
 800144e:	689b      	ldr	r3, [r3, #8]
 8001450:	2b00      	cmp	r3, #0
 8001452:	d015      	beq.n	8001480 <HAL_RCC_OscConfig+0x358>
    {
      /* Get Start Tick*/
      tickstart = HAL_GetTick();
 8001454:	f7ff fb5a 	bl	8000b0c <HAL_GetTick>
 8001458:	6138      	str	r0, [r7, #16]

      /* Wait till LSE is ready */
      while(__HAL_RCC_GET_FLAG(RCC_FLAG_LSERDY) == RESET)
 800145a:	e00a      	b.n	8001472 <HAL_RCC_OscConfig+0x34a>
      {
        if((HAL_GetTick() - tickstart ) > RCC_LSE_TIMEOUT_VALUE)
 800145c:	f7ff fb56 	bl	8000b0c <HAL_GetTick>
 8001460:	4602      	mov	r2, r0
 8001462:	693b      	ldr	r3, [r7, #16]
 8001464:	1ad3      	subs	r3, r2, r3
 8001466:	f241 3288 	movw	r2, #5000	; 0x1388
 800146a:	4293      	cmp	r3, r2
 800146c:	d901      	bls.n	8001472 <HAL_RCC_OscConfig+0x34a>
        {
          return HAL_TIMEOUT;
 800146e:	2303      	movs	r3, #3
 8001470:	e0cb      	b.n	800160a <HAL_RCC_OscConfig+0x4e2>
      while(__HAL_RCC_GET_FLAG(RCC_FLAG_LSERDY) == RESET)
 8001472:	4b49      	ldr	r3, [pc, #292]	; (8001598 <HAL_RCC_OscConfig+0x470>)
 8001474:	6f1b      	ldr	r3, [r3, #112]	; 0x70
 8001476:	f003 0302 	and.w	r3, r3, #2
 800147a:	2b00      	cmp	r3, #0
 800147c:	d0ee      	beq.n	800145c <HAL_RCC_OscConfig+0x334>
 800147e:	e014      	b.n	80014aa <HAL_RCC_OscConfig+0x382>
      }
    }
    else
    {
      /* Get Start Tick */
      tickstart = HAL_GetTick();
 8001480:	f7ff fb44 	bl	8000b0c <HAL_GetTick>
 8001484:	6138      	str	r0, [r7, #16]

      /* Wait till LSE is ready */
      while(__HAL_RCC_GET_FLAG(RCC_FLAG_LSERDY) != RESET)
 8001486:	e00a      	b.n	800149e <HAL_RCC_OscConfig+0x376>
      {
        if((HAL_GetTick() - tickstart ) > RCC_LSE_TIMEOUT_VALUE)
 8001488:	f7ff fb40 	bl	8000b0c <HAL_GetTick>
 800148c:	4602      	mov	r2, r0
 800148e:	693b      	ldr	r3, [r7, #16]
 8001490:	1ad3      	subs	r3, r2, r3
 8001492:	f241 3288 	movw	r2, #5000	; 0x1388
 8001496:	4293      	cmp	r3, r2
 8001498:	d901      	bls.n	800149e <HAL_RCC_OscConfig+0x376>
        {
          return HAL_TIMEOUT;
 800149a:	2303      	movs	r3, #3
 800149c:	e0b5      	b.n	800160a <HAL_RCC_OscConfig+0x4e2>
      while(__HAL_RCC_GET_FLAG(RCC_FLAG_LSERDY) != RESET)
 800149e:	4b3e      	ldr	r3, [pc, #248]	; (8001598 <HAL_RCC_OscConfig+0x470>)
 80014a0:	6f1b      	ldr	r3, [r3, #112]	; 0x70
 80014a2:	f003 0302 	and.w	r3, r3, #2
 80014a6:	2b00      	cmp	r3, #0
 80014a8:	d1ee      	bne.n	8001488 <HAL_RCC_OscConfig+0x360>
        }
      }
    }

    /* Restore clock configuration if changed */
    if(pwrclkchanged == SET)
 80014aa:	7dfb      	ldrb	r3, [r7, #23]
 80014ac:	2b01      	cmp	r3, #1
 80014ae:	d105      	bne.n	80014bc <HAL_RCC_OscConfig+0x394>
    {
      __HAL_RCC_PWR_CLK_DISABLE();
 80014b0:	4b39      	ldr	r3, [pc, #228]	; (8001598 <HAL_RCC_OscConfig+0x470>)
 80014b2:	6c1b      	ldr	r3, [r3, #64]	; 0x40
 80014b4:	4a38      	ldr	r2, [pc, #224]	; (8001598 <HAL_RCC_OscConfig+0x470>)
 80014b6:	f023 5380 	bic.w	r3, r3, #268435456	; 0x10000000
 80014ba:	6413      	str	r3, [r2, #64]	; 0x40
    }
  }
  /*-------------------------------- PLL Configuration -----------------------*/
  /* Check the parameters */
  assert_param(IS_RCC_PLL(RCC_OscInitStruct->PLL.PLLState));
  if ((RCC_OscInitStruct->PLL.PLLState) != RCC_PLL_NONE)
 80014bc:	687b      	ldr	r3, [r7, #4]
 80014be:	699b      	ldr	r3, [r3, #24]
 80014c0:	2b00      	cmp	r3, #0
 80014c2:	f000 80a1 	beq.w	8001608 <HAL_RCC_OscConfig+0x4e0>
  {
    /* Check if the PLL is used as system clock or not */
    if(__HAL_RCC_GET_SYSCLK_SOURCE() != RCC_CFGR_SWS_PLL)
 80014c6:	4b34      	ldr	r3, [pc, #208]	; (8001598 <HAL_RCC_OscConfig+0x470>)
 80014c8:	689b      	ldr	r3, [r3, #8]
 80014ca:	f003 030c 	and.w	r3, r3, #12
 80014ce:	2b08      	cmp	r3, #8
 80014d0:	d05c      	beq.n	800158c <HAL_RCC_OscConfig+0x464>
    {
      if((RCC_OscInitStruct->PLL.PLLState) == RCC_PLL_ON)
 80014d2:	687b      	ldr	r3, [r7, #4]
 80014d4:	699b      	ldr	r3, [r3, #24]
 80014d6:	2b02      	cmp	r3, #2
 80014d8:	d141      	bne.n	800155e <HAL_RCC_OscConfig+0x436>
        assert_param(IS_RCC_PLLN_VALUE(RCC_OscInitStruct->PLL.PLLN));
        assert_param(IS_RCC_PLLP_VALUE(RCC_OscInitStruct->PLL.PLLP));
        assert_param(IS_RCC_PLLQ_VALUE(RCC_OscInitStruct->PLL.PLLQ));

        /* Disable the main PLL. */
        __HAL_RCC_PLL_DISABLE();
 80014da:	4b31      	ldr	r3, [pc, #196]	; (80015a0 <HAL_RCC_OscConfig+0x478>)
 80014dc:	2200      	movs	r2, #0
 80014de:	601a      	str	r2, [r3, #0]

        /* Get Start Tick */
        tickstart = HAL_GetTick();
 80014e0:	f7ff fb14 	bl	8000b0c <HAL_GetTick>
 80014e4:	6138      	str	r0, [r7, #16]

        /* Wait till PLL is ready */
        while(__HAL_RCC_GET_FLAG(RCC_FLAG_PLLRDY) != RESET)
 80014e6:	e008      	b.n	80014fa <HAL_RCC_OscConfig+0x3d2>
        {
          if((HAL_GetTick() - tickstart ) > PLL_TIMEOUT_VALUE)
 80014e8:	f7ff fb10 	bl	8000b0c <HAL_GetTick>
 80014ec:	4602      	mov	r2, r0
 80014ee:	693b      	ldr	r3, [r7, #16]
 80014f0:	1ad3      	subs	r3, r2, r3
 80014f2:	2b02      	cmp	r3, #2
 80014f4:	d901      	bls.n	80014fa <HAL_RCC_OscConfig+0x3d2>
          {
            return HAL_TIMEOUT;
 80014f6:	2303      	movs	r3, #3
 80014f8:	e087      	b.n	800160a <HAL_RCC_OscConfig+0x4e2>
        while(__HAL_RCC_GET_FLAG(RCC_FLAG_PLLRDY) != RESET)
 80014fa:	4b27      	ldr	r3, [pc, #156]	; (8001598 <HAL_RCC_OscConfig+0x470>)
 80014fc:	681b      	ldr	r3, [r3, #0]
 80014fe:	f003 7300 	and.w	r3, r3, #33554432	; 0x2000000
 8001502:	2b00      	cmp	r3, #0
 8001504:	d1f0      	bne.n	80014e8 <HAL_RCC_OscConfig+0x3c0>
          }
        }

        /* Configure the main PLL clock source, multiplication and division factors. */
        WRITE_REG(RCC->PLLCFGR, (RCC_OscInitStruct->PLL.PLLSource                                            | \
 8001506:	687b      	ldr	r3, [r7, #4]
 8001508:	69da      	ldr	r2, [r3, #28]
 800150a:	687b      	ldr	r3, [r7, #4]
 800150c:	6a1b      	ldr	r3, [r3, #32]
 800150e:	431a      	orrs	r2, r3
 8001510:	687b      	ldr	r3, [r7, #4]
 8001512:	6a5b      	ldr	r3, [r3, #36]	; 0x24
 8001514:	019b      	lsls	r3, r3, #6
 8001516:	431a      	orrs	r2, r3
 8001518:	687b      	ldr	r3, [r7, #4]
 800151a:	6a9b      	ldr	r3, [r3, #40]	; 0x28
 800151c:	085b      	lsrs	r3, r3, #1
 800151e:	3b01      	subs	r3, #1
 8001520:	041b      	lsls	r3, r3, #16
 8001522:	431a      	orrs	r2, r3
 8001524:	687b      	ldr	r3, [r7, #4]
 8001526:	6adb      	ldr	r3, [r3, #44]	; 0x2c
 8001528:	061b      	lsls	r3, r3, #24
 800152a:	491b      	ldr	r1, [pc, #108]	; (8001598 <HAL_RCC_OscConfig+0x470>)
 800152c:	4313      	orrs	r3, r2
 800152e:	604b      	str	r3, [r1, #4]
                                 RCC_OscInitStruct->PLL.PLLM                                                 | \
                                 (RCC_OscInitStruct->PLL.PLLN << RCC_PLLCFGR_PLLN_Pos)             | \
                                 (((RCC_OscInitStruct->PLL.PLLP >> 1U) - 1U) << RCC_PLLCFGR_PLLP_Pos) | \
                                 (RCC_OscInitStruct->PLL.PLLQ << RCC_PLLCFGR_PLLQ_Pos)));
        /* Enable the main PLL. */
        __HAL_RCC_PLL_ENABLE();
 8001530:	4b1b      	ldr	r3, [pc, #108]	; (80015a0 <HAL_RCC_OscConfig+0x478>)
 8001532:	2201      	movs	r2, #1
 8001534:	601a      	str	r2, [r3, #0]

        /* Get Start Tick */
        tickstart = HAL_GetTick();
 8001536:	f7ff fae9 	bl	8000b0c <HAL_GetTick>
 800153a:	6138      	str	r0, [r7, #16]

        /* Wait till PLL is ready */
        while(__HAL_RCC_GET_FLAG(RCC_FLAG_PLLRDY) == RESET)
 800153c:	e008      	b.n	8001550 <HAL_RCC_OscConfig+0x428>
        {
          if((HAL_GetTick() - tickstart ) > PLL_TIMEOUT_VALUE)
 800153e:	f7ff fae5 	bl	8000b0c <HAL_GetTick>
 8001542:	4602      	mov	r2, r0
 8001544:	693b      	ldr	r3, [r7, #16]
 8001546:	1ad3      	subs	r3, r2, r3
 8001548:	2b02      	cmp	r3, #2
 800154a:	d901      	bls.n	8001550 <HAL_RCC_OscConfig+0x428>
          {
            return HAL_TIMEOUT;
 800154c:	2303      	movs	r3, #3
 800154e:	e05c      	b.n	800160a <HAL_RCC_OscConfig+0x4e2>
        while(__HAL_RCC_GET_FLAG(RCC_FLAG_PLLRDY) == RESET)
 8001550:	4b11      	ldr	r3, [pc, #68]	; (8001598 <HAL_RCC_OscConfig+0x470>)
 8001552:	681b      	ldr	r3, [r3, #0]
 8001554:	f003 7300 	and.w	r3, r3, #33554432	; 0x2000000
 8001558:	2b00      	cmp	r3, #0
 800155a:	d0f0      	beq.n	800153e <HAL_RCC_OscConfig+0x416>
 800155c:	e054      	b.n	8001608 <HAL_RCC_OscConfig+0x4e0>
        }
      }
      else
      {
        /* Disable the main PLL. */
        __HAL_RCC_PLL_DISABLE();
 800155e:	4b10      	ldr	r3, [pc, #64]	; (80015a0 <HAL_RCC_OscConfig+0x478>)
 8001560:	2200      	movs	r2, #0
 8001562:	601a      	str	r2, [r3, #0]

        /* Get Start Tick */
        tickstart = HAL_GetTick();
 8001564:	f7ff fad2 	bl	8000b0c <HAL_GetTick>
 8001568:	6138      	str	r0, [r7, #16]

        /* Wait till PLL is ready */
        while(__HAL_RCC_GET_FLAG(RCC_FLAG_PLLRDY) != RESET)
 800156a:	e008      	b.n	800157e <HAL_RCC_OscConfig+0x456>
        {
          if((HAL_GetTick() - tickstart ) > PLL_TIMEOUT_VALUE)
 800156c:	f7ff face 	bl	8000b0c <HAL_GetTick>
 8001570:	4602      	mov	r2, r0
 8001572:	693b      	ldr	r3, [r7, #16]
 8001574:	1ad3      	subs	r3, r2, r3
 8001576:	2b02      	cmp	r3, #2
 8001578:	d901      	bls.n	800157e <HAL_RCC_OscConfig+0x456>
          {
            return HAL_TIMEOUT;
 800157a:	2303      	movs	r3, #3
 800157c:	e045      	b.n	800160a <HAL_RCC_OscConfig+0x4e2>
        while(__HAL_RCC_GET_FLAG(RCC_FLAG_PLLRDY) != RESET)
 800157e:	4b06      	ldr	r3, [pc, #24]	; (8001598 <HAL_RCC_OscConfig+0x470>)
 8001580:	681b      	ldr	r3, [r3, #0]
 8001582:	f003 7300 	and.w	r3, r3, #33554432	; 0x2000000
 8001586:	2b00      	cmp	r3, #0
 8001588:	d1f0      	bne.n	800156c <HAL_RCC_OscConfig+0x444>
 800158a:	e03d      	b.n	8001608 <HAL_RCC_OscConfig+0x4e0>
      }
    }
    else
    {
      /* Check if there is a request to disable the PLL used as System clock source */
      if((RCC_OscInitStruct->PLL.PLLState) == RCC_PLL_OFF)
 800158c:	687b      	ldr	r3, [r7, #4]
 800158e:	699b      	ldr	r3, [r3, #24]
 8001590:	2b01      	cmp	r3, #1
 8001592:	d107      	bne.n	80015a4 <HAL_RCC_OscConfig+0x47c>
      {
        return HAL_ERROR;
 8001594:	2301      	movs	r3, #1
 8001596:	e038      	b.n	800160a <HAL_RCC_OscConfig+0x4e2>
 8001598:	40023800 	.word	0x40023800
 800159c:	40007000 	.word	0x40007000
 80015a0:	42470060 	.word	0x42470060
      }
      else
      {
        /* Do not return HAL_ERROR if request repeats the current configuration */
        pll_config = RCC->PLLCFGR;
 80015a4:	4b1b      	ldr	r3, [pc, #108]	; (8001614 <HAL_RCC_OscConfig+0x4ec>)
 80015a6:	685b      	ldr	r3, [r3, #4]
 80015a8:	60fb      	str	r3, [r7, #12]
            (READ_BIT(pll_config, RCC_PLLCFGR_PLLN) != (RCC_OscInitStruct->PLL.PLLN) << RCC_PLLCFGR_PLLN_Pos) ||
            (READ_BIT(pll_config, RCC_PLLCFGR_PLLP) != (((RCC_OscInitStruct->PLL.PLLP >> 1U) - 1U)) << RCC_PLLCFGR_PLLP_Pos) ||
            (READ_BIT(pll_config, RCC_PLLCFGR_PLLQ) != (RCC_OscInitStruct->PLL.PLLQ << RCC_PLLCFGR_PLLQ_Pos)) ||
            (READ_BIT(pll_config, RCC_PLLCFGR_PLLR) != (RCC_OscInitStruct->PLL.PLLR << RCC_PLLCFGR_PLLR_Pos)))
#else
        if (((RCC_OscInitStruct->PLL.PLLState) == RCC_PLL_OFF) ||
 80015aa:	687b      	ldr	r3, [r7, #4]
 80015ac:	699b      	ldr	r3, [r3, #24]
 80015ae:	2b01      	cmp	r3, #1
 80015b0:	d028      	beq.n	8001604 <HAL_RCC_OscConfig+0x4dc>
            (READ_BIT(pll_config, RCC_PLLCFGR_PLLSRC) != RCC_OscInitStruct->PLL.PLLSource) ||
 80015b2:	68fb      	ldr	r3, [r7, #12]
 80015b4:	f403 0280 	and.w	r2, r3, #4194304	; 0x400000
 80015b8:	687b      	ldr	r3, [r7, #4]
 80015ba:	69db      	ldr	r3, [r3, #28]
        if (((RCC_OscInitStruct->PLL.PLLState) == RCC_PLL_OFF) ||
 80015bc:	429a      	cmp	r2, r3
 80015be:	d121      	bne.n	8001604 <HAL_RCC_OscConfig+0x4dc>
            (READ_BIT(pll_config, RCC_PLLCFGR_PLLM) != (RCC_OscInitStruct->PLL.PLLM) << RCC_PLLCFGR_PLLM_Pos) ||
 80015c0:	68fb      	ldr	r3, [r7, #12]
 80015c2:	f003 023f 	and.w	r2, r3, #63	; 0x3f
 80015c6:	687b      	ldr	r3, [r7, #4]
 80015c8:	6a1b      	ldr	r3, [r3, #32]
            (READ_BIT(pll_config, RCC_PLLCFGR_PLLSRC) != RCC_OscInitStruct->PLL.PLLSource) ||
 80015ca:	429a      	cmp	r2, r3
 80015cc:	d11a      	bne.n	8001604 <HAL_RCC_OscConfig+0x4dc>
            (READ_BIT(pll_config, RCC_PLLCFGR_PLLN) != (RCC_OscInitStruct->PLL.PLLN) << RCC_PLLCFGR_PLLN_Pos) ||
 80015ce:	68fa      	ldr	r2, [r7, #12]
 80015d0:	f647 73c0 	movw	r3, #32704	; 0x7fc0
 80015d4:	4013      	ands	r3, r2
 80015d6:	687a      	ldr	r2, [r7, #4]
 80015d8:	6a52      	ldr	r2, [r2, #36]	; 0x24
 80015da:	0192      	lsls	r2, r2, #6
            (READ_BIT(pll_config, RCC_PLLCFGR_PLLM) != (RCC_OscInitStruct->PLL.PLLM) << RCC_PLLCFGR_PLLM_Pos) ||
 80015dc:	4293      	cmp	r3, r2
 80015de:	d111      	bne.n	8001604 <HAL_RCC_OscConfig+0x4dc>
            (READ_BIT(pll_config, RCC_PLLCFGR_PLLP) != (((RCC_OscInitStruct->PLL.PLLP >> 1U) - 1U)) << RCC_PLLCFGR_PLLP_Pos) ||
 80015e0:	68fb      	ldr	r3, [r7, #12]
 80015e2:	f403 3240 	and.w	r2, r3, #196608	; 0x30000
 80015e6:	687b      	ldr	r3, [r7, #4]
 80015e8:	6a9b      	ldr	r3, [r3, #40]	; 0x28
 80015ea:	085b      	lsrs	r3, r3, #1
 80015ec:	3b01      	subs	r3, #1
 80015ee:	041b      	lsls	r3, r3, #16
            (READ_BIT(pll_config, RCC_PLLCFGR_PLLN) != (RCC_OscInitStruct->PLL.PLLN) << RCC_PLLCFGR_PLLN_Pos) ||
 80015f0:	429a      	cmp	r2, r3
 80015f2:	d107      	bne.n	8001604 <HAL_RCC_OscConfig+0x4dc>
            (READ_BIT(pll_config, RCC_PLLCFGR_PLLQ) != (RCC_OscInitStruct->PLL.PLLQ << RCC_PLLCFGR_PLLQ_Pos)))
 80015f4:	68fb      	ldr	r3, [r7, #12]
 80015f6:	f003 6270 	and.w	r2, r3, #251658240	; 0xf000000
 80015fa:	687b      	ldr	r3, [r7, #4]
 80015fc:	6adb      	ldr	r3, [r3, #44]	; 0x2c
 80015fe:	061b      	lsls	r3, r3, #24
            (READ_BIT(pll_config, RCC_PLLCFGR_PLLP) != (((RCC_OscInitStruct->PLL.PLLP >> 1U) - 1U)) << RCC_PLLCFGR_PLLP_Pos) ||
 8001600:	429a      	cmp	r2, r3
 8001602:	d001      	beq.n	8001608 <HAL_RCC_OscConfig+0x4e0>
#endif
        {
          return HAL_ERROR;
 8001604:	2301      	movs	r3, #1
 8001606:	e000      	b.n	800160a <HAL_RCC_OscConfig+0x4e2>
        }
      }
    }
  }
  return HAL_OK;
 8001608:	2300      	movs	r3, #0
}
 800160a:	4618      	mov	r0, r3
 800160c:	3718      	adds	r7, #24
 800160e:	46bd      	mov	sp, r7
 8001610:	bd80      	pop	{r7, pc}
 8001612:	bf00      	nop
 8001614:	40023800 	.word	0x40023800

08001618 <HAL_RCC_ClockConfig>:
  *         HPRE[3:0] bits to ensure that HCLK not exceed the maximum allowed frequency
  *         (for more details refer to section above "Initialization/de-initialization functions")
  * @retval None
  */
HAL_StatusTypeDef HAL_RCC_ClockConfig(RCC_ClkInitTypeDef  *RCC_ClkInitStruct, uint32_t FLatency)
{
 8001618:	b580      	push	{r7, lr}
 800161a:	b084      	sub	sp, #16
 800161c:	af00      	add	r7, sp, #0
 800161e:	6078      	str	r0, [r7, #4]
 8001620:	6039      	str	r1, [r7, #0]
  uint32_t tickstart;

  /* Check Null pointer */
  if(RCC_ClkInitStruct == NULL)
 8001622:	687b      	ldr	r3, [r7, #4]
 8001624:	2b00      	cmp	r3, #0
 8001626:	d101      	bne.n	800162c <HAL_RCC_ClockConfig+0x14>
  {
    return HAL_ERROR;
 8001628:	2301      	movs	r3, #1
 800162a:	e0cc      	b.n	80017c6 <HAL_RCC_ClockConfig+0x1ae>
  /* To correctly read data from FLASH memory, the number of wait states (LATENCY)
    must be correctly programmed according to the frequency of the CPU clock
    (HCLK) and the supply voltage of the device. */

  /* Increasing the number of wait states because of higher CPU frequency */
  if(FLatency > __HAL_FLASH_GET_LATENCY())
 800162c:	4b68      	ldr	r3, [pc, #416]	; (80017d0 <HAL_RCC_ClockConfig+0x1b8>)
 800162e:	681b      	ldr	r3, [r3, #0]
 8001630:	f003 030f 	and.w	r3, r3, #15
 8001634:	683a      	ldr	r2, [r7, #0]
 8001636:	429a      	cmp	r2, r3
 8001638:	d90c      	bls.n	8001654 <HAL_RCC_ClockConfig+0x3c>
  {
    /* Program the new number of wait states to the LATENCY bits in the FLASH_ACR register */
    __HAL_FLASH_SET_LATENCY(FLatency);
 800163a:	4b65      	ldr	r3, [pc, #404]	; (80017d0 <HAL_RCC_ClockConfig+0x1b8>)
 800163c:	683a      	ldr	r2, [r7, #0]
 800163e:	b2d2      	uxtb	r2, r2
 8001640:	701a      	strb	r2, [r3, #0]

    /* Check that the new number of wait states is taken into account to access the Flash
    memory by reading the FLASH_ACR register */
    if(__HAL_FLASH_GET_LATENCY() != FLatency)
 8001642:	4b63      	ldr	r3, [pc, #396]	; (80017d0 <HAL_RCC_ClockConfig+0x1b8>)
 8001644:	681b      	ldr	r3, [r3, #0]
 8001646:	f003 030f 	and.w	r3, r3, #15
 800164a:	683a      	ldr	r2, [r7, #0]
 800164c:	429a      	cmp	r2, r3
 800164e:	d001      	beq.n	8001654 <HAL_RCC_ClockConfig+0x3c>
    {
      return HAL_ERROR;
 8001650:	2301      	movs	r3, #1
 8001652:	e0b8      	b.n	80017c6 <HAL_RCC_ClockConfig+0x1ae>
    }
  }

  /*-------------------------- HCLK Configuration --------------------------*/
  if(((RCC_ClkInitStruct->ClockType) & RCC_CLOCKTYPE_HCLK) == RCC_CLOCKTYPE_HCLK)
 8001654:	687b      	ldr	r3, [r7, #4]
 8001656:	681b      	ldr	r3, [r3, #0]
 8001658:	f003 0302 	and.w	r3, r3, #2
 800165c:	2b00      	cmp	r3, #0
 800165e:	d020      	beq.n	80016a2 <HAL_RCC_ClockConfig+0x8a>
  {
    /* Set the highest APBx dividers in order to ensure that we do not go through
       a non-spec phase whatever we decrease or increase HCLK. */
    if(((RCC_ClkInitStruct->ClockType) & RCC_CLOCKTYPE_PCLK1) == RCC_CLOCKTYPE_PCLK1)
 8001660:	687b      	ldr	r3, [r7, #4]
 8001662:	681b      	ldr	r3, [r3, #0]
 8001664:	f003 0304 	and.w	r3, r3, #4
 8001668:	2b00      	cmp	r3, #0
 800166a:	d005      	beq.n	8001678 <HAL_RCC_ClockConfig+0x60>
    {
      MODIFY_REG(RCC->CFGR, RCC_CFGR_PPRE1, RCC_HCLK_DIV16);
 800166c:	4b59      	ldr	r3, [pc, #356]	; (80017d4 <HAL_RCC_ClockConfig+0x1bc>)
 800166e:	689b      	ldr	r3, [r3, #8]
 8001670:	4a58      	ldr	r2, [pc, #352]	; (80017d4 <HAL_RCC_ClockConfig+0x1bc>)
 8001672:	f443 53e0 	orr.w	r3, r3, #7168	; 0x1c00
 8001676:	6093      	str	r3, [r2, #8]
    }

    if(((RCC_ClkInitStruct->ClockType) & RCC_CLOCKTYPE_PCLK2) == RCC_CLOCKTYPE_PCLK2)
 8001678:	687b      	ldr	r3, [r7, #4]
 800167a:	681b      	ldr	r3, [r3, #0]
 800167c:	f003 0308 	and.w	r3, r3, #8
 8001680:	2b00      	cmp	r3, #0
 8001682:	d005      	beq.n	8001690 <HAL_RCC_ClockConfig+0x78>
    {
      MODIFY_REG(RCC->CFGR, RCC_CFGR_PPRE2, (RCC_HCLK_DIV16 << 3));
 8001684:	4b53      	ldr	r3, [pc, #332]	; (80017d4 <HAL_RCC_ClockConfig+0x1bc>)
 8001686:	689b      	ldr	r3, [r3, #8]
 8001688:	4a52      	ldr	r2, [pc, #328]	; (80017d4 <HAL_RCC_ClockConfig+0x1bc>)
 800168a:	f443 4360 	orr.w	r3, r3, #57344	; 0xe000
 800168e:	6093      	str	r3, [r2, #8]
    }

    assert_param(IS_RCC_HCLK(RCC_ClkInitStruct->AHBCLKDivider));
    MODIFY_REG(RCC->CFGR, RCC_CFGR_HPRE, RCC_ClkInitStruct->AHBCLKDivider);
 8001690:	4b50      	ldr	r3, [pc, #320]	; (80017d4 <HAL_RCC_ClockConfig+0x1bc>)
 8001692:	689b      	ldr	r3, [r3, #8]
 8001694:	f023 02f0 	bic.w	r2, r3, #240	; 0xf0
 8001698:	687b      	ldr	r3, [r7, #4]
 800169a:	689b      	ldr	r3, [r3, #8]
 800169c:	494d      	ldr	r1, [pc, #308]	; (80017d4 <HAL_RCC_ClockConfig+0x1bc>)
 800169e:	4313      	orrs	r3, r2
 80016a0:	608b      	str	r3, [r1, #8]
  }

  /*------------------------- SYSCLK Configuration ---------------------------*/
  if(((RCC_ClkInitStruct->ClockType) & RCC_CLOCKTYPE_SYSCLK) == RCC_CLOCKTYPE_SYSCLK)
 80016a2:	687b      	ldr	r3, [r7, #4]
 80016a4:	681b      	ldr	r3, [r3, #0]
 80016a6:	f003 0301 	and.w	r3, r3, #1
 80016aa:	2b00      	cmp	r3, #0
 80016ac:	d044      	beq.n	8001738 <HAL_RCC_ClockConfig+0x120>
  {
    assert_param(IS_RCC_SYSCLKSOURCE(RCC_ClkInitStruct->SYSCLKSource));

    /* HSE is selected as System Clock Source */
    if(RCC_ClkInitStruct->SYSCLKSource == RCC_SYSCLKSOURCE_HSE)
 80016ae:	687b      	ldr	r3, [r7, #4]
 80016b0:	685b      	ldr	r3, [r3, #4]
 80016b2:	2b01      	cmp	r3, #1
 80016b4:	d107      	bne.n	80016c6 <HAL_RCC_ClockConfig+0xae>
    {
      /* Check the HSE ready flag */
      if(__HAL_RCC_GET_FLAG(RCC_FLAG_HSERDY) == RESET)
 80016b6:	4b47      	ldr	r3, [pc, #284]	; (80017d4 <HAL_RCC_ClockConfig+0x1bc>)
 80016b8:	681b      	ldr	r3, [r3, #0]
 80016ba:	f403 3300 	and.w	r3, r3, #131072	; 0x20000
 80016be:	2b00      	cmp	r3, #0
 80016c0:	d119      	bne.n	80016f6 <HAL_RCC_ClockConfig+0xde>
      {
        return HAL_ERROR;
 80016c2:	2301      	movs	r3, #1
 80016c4:	e07f      	b.n	80017c6 <HAL_RCC_ClockConfig+0x1ae>
      }
    }
    /* PLL is selected as System Clock Source */
    else if((RCC_ClkInitStruct->SYSCLKSource == RCC_SYSCLKSOURCE_PLLCLK)   ||
 80016c6:	687b      	ldr	r3, [r7, #4]
 80016c8:	685b      	ldr	r3, [r3, #4]
 80016ca:	2b02      	cmp	r3, #2
 80016cc:	d003      	beq.n	80016d6 <HAL_RCC_ClockConfig+0xbe>
            (RCC_ClkInitStruct->SYSCLKSource == RCC_SYSCLKSOURCE_PLLRCLK))
 80016ce:	687b      	ldr	r3, [r7, #4]
 80016d0:	685b      	ldr	r3, [r3, #4]
    else if((RCC_ClkInitStruct->SYSCLKSource == RCC_SYSCLKSOURCE_PLLCLK)   ||
 80016d2:	2b03      	cmp	r3, #3
 80016d4:	d107      	bne.n	80016e6 <HAL_RCC_ClockConfig+0xce>
    {
      /* Check the PLL ready flag */
      if(__HAL_RCC_GET_FLAG(RCC_FLAG_PLLRDY) == RESET)
 80016d6:	4b3f      	ldr	r3, [pc, #252]	; (80017d4 <HAL_RCC_ClockConfig+0x1bc>)
 80016d8:	681b      	ldr	r3, [r3, #0]
 80016da:	f003 7300 	and.w	r3, r3, #33554432	; 0x2000000
 80016de:	2b00      	cmp	r3, #0
 80016e0:	d109      	bne.n	80016f6 <HAL_RCC_ClockConfig+0xde>
      {
        return HAL_ERROR;
 80016e2:	2301      	movs	r3, #1
 80016e4:	e06f      	b.n	80017c6 <HAL_RCC_ClockConfig+0x1ae>
    }
    /* HSI is selected as System Clock Source */
    else
    {
      /* Check the HSI ready flag */
      if(__HAL_RCC_GET_FLAG(RCC_FLAG_HSIRDY) == RESET)
 80016e6:	4b3b      	ldr	r3, [pc, #236]	; (80017d4 <HAL_RCC_ClockConfig+0x1bc>)
 80016e8:	681b      	ldr	r3, [r3, #0]
 80016ea:	f003 0302 	and.w	r3, r3, #2
 80016ee:	2b00      	cmp	r3, #0
 80016f0:	d101      	bne.n	80016f6 <HAL_RCC_ClockConfig+0xde>
      {
        return HAL_ERROR;
 80016f2:	2301      	movs	r3, #1
 80016f4:	e067      	b.n	80017c6 <HAL_RCC_ClockConfig+0x1ae>
      }
    }

    __HAL_RCC_SYSCLK_CONFIG(RCC_ClkInitStruct->SYSCLKSource);
 80016f6:	4b37      	ldr	r3, [pc, #220]	; (80017d4 <HAL_RCC_ClockConfig+0x1bc>)
 80016f8:	689b      	ldr	r3, [r3, #8]
 80016fa:	f023 0203 	bic.w	r2, r3, #3
 80016fe:	687b      	ldr	r3, [r7, #4]
 8001700:	685b      	ldr	r3, [r3, #4]
 8001702:	4934      	ldr	r1, [pc, #208]	; (80017d4 <HAL_RCC_ClockConfig+0x1bc>)
 8001704:	4313      	orrs	r3, r2
 8001706:	608b      	str	r3, [r1, #8]

    /* Get Start Tick */
    tickstart = HAL_GetTick();
 8001708:	f7ff fa00 	bl	8000b0c <HAL_GetTick>
 800170c:	60f8      	str	r0, [r7, #12]

    while (__HAL_RCC_GET_SYSCLK_SOURCE() != (RCC_ClkInitStruct->SYSCLKSource << RCC_CFGR_SWS_Pos))
 800170e:	e00a      	b.n	8001726 <HAL_RCC_ClockConfig+0x10e>
    {
      if ((HAL_GetTick() - tickstart) > CLOCKSWITCH_TIMEOUT_VALUE)
 8001710:	f7ff f9fc 	bl	8000b0c <HAL_GetTick>
 8001714:	4602      	mov	r2, r0
 8001716:	68fb      	ldr	r3, [r7, #12]
 8001718:	1ad3      	subs	r3, r2, r3
 800171a:	f241 3288 	movw	r2, #5000	; 0x1388
 800171e:	4293      	cmp	r3, r2
 8001720:	d901      	bls.n	8001726 <HAL_RCC_ClockConfig+0x10e>
      {
        return HAL_TIMEOUT;
 8001722:	2303      	movs	r3, #3
 8001724:	e04f      	b.n	80017c6 <HAL_RCC_ClockConfig+0x1ae>
    while (__HAL_RCC_GET_SYSCLK_SOURCE() != (RCC_ClkInitStruct->SYSCLKSource << RCC_CFGR_SWS_Pos))
 8001726:	4b2b      	ldr	r3, [pc, #172]	; (80017d4 <HAL_RCC_ClockConfig+0x1bc>)
 8001728:	689b      	ldr	r3, [r3, #8]
 800172a:	f003 020c 	and.w	r2, r3, #12
 800172e:	687b      	ldr	r3, [r7, #4]
 8001730:	685b      	ldr	r3, [r3, #4]
 8001732:	009b      	lsls	r3, r3, #2
 8001734:	429a      	cmp	r2, r3
 8001736:	d1eb      	bne.n	8001710 <HAL_RCC_ClockConfig+0xf8>
      }
    }
  }

  /* Decreasing the number of wait states because of lower CPU frequency */
  if(FLatency < __HAL_FLASH_GET_LATENCY())
 8001738:	4b25      	ldr	r3, [pc, #148]	; (80017d0 <HAL_RCC_ClockConfig+0x1b8>)
 800173a:	681b      	ldr	r3, [r3, #0]
 800173c:	f003 030f 	and.w	r3, r3, #15
 8001740:	683a      	ldr	r2, [r7, #0]
 8001742:	429a      	cmp	r2, r3
 8001744:	d20c      	bcs.n	8001760 <HAL_RCC_ClockConfig+0x148>
  {
     /* Program the new number of wait states to the LATENCY bits in the FLASH_ACR register */
    __HAL_FLASH_SET_LATENCY(FLatency);
 8001746:	4b22      	ldr	r3, [pc, #136]	; (80017d0 <HAL_RCC_ClockConfig+0x1b8>)
 8001748:	683a      	ldr	r2, [r7, #0]
 800174a:	b2d2      	uxtb	r2, r2
 800174c:	701a      	strb	r2, [r3, #0]

    /* Check that the new number of wait states is taken into account to access the Flash
    memory by reading the FLASH_ACR register */
    if(__HAL_FLASH_GET_LATENCY() != FLatency)
 800174e:	4b20      	ldr	r3, [pc, #128]	; (80017d0 <HAL_RCC_ClockConfig+0x1b8>)
 8001750:	681b      	ldr	r3, [r3, #0]
 8001752:	f003 030f 	and.w	r3, r3, #15
 8001756:	683a      	ldr	r2, [r7, #0]
 8001758:	429a      	cmp	r2, r3
 800175a:	d001      	beq.n	8001760 <HAL_RCC_ClockConfig+0x148>
    {
      return HAL_ERROR;
 800175c:	2301      	movs	r3, #1
 800175e:	e032      	b.n	80017c6 <HAL_RCC_ClockConfig+0x1ae>
    }
  }

  /*-------------------------- PCLK1 Configuration ---------------------------*/
  if(((RCC_ClkInitStruct->ClockType) & RCC_CLOCKTYPE_PCLK1) == RCC_CLOCKTYPE_PCLK1)
 8001760:	687b      	ldr	r3, [r7, #4]
 8001762:	681b      	ldr	r3, [r3, #0]
 8001764:	f003 0304 	and.w	r3, r3, #4
 8001768:	2b00      	cmp	r3, #0
 800176a:	d008      	beq.n	800177e <HAL_RCC_ClockConfig+0x166>
  {
    assert_param(IS_RCC_PCLK(RCC_ClkInitStruct->APB1CLKDivider));
    MODIFY_REG(RCC->CFGR, RCC_CFGR_PPRE1, RCC_ClkInitStruct->APB1CLKDivider);
 800176c:	4b19      	ldr	r3, [pc, #100]	; (80017d4 <HAL_RCC_ClockConfig+0x1bc>)
 800176e:	689b      	ldr	r3, [r3, #8]
 8001770:	f423 52e0 	bic.w	r2, r3, #7168	; 0x1c00
 8001774:	687b      	ldr	r3, [r7, #4]
 8001776:	68db      	ldr	r3, [r3, #12]
 8001778:	4916      	ldr	r1, [pc, #88]	; (80017d4 <HAL_RCC_ClockConfig+0x1bc>)
 800177a:	4313      	orrs	r3, r2
 800177c:	608b      	str	r3, [r1, #8]
  }

  /*-------------------------- PCLK2 Configuration ---------------------------*/
  if(((RCC_ClkInitStruct->ClockType) & RCC_CLOCKTYPE_PCLK2) == RCC_CLOCKTYPE_PCLK2)
 800177e:	687b      	ldr	r3, [r7, #4]
 8001780:	681b      	ldr	r3, [r3, #0]
 8001782:	f003 0308 	and.w	r3, r3, #8
 8001786:	2b00      	cmp	r3, #0
 8001788:	d009      	beq.n	800179e <HAL_RCC_ClockConfig+0x186>
  {
    assert_param(IS_RCC_PCLK(RCC_ClkInitStruct->APB2CLKDivider));
    MODIFY_REG(RCC->CFGR, RCC_CFGR_PPRE2, ((RCC_ClkInitStruct->APB2CLKDivider) << 3U));
 800178a:	4b12      	ldr	r3, [pc, #72]	; (80017d4 <HAL_RCC_ClockConfig+0x1bc>)
 800178c:	689b      	ldr	r3, [r3, #8]
 800178e:	f423 4260 	bic.w	r2, r3, #57344	; 0xe000
 8001792:	687b      	ldr	r3, [r7, #4]
 8001794:	691b      	ldr	r3, [r3, #16]
 8001796:	00db      	lsls	r3, r3, #3
 8001798:	490e      	ldr	r1, [pc, #56]	; (80017d4 <HAL_RCC_ClockConfig+0x1bc>)
 800179a:	4313      	orrs	r3, r2
 800179c:	608b      	str	r3, [r1, #8]
  }

  /* Update the SystemCoreClock global variable */
  SystemCoreClock = HAL_RCC_GetSysClockFreq() >> AHBPrescTable[(RCC->CFGR & RCC_CFGR_HPRE)>> RCC_CFGR_HPRE_Pos];
 800179e:	f000 f821 	bl	80017e4 <HAL_RCC_GetSysClockFreq>
 80017a2:	4602      	mov	r2, r0
 80017a4:	4b0b      	ldr	r3, [pc, #44]	; (80017d4 <HAL_RCC_ClockConfig+0x1bc>)
 80017a6:	689b      	ldr	r3, [r3, #8]
 80017a8:	091b      	lsrs	r3, r3, #4
 80017aa:	f003 030f 	and.w	r3, r3, #15
 80017ae:	490a      	ldr	r1, [pc, #40]	; (80017d8 <HAL_RCC_ClockConfig+0x1c0>)
 80017b0:	5ccb      	ldrb	r3, [r1, r3]
 80017b2:	fa22 f303 	lsr.w	r3, r2, r3
 80017b6:	4a09      	ldr	r2, [pc, #36]	; (80017dc <HAL_RCC_ClockConfig+0x1c4>)
 80017b8:	6013      	str	r3, [r2, #0]

  /* Configure the source of time base considering new system clocks settings */
  HAL_InitTick (uwTickPrio);
 80017ba:	4b09      	ldr	r3, [pc, #36]	; (80017e0 <HAL_RCC_ClockConfig+0x1c8>)
 80017bc:	681b      	ldr	r3, [r3, #0]
 80017be:	4618      	mov	r0, r3
 80017c0:	f7ff f960 	bl	8000a84 <HAL_InitTick>

  return HAL_OK;
 80017c4:	2300      	movs	r3, #0
}
 80017c6:	4618      	mov	r0, r3
 80017c8:	3710      	adds	r7, #16
 80017ca:	46bd      	mov	sp, r7
 80017cc:	bd80      	pop	{r7, pc}
 80017ce:	bf00      	nop
 80017d0:	40023c00 	.word	0x40023c00
 80017d4:	40023800 	.word	0x40023800
 80017d8:	08001a60 	.word	0x08001a60
 80017dc:	20000000 	.word	0x20000000
 80017e0:	20000004 	.word	0x20000004

080017e4 <HAL_RCC_GetSysClockFreq>:
  *
  *
  * @retval SYSCLK frequency
  */
__weak uint32_t HAL_RCC_GetSysClockFreq(void)
{
 80017e4:	e92d 4fb0 	stmdb	sp!, {r4, r5, r7, r8, r9, sl, fp, lr}
 80017e8:	b094      	sub	sp, #80	; 0x50
 80017ea:	af00      	add	r7, sp, #0
  uint32_t pllm = 0U, pllvco = 0U, pllp = 0U;
 80017ec:	2300      	movs	r3, #0
 80017ee:	647b      	str	r3, [r7, #68]	; 0x44
 80017f0:	2300      	movs	r3, #0
 80017f2:	64fb      	str	r3, [r7, #76]	; 0x4c
 80017f4:	2300      	movs	r3, #0
 80017f6:	643b      	str	r3, [r7, #64]	; 0x40
  uint32_t sysclockfreq = 0U;
 80017f8:	2300      	movs	r3, #0
 80017fa:	64bb      	str	r3, [r7, #72]	; 0x48

  /* Get SYSCLK source -------------------------------------------------------*/
  switch (RCC->CFGR & RCC_CFGR_SWS)
 80017fc:	4b79      	ldr	r3, [pc, #484]	; (80019e4 <HAL_RCC_GetSysClockFreq+0x200>)
 80017fe:	689b      	ldr	r3, [r3, #8]
 8001800:	f003 030c 	and.w	r3, r3, #12
 8001804:	2b08      	cmp	r3, #8
 8001806:	d00d      	beq.n	8001824 <HAL_RCC_GetSysClockFreq+0x40>
 8001808:	2b08      	cmp	r3, #8
 800180a:	f200 80e1 	bhi.w	80019d0 <HAL_RCC_GetSysClockFreq+0x1ec>
 800180e:	2b00      	cmp	r3, #0
 8001810:	d002      	beq.n	8001818 <HAL_RCC_GetSysClockFreq+0x34>
 8001812:	2b04      	cmp	r3, #4
 8001814:	d003      	beq.n	800181e <HAL_RCC_GetSysClockFreq+0x3a>
 8001816:	e0db      	b.n	80019d0 <HAL_RCC_GetSysClockFreq+0x1ec>
  {
    case RCC_CFGR_SWS_HSI:  /* HSI used as system clock source */
    {
      sysclockfreq = HSI_VALUE;
 8001818:	4b73      	ldr	r3, [pc, #460]	; (80019e8 <HAL_RCC_GetSysClockFreq+0x204>)
 800181a:	64bb      	str	r3, [r7, #72]	; 0x48
       break;
 800181c:	e0db      	b.n	80019d6 <HAL_RCC_GetSysClockFreq+0x1f2>
    }
    case RCC_CFGR_SWS_HSE:  /* HSE used as system clock  source */
    {
      sysclockfreq = HSE_VALUE;
 800181e:	4b73      	ldr	r3, [pc, #460]	; (80019ec <HAL_RCC_GetSysClockFreq+0x208>)
 8001820:	64bb      	str	r3, [r7, #72]	; 0x48
      break;
 8001822:	e0d8      	b.n	80019d6 <HAL_RCC_GetSysClockFreq+0x1f2>
    }
    case RCC_CFGR_SWS_PLL:  /* PLL used as system clock  source */
    {
      /* PLL_VCO = (HSE_VALUE or HSI_VALUE / PLLM) * PLLN
      SYSCLK = PLL_VCO / PLLP */
      pllm = RCC->PLLCFGR & RCC_PLLCFGR_PLLM;
 8001824:	4b6f      	ldr	r3, [pc, #444]	; (80019e4 <HAL_RCC_GetSysClockFreq+0x200>)
 8001826:	685b      	ldr	r3, [r3, #4]
 8001828:	f003 033f 	and.w	r3, r3, #63	; 0x3f
 800182c:	647b      	str	r3, [r7, #68]	; 0x44
      if(__HAL_RCC_GET_PLL_OSCSOURCE() != RCC_PLLSOURCE_HSI)
 800182e:	4b6d      	ldr	r3, [pc, #436]	; (80019e4 <HAL_RCC_GetSysClockFreq+0x200>)
 8001830:	685b      	ldr	r3, [r3, #4]
 8001832:	f403 0380 	and.w	r3, r3, #4194304	; 0x400000
 8001836:	2b00      	cmp	r3, #0
 8001838:	d063      	beq.n	8001902 <HAL_RCC_GetSysClockFreq+0x11e>
      {
        /* HSE used as PLL clock source */
        pllvco = (uint32_t) ((((uint64_t) HSE_VALUE * ((uint64_t) ((RCC->PLLCFGR & RCC_PLLCFGR_PLLN) >> RCC_PLLCFGR_PLLN_Pos)))) / (uint64_t)pllm);
 800183a:	4b6a      	ldr	r3, [pc, #424]	; (80019e4 <HAL_RCC_GetSysClockFreq+0x200>)
 800183c:	685b      	ldr	r3, [r3, #4]
 800183e:	099b      	lsrs	r3, r3, #6
 8001840:	2200      	movs	r2, #0
 8001842:	63bb      	str	r3, [r7, #56]	; 0x38
 8001844:	63fa      	str	r2, [r7, #60]	; 0x3c
 8001846:	6bbb      	ldr	r3, [r7, #56]	; 0x38
 8001848:	f3c3 0308 	ubfx	r3, r3, #0, #9
 800184c:	633b      	str	r3, [r7, #48]	; 0x30
 800184e:	2300      	movs	r3, #0
 8001850:	637b      	str	r3, [r7, #52]	; 0x34
 8001852:	e9d7 450c 	ldrd	r4, r5, [r7, #48]	; 0x30
 8001856:	4622      	mov	r2, r4
 8001858:	462b      	mov	r3, r5
 800185a:	f04f 0000 	mov.w	r0, #0
 800185e:	f04f 0100 	mov.w	r1, #0
 8001862:	0159      	lsls	r1, r3, #5
 8001864:	ea41 61d2 	orr.w	r1, r1, r2, lsr #27
 8001868:	0150      	lsls	r0, r2, #5
 800186a:	4602      	mov	r2, r0
 800186c:	460b      	mov	r3, r1
 800186e:	4621      	mov	r1, r4
 8001870:	1a51      	subs	r1, r2, r1
 8001872:	6139      	str	r1, [r7, #16]
 8001874:	4629      	mov	r1, r5
 8001876:	eb63 0301 	sbc.w	r3, r3, r1
 800187a:	617b      	str	r3, [r7, #20]
 800187c:	f04f 0200 	mov.w	r2, #0
 8001880:	f04f 0300 	mov.w	r3, #0
 8001884:	e9d7 ab04 	ldrd	sl, fp, [r7, #16]
 8001888:	4659      	mov	r1, fp
 800188a:	018b      	lsls	r3, r1, #6
 800188c:	4651      	mov	r1, sl
 800188e:	ea43 6391 	orr.w	r3, r3, r1, lsr #26
 8001892:	4651      	mov	r1, sl
 8001894:	018a      	lsls	r2, r1, #6
 8001896:	4651      	mov	r1, sl
 8001898:	ebb2 0801 	subs.w	r8, r2, r1
 800189c:	4659      	mov	r1, fp
 800189e:	eb63 0901 	sbc.w	r9, r3, r1
 80018a2:	f04f 0200 	mov.w	r2, #0
 80018a6:	f04f 0300 	mov.w	r3, #0
 80018aa:	ea4f 03c9 	mov.w	r3, r9, lsl #3
 80018ae:	ea43 7358 	orr.w	r3, r3, r8, lsr #29
 80018b2:	ea4f 02c8 	mov.w	r2, r8, lsl #3
 80018b6:	4690      	mov	r8, r2
 80018b8:	4699      	mov	r9, r3
 80018ba:	4623      	mov	r3, r4
 80018bc:	eb18 0303 	adds.w	r3, r8, r3
 80018c0:	60bb      	str	r3, [r7, #8]
 80018c2:	462b      	mov	r3, r5
 80018c4:	eb49 0303 	adc.w	r3, r9, r3
 80018c8:	60fb      	str	r3, [r7, #12]
 80018ca:	f04f 0200 	mov.w	r2, #0
 80018ce:	f04f 0300 	mov.w	r3, #0
 80018d2:	e9d7 4502 	ldrd	r4, r5, [r7, #8]
 80018d6:	4629      	mov	r1, r5
 80018d8:	024b      	lsls	r3, r1, #9
 80018da:	4621      	mov	r1, r4
 80018dc:	ea43 53d1 	orr.w	r3, r3, r1, lsr #23
 80018e0:	4621      	mov	r1, r4
 80018e2:	024a      	lsls	r2, r1, #9
 80018e4:	4610      	mov	r0, r2
 80018e6:	4619      	mov	r1, r3
 80018e8:	6c7b      	ldr	r3, [r7, #68]	; 0x44
 80018ea:	2200      	movs	r2, #0
 80018ec:	62bb      	str	r3, [r7, #40]	; 0x28
 80018ee:	62fa      	str	r2, [r7, #44]	; 0x2c
 80018f0:	e9d7 230a 	ldrd	r2, r3, [r7, #40]	; 0x28
 80018f4:	f7fe fc7a 	bl	80001ec <__aeabi_uldivmod>
 80018f8:	4602      	mov	r2, r0
 80018fa:	460b      	mov	r3, r1
 80018fc:	4613      	mov	r3, r2
 80018fe:	64fb      	str	r3, [r7, #76]	; 0x4c
 8001900:	e058      	b.n	80019b4 <HAL_RCC_GetSysClockFreq+0x1d0>
      }
      else
      {
        /* HSI used as PLL clock source */
        pllvco = (uint32_t) ((((uint64_t) HSI_VALUE * ((uint64_t) ((RCC->PLLCFGR & RCC_PLLCFGR_PLLN) >> RCC_PLLCFGR_PLLN_Pos)))) / (uint64_t)pllm);
 8001902:	4b38      	ldr	r3, [pc, #224]	; (80019e4 <HAL_RCC_GetSysClockFreq+0x200>)
 8001904:	685b      	ldr	r3, [r3, #4]
 8001906:	099b      	lsrs	r3, r3, #6
 8001908:	2200      	movs	r2, #0
 800190a:	4618      	mov	r0, r3
 800190c:	4611      	mov	r1, r2
 800190e:	f3c0 0308 	ubfx	r3, r0, #0, #9
 8001912:	623b      	str	r3, [r7, #32]
 8001914:	2300      	movs	r3, #0
 8001916:	627b      	str	r3, [r7, #36]	; 0x24
 8001918:	e9d7 8908 	ldrd	r8, r9, [r7, #32]
 800191c:	4642      	mov	r2, r8
 800191e:	464b      	mov	r3, r9
 8001920:	f04f 0000 	mov.w	r0, #0
 8001924:	f04f 0100 	mov.w	r1, #0
 8001928:	0159      	lsls	r1, r3, #5
 800192a:	ea41 61d2 	orr.w	r1, r1, r2, lsr #27
 800192e:	0150      	lsls	r0, r2, #5
 8001930:	4602      	mov	r2, r0
 8001932:	460b      	mov	r3, r1
 8001934:	4641      	mov	r1, r8
 8001936:	ebb2 0a01 	subs.w	sl, r2, r1
 800193a:	4649      	mov	r1, r9
 800193c:	eb63 0b01 	sbc.w	fp, r3, r1
 8001940:	f04f 0200 	mov.w	r2, #0
 8001944:	f04f 0300 	mov.w	r3, #0
 8001948:	ea4f 138b 	mov.w	r3, fp, lsl #6
 800194c:	ea43 639a 	orr.w	r3, r3, sl, lsr #26
 8001950:	ea4f 128a 	mov.w	r2, sl, lsl #6
 8001954:	ebb2 040a 	subs.w	r4, r2, sl
 8001958:	eb63 050b 	sbc.w	r5, r3, fp
 800195c:	f04f 0200 	mov.w	r2, #0
 8001960:	f04f 0300 	mov.w	r3, #0
 8001964:	00eb      	lsls	r3, r5, #3
 8001966:	ea43 7354 	orr.w	r3, r3, r4, lsr #29
 800196a:	00e2      	lsls	r2, r4, #3
 800196c:	4614      	mov	r4, r2
 800196e:	461d      	mov	r5, r3
 8001970:	4643      	mov	r3, r8
 8001972:	18e3      	adds	r3, r4, r3
 8001974:	603b      	str	r3, [r7, #0]
 8001976:	464b      	mov	r3, r9
 8001978:	eb45 0303 	adc.w	r3, r5, r3
 800197c:	607b      	str	r3, [r7, #4]
 800197e:	f04f 0200 	mov.w	r2, #0
 8001982:	f04f 0300 	mov.w	r3, #0
 8001986:	e9d7 4500 	ldrd	r4, r5, [r7]
 800198a:	4629      	mov	r1, r5
 800198c:	028b      	lsls	r3, r1, #10
 800198e:	4621      	mov	r1, r4
 8001990:	ea43 5391 	orr.w	r3, r3, r1, lsr #22
 8001994:	4621      	mov	r1, r4
 8001996:	028a      	lsls	r2, r1, #10
 8001998:	4610      	mov	r0, r2
 800199a:	4619      	mov	r1, r3
 800199c:	6c7b      	ldr	r3, [r7, #68]	; 0x44
 800199e:	2200      	movs	r2, #0
 80019a0:	61bb      	str	r3, [r7, #24]
 80019a2:	61fa      	str	r2, [r7, #28]
 80019a4:	e9d7 2306 	ldrd	r2, r3, [r7, #24]
 80019a8:	f7fe fc20 	bl	80001ec <__aeabi_uldivmod>
 80019ac:	4602      	mov	r2, r0
 80019ae:	460b      	mov	r3, r1
 80019b0:	4613      	mov	r3, r2
 80019b2:	64fb      	str	r3, [r7, #76]	; 0x4c
      }
      pllp = ((((RCC->PLLCFGR & RCC_PLLCFGR_PLLP) >> RCC_PLLCFGR_PLLP_Pos) + 1U) *2U);
 80019b4:	4b0b      	ldr	r3, [pc, #44]	; (80019e4 <HAL_RCC_GetSysClockFreq+0x200>)
 80019b6:	685b      	ldr	r3, [r3, #4]
 80019b8:	0c1b      	lsrs	r3, r3, #16
 80019ba:	f003 0303 	and.w	r3, r3, #3
 80019be:	3301      	adds	r3, #1
 80019c0:	005b      	lsls	r3, r3, #1
 80019c2:	643b      	str	r3, [r7, #64]	; 0x40

      sysclockfreq = pllvco/pllp;
 80019c4:	6cfa      	ldr	r2, [r7, #76]	; 0x4c
 80019c6:	6c3b      	ldr	r3, [r7, #64]	; 0x40
 80019c8:	fbb2 f3f3 	udiv	r3, r2, r3
 80019cc:	64bb      	str	r3, [r7, #72]	; 0x48
      break;
 80019ce:	e002      	b.n	80019d6 <HAL_RCC_GetSysClockFreq+0x1f2>
    }
    default:
    {
      sysclockfreq = HSI_VALUE;
 80019d0:	4b05      	ldr	r3, [pc, #20]	; (80019e8 <HAL_RCC_GetSysClockFreq+0x204>)
 80019d2:	64bb      	str	r3, [r7, #72]	; 0x48
      break;
 80019d4:	bf00      	nop
    }
  }
  return sysclockfreq;
 80019d6:	6cbb      	ldr	r3, [r7, #72]	; 0x48
}
 80019d8:	4618      	mov	r0, r3
 80019da:	3750      	adds	r7, #80	; 0x50
 80019dc:	46bd      	mov	sp, r7
 80019de:	e8bd 8fb0 	ldmia.w	sp!, {r4, r5, r7, r8, r9, sl, fp, pc}
 80019e2:	bf00      	nop
 80019e4:	40023800 	.word	0x40023800
 80019e8:	00f42400 	.word	0x00f42400
 80019ec:	007a1200 	.word	0x007a1200

080019f0 <__libc_init_array>:
 80019f0:	b570      	push	{r4, r5, r6, lr}
 80019f2:	4d0d      	ldr	r5, [pc, #52]	; (8001a28 <__libc_init_array+0x38>)
 80019f4:	4c0d      	ldr	r4, [pc, #52]	; (8001a2c <__libc_init_array+0x3c>)
 80019f6:	1b64      	subs	r4, r4, r5
 80019f8:	10a4      	asrs	r4, r4, #2
 80019fa:	2600      	movs	r6, #0
 80019fc:	42a6      	cmp	r6, r4
 80019fe:	d109      	bne.n	8001a14 <__libc_init_array+0x24>
 8001a00:	4d0b      	ldr	r5, [pc, #44]	; (8001a30 <__libc_init_array+0x40>)
 8001a02:	4c0c      	ldr	r4, [pc, #48]	; (8001a34 <__libc_init_array+0x44>)
 8001a04:	f000 f820 	bl	8001a48 <_init>
 8001a08:	1b64      	subs	r4, r4, r5
 8001a0a:	10a4      	asrs	r4, r4, #2
 8001a0c:	2600      	movs	r6, #0
 8001a0e:	42a6      	cmp	r6, r4
 8001a10:	d105      	bne.n	8001a1e <__libc_init_array+0x2e>
 8001a12:	bd70      	pop	{r4, r5, r6, pc}
 8001a14:	f855 3b04 	ldr.w	r3, [r5], #4
 8001a18:	4798      	blx	r3
 8001a1a:	3601      	adds	r6, #1
 8001a1c:	e7ee      	b.n	80019fc <__libc_init_array+0xc>
 8001a1e:	f855 3b04 	ldr.w	r3, [r5], #4
 8001a22:	4798      	blx	r3
 8001a24:	3601      	adds	r6, #1
 8001a26:	e7f2      	b.n	8001a0e <__libc_init_array+0x1e>
 8001a28:	08001a78 	.word	0x08001a78
 8001a2c:	08001a78 	.word	0x08001a78
 8001a30:	08001a78 	.word	0x08001a78
 8001a34:	08001a7c 	.word	0x08001a7c

08001a38 <memset>:
 8001a38:	4402      	add	r2, r0
 8001a3a:	4603      	mov	r3, r0
 8001a3c:	4293      	cmp	r3, r2
 8001a3e:	d100      	bne.n	8001a42 <memset+0xa>
 8001a40:	4770      	bx	lr
 8001a42:	f803 1b01 	strb.w	r1, [r3], #1
 8001a46:	e7f9      	b.n	8001a3c <memset+0x4>

08001a48 <_init>:
 8001a48:	b5f8      	push	{r3, r4, r5, r6, r7, lr}
 8001a4a:	bf00      	nop
 8001a4c:	bcf8      	pop	{r3, r4, r5, r6, r7}
 8001a4e:	bc08      	pop	{r3}
 8001a50:	469e      	mov	lr, r3
 8001a52:	4770      	bx	lr

08001a54 <_fini>:
 8001a54:	b5f8      	push	{r3, r4, r5, r6, r7, lr}
 8001a56:	bf00      	nop
 8001a58:	bcf8      	pop	{r3, r4, r5, r6, r7}
 8001a5a:	bc08      	pop	{r3}
 8001a5c:	469e      	mov	lr, r3
 8001a5e:	4770      	bx	lr
